:020000040000FA
:10000000687C0010E1000000E5000000E70000004F
:10001000E9000000EB000000ED000000000000001F
:10002000000000000000000000000000EF000000E1
:10003000F100000000000000F300000075E701007F
:10004000F7000000E11502000D160200F7000000A5
:10005000F700000051440200F7000000F700000024
:10006000F7000000F7000000F7000000F7000000B4
:10007000F7000000F7000000F7000000F7000000A4
:10008000F7000000F7000000F7000000F700000094
:10009000F7000000F700000089580000F70000009A
:1000A000F70000002F420200F7000000F7000000F8
:1000B000C1590200F7000000F7000000F70000003F
:1000C000F7000000F7000000F7000000DFF80CD098
:1000D00025F03EFD00480047E5E80100687C00107F
:1000E00005480047FEE7FEE7FEE7FEE7FEE7FEE71E
:1000F000FEE7FEE7FEE7FEE7CD000000FEE710B5F5
:1001000027F0F0FB27F07CFC27F06EFC27F0FCFBCF
:10011000AFF30080BDE8104027F038BC10B528F0E0
:1001200049FA29F0B9F828F09DFABDE8104028F006
:1001300015BC28F05DB927F025BF09B10020704734
:1001400026F07ABC0020704770B5374A0020A2F133
:100150001401064601F10A030C5C54B11D5CAC426B
:1001600007D1145C2CB1641E14F0FF04145400D1A8
:100170000E540C5C1C54401CC0B20A28ECD370BD59
:1001800070B5294D0024143D641CE4B22E5D1EB1EF
:10019000864201D00A2CF7D3285523480C3040F86A
:1001A0002410283040F824203438035570BD1E4AEE
:1001B0000021143A491CC9B2535C834201D00A2978
:1001C000F8D3DBB2834210D117480C3050F82130FD
:1001D00016480360144B343353F821304360002039
:1001E0005054114A505401207047002070470E4A65
:1001F0000021143A491CC9B2535C834201D00A2938
:10020000F8D3DAB282420CD107480C3050F82120E2
:1002100006480260044A343252F82110416001203D
:100220007047002070470000C4F20720080000104B
:100230000C4BDA601870597070470A4A116190705F
:1002400070470849088170470648B0F9081000292E
:1002500007D0491E09B20181002902D1084600F0E9
:10026000C0BF70471000001090F900308B4200DAD8
:10027000027090F90030934200DD0170704790F9F0
:1002800000308B4200DA017090F90010914200DDDD
:1002900002707047B0F900308B4200DA0180B0F98B
:1002A0000010914200DD02807047B0F900308B42AF
:1002B00000DA0280B0F90030934200DD018070471F
:1002C0000146002000E0401C0A5C002AFBD1704778
:1002D00010B5002200E0521C835C8C5CA34201D16B
:1002E000002BF8D1D8B2E1B2401A10BD00487047D7
:1002F00018AB020000487047D0F10720FFFFFFFF56
:10030000002801DA404200B270470020F84A20215C
:100310001154401CC0B2C828FAD370470146F44AB1
:100320000020401CC0B2135C8B4201D0C828F8D317
:10033000704710B50021EF4C0A2200BFB0FBF2F36A
:1003400002FB13006054491CC9B218460529F5D3B5
:1003500010BDF0B5E84B0121202719700521E54AB1
:10036000002601E01C7844B1541814F8015C25B94A
:10037000814202D904F8017C05E0541814F8015DAB
:10038000303525701E70491E11F0FF01EAD1F0BD15
:10039000FEB52B23002802DA404200B22D230025AF
:1003A0000A266C4690FBF6F706FB170060556D1C9D
:1003B0006DB238B20A2DF5DB012600250920202771
:1003C00000E046B114F800C0BCF1000F03D1904228
:1003D00001DD275405E0265C3036265400266D1CCE
:1003E000EDB2401E40B20028EBDA2D2B02D163554E
:1003F0006D1CEDB26AB168B205E0231813F8013C38
:100400002354401E40B29042F7DC2E206D1CA054B5
:10041000EDB20846FFF782FF0021B54A04E0635CB5
:10042000461A491C935549B2A942F8DBFEBDFEB5F8
:100430002B23002801DA40422D2300250A266C4692
:10044000074690FBF6F006FB107767556D1C6DB202
:100450000A2DF5DB012600250920202700E046B102
:1004600014F800C0BCF1000F03D1904201DD275405
:1004700005E0265C3036265400266D1CEDB2401E89
:1004800040B20028EBDA2D2B02D163556D1CEDB282
:100490006AB168B205E0231813F8013C2354401EEA
:1004A00040B29042F7DC2E206D1CA054EDB20846FD
:1004B000FFF734FF00218E4A04E0635C461A491CB2
:1004C000935549B2A942F8DBFEBDFEB52B260028A4
:1004D00001DA40422D2600240A276D46844690FB0F
:1004E000F7F007FB10CC05F804C0641C64B20A2CBA
:1004F000F4DB0127002009244FF0200C00E04FB16D
:1005000015F804E0BEF1000F04D19C4202DD05F8AD
:1005100004C005E02F5D30372F550027401CC0B2C6
:10052000641E64B2002CEADA2D2E02D12E54401C37
:10053000C0B26BB144B205E02E1916F8016C2E550D
:10054000641E64B29C42F7DC2E24401CEC54C0B202
:1005500001EB810102EB8101CAB20021644B04E08E
:100560006C5C561A491C9C5549B28142F8DBFEBDB1
:1005700070B50D4616461C46FFF7DBFE601CC0B288
:10058000FFF7E7FE05EB850006EB8000C1B2594A94
:10059000574B0020A04201D2155C5D5406D3155C78
:1005A000202D03D04CB15E1806F8015C491E401C9A
:1005B000C0B2C9B20528EDD370BD5D54F6E730B5C1
:1005C000044608461546FFF7A9FEFF2809D0484A09
:1005D0002178002905D04319641C401CD154C0B2B5
:1005E000F6E730BD70B50D461446FFF7A2FE601C5D
:1005F000C0B2FFF7AEFE2846FFF790FE3D4B3C4AE7
:10060000002124B95D5C202D01D015540FE0A142DA
:1006100001D25D5CF9E704D14FF02E0515545D5C05
:1006200002E05D5C202D02D0161806F8015C401E29
:10063000491CC9B2C0B20529E3D370BD801801D5E9
:10064000084402E0884200DB401AC0B270472DE93E
:10065000FE4F04460D464FF4606021F095FC624267
:100660004021FFF7EBFF400100F58060044602A93E
:1006700021F007FD694604F1080021F002FD01A9FF
:1006800004F10C0021F0FDFC2846FFF747FE06466A
:100690009DF8080040273025DFF860B0DFF850A053
:1006A00020244FF0210C4FF02309552828D0CF22C9
:1006B000D123502873D0422872D0532871D04928B2
:1006C0006BD1C8210AF80610761CF1B2ED220AF8A7
:1006D0000120491CC9B2E2220AF80120491C9DF8F8
:1006E00009205046C9B2092A7ED231324254FEE373
:1006F000D0C2072028C407202DC407200040024094
:100700009DF80A0052280ED1C2210AF80610761C64
:10071000F1B2EA220AF80120491CC9B2EB220AF818
:100720000120491CCEB25046B1E300BF9DF8012024
:1007300096F838309A4267D19DF8022096F82C300E
:100740009A42F8D14554491CC9B23A2200F801C076
:10075000491CC9B24254491CC9B24554491CC9B2CA
:100760004754491CC9B24254491CC9B200224554DD
:10077000491CC9B20AF801909DF804002121FFF735
:1007800031FF9DF8050000224021FFF72BFF9DF867
:10079000060000222321FFF725FFBDE8FE8F0BE0B6
:1007A00033E04BE39DF80110FD48002200EB81008F
:1007B0004021FFF704FFF0E70AF80620761CF1B2AB
:1007C00050460AF80130491CC9B20AF80140491CD8
:1007D000C9B20AF80140491CC9B20AF80140491CD3
:1007E000C9B20AF8014000E095E3491CC9B219E317
:1007F0009DF8013092F83860B3429CD19DF80230E8
:1008000092F82C2093429DD055E39DF80A0043288E
:100810007CD1C1210AF80610761CF1B2E0220AF858
:100820000120491CC9B2F2220AF80120491CCEB2AB
:100830009DF809105046092906D231318155761CA0
:10084000F1B2C022425419E0A1F109025A2A11D290
:10085000491C0A23B1FBF3F2904630328255761CD4
:1008600003FB1811F6B230318155761CF1B2C0226B
:10087000425406E08455761CF1B24454491CC9B276
:100880004454491CC9B25E464454491C9DF800209A
:10089000BBF83C30C9B29A4239D19DF8012096F894
:1008A00038309A4233D19DF8022096F82C309A4283
:1008B0002DD14554491CC9B23A2200F801C0491C47
:1008C000C9B24254491CC9B24554491CC9B2475423
:1008D000491CC9B24254491CC9B200224554491CA2
:1008E000C9B20AF80190491CCEB29DF8040021213A
:1008F000FFF778FE9DF8050000224021FFF772FE09
:100900009DF8060000222321FFF76CFE36E04454D8
:10091000491CC9B200224554491CC9B200F801C0A3
:10092000491CC9B24754491CC9B24454491CC9B2F4
:100930004454491CC9B24554491CC9B20AF8019033
:10094000491CCEB29DF802002121FFF74BFE9DF815
:10095000000000222321FFF745FE9DF80100401E04
:100960000C2802D301208DF801009DF801108C485D
:10097000002200EB81004021FFF721FE9DF80A00D4
:10098000532873D1C1210AF80610761CF1B2E02277
:100990000AF80120491CC9B2F2220AF80120491CB8
:1009A0009DF8092043235046C9B2092A09D23132A1
:1009B0004254491CC9B2C0224254491CC9B24354D2
:1009C0000FE0093A5A2A05D2C0224254491CC9B242
:1009D000435403E04454491CC9B24454491CC9B2AD
:1009E0004454491CC9B25E464454491C9DF8002039
:1009F000BBF83C30C9B29A4239D19DF8012096F833
:100A000038309A4233D19DF8022096F82C309A4221
:100A10002DD14554491CC9B23A2200F801C0491CE5
:100A2000C9B24254491CC9B24554491CC9B24754C1
:100A3000491CC9B24254491CC9B200224554491C40
:100A4000C9B20AF80190491CCEB29DF804002121D8
:100A5000FFF7C8FD9DF8050000224021FFF7C2FD09
:100A60009DF8060000222321FFF7BCFD36E0445428
:100A7000491CC9B200224554491CC9B200F801C042
:100A8000491CC9B24754491CC9B24454491CC9B293
:100A90004454491CC9B24554491CC9B20AF80190D2
:100AA000491CCEB29DF802002121FFF79BFD9DF865
:100AB000000000222321FFF795FD9DF80100401E54
:100AC0000C2802D301208DF801009DF80110344854
:100AD000002200EB81004021FFF771FD9DF80A0024
:100AE0005A285CD1C2210AF80610761CF1B2C7223E
:100AF0000AF80120491CC9B250460AF80140491CB5
:100B0000C9B25E460AF80140491CC9B20AF8014060
:100B1000491CC9B24454491CC9B24454491C9DF8EB
:100B20000020BBF83C30C9B29A423BD19DF801206D
:100B300096F838309A4235D19DF8022096F82C303C
:100B40009A422FD14554491CC9B23A2200F801C03B
:100B5000491CC9B24254491CC9B24554491CC9B2C6
:100B60004754491CC9B24254491CC9B200224554D9
:100B7000491CC9B20AF80190491CCEB29DF8040084
:100B80002121FFF72FFD9DF8050000224021FFF7EE
:100B900029FD9DF8060000222321FFF723FD38E000
:100BA00014A202004454491CC9B200224554491CF5
:100BB000C9B200F801C0491CC9B24754491CC9B2A6
:100BC0004454491CC9B24454491CC9B24554491C37
:100BD000C9B20AF80190491CCEB29DF80200212149
:100BE000FFF700FD9DF8000000222321FFF7FAFC2B
:100BF0009DF80100401E0C2802D301208DF8010051
:100C00009DF80110FE48002200EB81004021FFF713
:100C1000D6FC9DF80A0057287DD1C1210AF806109C
:100C2000761CF1B2E0220AF80120491CC9B2F22276
:100C30000AF80120491CCEB29DF8091050464FF029
:100C4000F00E092906D231318155761CF1B200F837
:100C500001E019E0A1F109025A2A11D2491C0A2324
:100C6000B1FBF3F2904630328255761C03FB18112B
:100C7000F6B230318155761CF1B200F801E006E0A1
:100C80008455761CF1B24454491CC9B24454491CE1
:100C9000C9B25E464454491C9DF80020BBF83C3064
:100CA000C9B29A423BD19DF8012096F838309A4259
:100CB00035D19DF8022096F82C309A422FD1455418
:100CC000491CC9B23A2200F801C0491CC9B24254B9
:100CD000491CC9B24554491CC9B24754491CC9B240
:100CE0004254491CC9B200224554491CC9B20AF8F1
:100CF0000190491CCEB29DF804002121FFF772FC3F
:100D00009DF8050000224021FFF76CFC00229DF8B1
:100D10000600232100E039E0FFF764FC36E044548C
:100D2000491CC9B200224554491CC9B200F801C08F
:100D3000491CC9B24754491CC9B24454491CC9B2E0
:100D40004454491CC9B24554491CC9B20AF801901F
:100D5000491CCEB29DF802002121FFF743FC9DF80B
:100D6000000000222321FFF73DFC9DF80100401EFA
:100D70000C2802D301208DF801009DF80110A04835
:100D8000002200EB81004021FFF719FC9DF80A00CA
:100D90004B287FF410ADC1210AF80610761CF1B281
:100DA000E0220AF80120491CC9B2F2220AF8012007
:100DB000491C9DF80900C9B209280BD231300AF844
:100DC0000100491CC8B2EA210AF80010401CC0B258
:100DD000E52115E0A0F109025A2A16D2401C0A2387
:100DE000B0FBF3F2904630320AF80120491C03FBB5
:100DF0001800C9B230300AF80100491CC8B2EA2113
:100E00000AF80010401CC1B20BE00AF80140491C6E
:100E1000C9B20AF80140491CC9B20AF80140491C8C
:100E2000C9B250465A464454491C9DF80030BBF89C
:100E30003C60C9B2B3423FF4DBAC3CE0C1210AF8EC
:100E40000610761CF1B250460AF80120491CC9B2BE
:100E50000AF80130491CCEB29DF80910092902D2C6
:100E60003131815514E0A1F109025A2A0FD2491CEF
:100E70000A23B1FBF3F2904630328255761C03FB15
:100E80001811F6B230318155761CF1B205E0845567
:100E9000761CF1B24454491CC9B25E464454491C04
:100EA000C9B24454491C9DF80020BBF83C30C9B27B
:100EB0009A423FF43BAC4454491CC9B24554491CC6
:100EC000C9B200F801C0491CC9B24754491CC9B293
:100ED0004454491CC9B24454491CC9B24554491C24
:100EE000C9B200220AF801909DF8020000E025E056
:100EF0002121FFF777FB9DF8000000222321FFF757
:100F000071FB9DF80100401E0C28FFF44BAC012042
:100F10008DF8010046E4A2F109035A2B0DD2521CB0
:100F20000A25B2FBF5F303F130064654491C05FBD4
:100F30001322C9B23032425403E04454491CC9B2AE
:100F40004454491CC9B20AF8014026E470B504466D
:100F5000084615461E46FFF7E1F92A4B0146FF28D1
:100F600004D106E01A54641C401CC0B22278002A46
:100F7000F8D125480078002804D0002E02D029445A
:100F80005F20585470BD2DE9FF4F8146DDE90D0407
:100F90008A469346FFF7C2F92022DFF86C80194990
:100FA0000A234FF0640C012C09D198F8005035B198
:100FB0000D18A5F10E05AA706A702A7026E099FB3B
:100FC000F3F603FB16970D183037A5F10E05022C2A
:100FD000AF7096FBF3F703FB176606F130066E70F1
:100FE00099FBFCF606F1300605F80E6B0ED198F869
:100FF00000605EB1A5F10A05AA706A702A7027E048
:1010000014A20200D0C20720CDC007209AFBF3F63D
:1010100003FB16A70D183037A5F10A05032CAF7096
:1010200096FBF3F703FB176606F130066E709AFB2A
:10103000FCF606F13006674605F80A6B08D198F809
:1010400000602EB1A5F10605AA706A702A7022E030
:101050009BFBF3F603FB16B70D183037A5F1060519
:10106000042CAF7096FBF3F703FB176606F130060E
:101070006E709BFBFCF606F13006674605F8066BC2
:1010800009D198F8004034B1A5F102050A546A70FC
:101090002A70BDE8FF8F039C94FBF3F203FB12441C
:1010A00030340C5492FBF3F403FB14220844A0F1F7
:1010B000020030324270039991FBF7F101F13001E7
:1010C0000170E6E717B501EB810002EB8000C2B2C8
:1010D0009DF80030B44803F00F0100EB1313445C9B
:1010E000B2498C54521ED2B21B788B549DF80130F9
:1010F000521E03F00F04D2B2045D8C54521E00EB5A
:101100001313D2B21B788B549DF80230521E03F099
:101110000F04D2B2045D8C54521E00EB1313D2B2F2
:101120001B788B549DF80330521E03F00F04D2B28B
:10113000045D8C54521E00EB1310D2B20078885418
:101140001EBD01EB810102EB8101974A10B500F051
:101150000F03C9B2D45C954B02EB10105C54491ECE
:10116000C9B20078585410BD30B5914901238F4D54
:1011700091F9012091F9041000EB80048A4202D118
:1011800005F8243030BD894D4C1C00EB800005EB88
:101190008000A24201D1037530BD8C1CA24202D155
:1011A00080F8283030BDCC1CA24202D180F83C30FF
:1011B00030BD0C1DA24202D180F8503030BD4C1D14
:1011C000A24202D180F8643030BD8C1DA24202D10F
:1011D00080F8783030BDC91D8A42FBD180F88C3050
:1011E00030BD744B1A88521E104400B21880724AE7
:1011F00000EB800002446E481368036012790271AC
:101200004278114441707047F0B56A4D6A4FB5F9A4
:10121000004004EB8406641C2C80654C3E44256829
:10122000356025793571207061702271A370F0BD31
:10123000F0B505460E461746FFF767F85B4C0020F1
:10124000401C15F8011BC0B204F8011B1428F7D389
:101250005FF00000401C16F8011BC0B204F8011B2F
:101260001428F7D35FF00000401C17F8011BC0B230
:1012700004F8011B1428F7D35FF00000401C13F89A
:10128000011BC0B204F8011B1428F7D3F0BD10B540
:10129000029CFFF7CDFF4648C378827841789320BF
:1012A000FFF7B2FF642094FBF0F0BDE81040C0B23D
:1012B000FEF7C7BF2DE9FE4340010D4600F58060F3
:1012C000044602A920F0DDFE694604F1080020F082
:1012D000D8FE01A904F10C0020F0D3FE2846FFF748
:1012E0001DF8324C202530262554401CC0B24FF04A
:1012F00021082654401CC0B24FF0400C04F8008076
:10130000401CC0B2232104F800C0401CC0B200221F
:101310002554401CC0B22554401CC0B22654401C69
:10132000C0B22154401CC7B29DF802002121FFF732
:1013300059F99DF8000000222321FFF753F99DF889
:101340000100401E0C2802D301208DF801009DF8F9
:1013500001001A49002201EB80004021FFF72FF91C
:10136000E5557F1CF8B23A212654401CC0B2002239
:1013700004F80080401CC0B22154401CC0B221219E
:101380002654401CC0B204F800C0401CC6B29DF8F0
:101390000400FFF727F99DF8050000224021FFF720
:1013A00021F9A555BDE8FE8392A20200D0C2072014
:1013B00048C20720F2C007201469001014A20200DE
:1013C0002DE9FF41FB4C00270546A776A07D0121B2
:1013D000022805D0F84A525D552A04D065200EE057
:1013E000A176BDE8FF8105EB450202EB0513F34A48
:1013F00002EB830696F83D20D30702D06620A07644
:10140000EFE796F83F309B0701D56720F7E7920793
:1014100001D56820F3E7EA4AB6F90830B2F90020AE
:10142000934201DD6920EAE75242934201DA6A20E1
:10143000E5E7012804D1E07D00287ED001287DD099
:101440006420A076A175A4F856104FF4F87020F02F
:101450008FFEE5752946A4F858504FF4FA7020F035
:1014600087FED848B761002130F8150020F080FED3
:101470002776A4F85A7039464FF4FB7020F078FEB6
:10148000D148D24D0088401C00F0070006EB400018
:10149000008CADF80000A88B8DF804004FF06302BB
:1014A0004FF0010101A8FEF7EAFEC24C9DF80400CE
:1014B00098342070287E8DF804000C22012101A8A8
:1014C000FEF7DDFE9DF804006070287B8DF80400B7
:1014D0001F22012101A8FEF7D2FE9DF80400A07092
:1014E0009DF80000E0704FF4FC70216820F07BFE56
:1014F000287A8DF804001722002101A8FEF7BFFE0C
:101500009DF80400207128798DF804003B22002109
:1015100001A8FEF7B4FE9DF80400607128788DF8EC
:1015200004003B22002101A8FEF7A9FE9DF804005B
:10153000A0719DF80100E07101E006E007E04FF4C2
:10154000FE70616820F04FFE4BE76B2057E76C2080
:1015500055E72DE9F047974CA07D01287ED1204624
:101560000127C07D217EC0F1010207FA02F0954EED
:10157000924D02B211B1012933D037E01423CA21B0
:10158000C820FEF7FDFD14234FF0FF32CE21CD2001
:10159000FEF7F6FDE07D00EB400101EB001005EBEE
:1015A0008000B0F90800FEF7ABFEE17D01EB4102DF
:1015B00002EB011205EB82029369184448F6A0433E
:1015C0009061984212DBC01A906136F8110020F049
:1015D000DBFC401C01B2E07D36F8100020F0C8FDB5
:1015E00004E01423CA21C820FEF7CAFDE07DA84606
:1015F00000EB400101EB001205EB8201744AB1F9E6
:1016000002100025B2F900204FF4F87902EB8202B3
:10161000B1EB420F42DAB4F85210491C09B2A4F8F7
:1016200052101E293CDBA17D012921D1217EF9B96F
:1016300036F8100020F0A8FC01B26648E27D30F8D0
:10164000120020F095FDE07D36F8100020F09CFCA3
:1016500081B2E07D03F036FF5F4800E041E0E17DCC
:1016600030F81100002120F083FD3220A083E083B8
:10167000E07D5149C0F10100085C552807D0A575EF
:10168000A4F856500021484620F072FD08E0277665
:10169000A4F85A7001214FF4FB70F5E7A4F85250FA
:1016A000E17D01EB410000EB0112C1F1010101EB11
:1016B000410303EB011108EB820208EB8100B2F950
:1016C0000220B0F9020082420BDB207E012808D103
:1016D000A575A4F856504846BDE8F047002120F013
:1016E00047BDBDE8F08770B5324C05460026A07DA9
:1016F000F0B9022104F8161F4FF4F870A4F8401056
:1017000020F036FDC5EB0510810025870D46E187E9
:101710004FF4F97020F02CFD29464FF4FF7020F0B3
:1017200027FD00206087A0860126304603F058FF81
:10173000304670BD10B51F4CA07D022812D104F1B7
:101740001604208F03F04CFF0020A08620876087BE
:101750002070A4F840000146BDE810404FF4F87036
:1017600020F006BD10BD70B5184C203C94F8380030
:101770001A4D297808440C2803D9A08F401C01B2C7
:1017800001E0B4F93C10B82020F0F2FC94F83810D5
:10179000287801440C2994F8381000D90C380144F9
:1017A000B62020F0E5FC94F82C001C2818D91C2148
:1017B00018E000000CC007206AC1072020F30720B2
:1017C00014C10720889B0200D0C10720204002409E
:1017D0000EC10720A49B0200849B0200D6C00720F4
:1017E00094F82C10B42020F0C3FC04F12004217ADA
:1017F0004FF0AE0020F0BCFC2179B02020F0B8FC06
:101800002178BDE87040B22020F0B2BC10B5F84895
:10181000F84C007830B3F848818FF84A128891422A
:1018200020D190F83810F64A128891421AD190F8D7
:101830002C10F44A1288914214D190F82810F24AE0
:10184000128891420ED190F82410F04A12889142E9
:1018500008D190F82000EE490988884202D1012081
:10186000607602E0607E00280BD0EA480088C0B2B3
:10187000FFF739FF002804D000206076BDE8104053
:1018800071E710BD70B5DB4CA07D02283FD1B4F8E4
:101890004C004FF461610025884212D2401C80B296
:1018A000A4F84C0088420CD3A4F84C50B4F84E0075
:1018B00038B1401E24F84E0F6088401C6080A4F1AF
:1018C0004E04B4F84A003C2821D2401C80B2A4F84F
:1018D0004A003C281BD324F84A5F6089401E01B2AD
:1018E00061814FF4F97020F043FC6089A4F14A044F
:1018F00000280CD1A5750146A4F856504FF4F87095
:1019000020F036FCBDE87040002003F069BE70BDD9
:10191000C1486FF03B010088C0EB001001EB800074
:10192000B449C88770472DE9F05FDFF8C892BA481C
:101930000026B9F83E10B94F491C09B2A9F83E106B
:10194000B0F90000B64DC0EB00124FF0010B09F1E9
:1019500044044FF00A08B1EB820F51DBF0B3A9F851
:101960003E602670DFF8BCA2667089F810609AF8B5
:101970000000552811D1B5F9020050280DDDB5F948
:101980000800FEF7BDFCB7F90010884203DB95F8AC
:101990003D00C00701D084F800B09AF80100552836
:1019A00011D1B5F94E0050280DDDB5F95400FEF700
:1019B000A7FCB7F90010884203DB95F88900C0073F
:1019C00001D084F801B09848007848B999F811100E
:1019D000484629B1817D41B1022900E010E004D0E0
:1019E0002670667089F8106008E0217801291DD002
:1019F000617801291AD0017C012917D0A9F840602B
:101A00004846B9F94010DFF8EC91DFF820A209F15F
:101A10006009F1B383460246491E08B2A2F84000AD
:101A2000052806DD0F231E22642107E0A9F8408067
:101A3000E6E700281BDD0F231E226921E120FEF7C7
:101A40009FFBBBF84000052811D1B5F90800FEF74F
:101A500057FCA9F80000B5F95400FEF751FCA9F8AD
:101A60000200BAF90000FEF74BFCABF82200614817
:101A7000B0F84000002841D1AB46B5F90800FEF7A8
:101A80003FFC5C4D64352880BBF95400FEF738FC00
:101A900000E038E06880BAF90000FEF731FCDFF8BA
:101AA00054A1AAF82400AAF84260B9F90000B5F9D7
:101AB00000100844B7F90010884202DA20780128A3
:101AC00017D0BBF90200C82804DD002126700846A3
:101AD00003F06FFAB9F90200B5F902100844B7F93A
:101AE0000010884202DA6078012805D0BBF94E0068
:101AF0007AE0AAF84280EDE7AAF84280BDE8F09FBC
:101B00006670002106E1B0F94210E9B38046024652
:101B1000491E08B2A2F84200052803DD0F23C8229F
:101B2000642104E000281BDD0F23C8226921E12085
:101B3000FEF726FBB8F84200052811D1B5F90800D8
:101B4000FEF7DEFBA9F80000B5F95400FEF7D8FB5C
:101B5000A9F80200BAF90000FEF7D2FBA8F82200AB
:101B60002448B0F842000028C8D1DFF8B480B8F9A2
:101B70000800FEF7C5FB1F4D64352880B8F95400F6
:101B8000FEF7BEFB688000E058E0BAF90000FEF7FF
:101B9000B7FBDFF86080A8F8240088F80F60B9F977
:101BA0000000B5F900100844B7F90010884202DAC5
:101BB000207801283CD01A48B0F90200C82804DD7A
:101BC00000212670084603F0F4F9B9F90200B5F9CE
:101BD00002100844B7F90010884202DA6078012840
:101BE00029D00F48B0F94E00C82889DC86E70000EC
:101BF000D6C007200CC007200040024078C1072053
:101C000076C1072074C107206EC1072070C107206C
:101C100072C107207AC1072024C1072014C1072000
:101C200020F307206AC10720DDC00720D2C10720AA
:101C300088F80FB0C9E788F80FB05FE78146C07B2E
:101C40000028D3D00F2300226E21E120FEF798FA5E
:101C5000B5F90800FEF754FBB7F90010884207DD1C
:101C60002078012804D100212670084603F0A1F94C
:101C7000B5F95400FEF744FBB7F90010884206DDC1
:101C80006078012803D16670002103F092F9207872
:101C900030B9607820B999F8101009B989F80F6047
:101CA000E620FEF784FA18B1FE480068E7280AD05B
:101CB000FD48FE49B0F90000B1F9001000EB8000CA
:101CC000B1EB400F92DA89F80F602078F84E0128C6
:101CD0000FD1B7F90000410091FBF8F0B6F9001000
:101CE000884206DA95F83D00C00702D1012103F0D1
:101CF00060F960780128A0D1B7F90000410091FB9C
:101D0000F8F0B6F90010884297DA95F88900C00714
:101D100093D10121BDE8F05F012003F04AB970B50D
:101D2000E44CA08F401C00B2A087B0F5E16F02DB4D
:101D30000020A08770BDB0F5DF6F11D90F230122FD
:101D40006421D220FEF71CFA0F230022D821D720CD
:101D5000FEF716FA0F230022D821DC20FEF710FA36
:101D6000B4F93C00A0F5E0610739E3D1D24ED34C81
:101D7000D34D30882188884204D0B4F900102888D7
:101D800020F0F6F9708861888842D3D0B4F9021047
:101D90006888BDE8704020F0EBB910B5C94C082246
:101DA00000212088401C20802046FEF77EFAC6488D
:101DB000B4F9001000EB410142880A84B0F84E00EB
:101DC000A1F86C0010BD70B5C148C04DB0F900302D
:101DD000C048B5F9002090F900109A421BDABE4CB9
:101DE0000A290EDABD4BB3F900300F2B0BDD491C6D
:101DF00049B201700A2906DB2280012002F088FC2A
:101E000001E00A210170B5F90000B4F90010884220
:101E100000DA208070BDFDDD0029FBD0491E49B2EB
:101E200001700029F6DCBDE87040002002F070BCB3
:101E30002DE9F84FDFF8A8B20A21DFF87892BBF855
:101E40000000DFF8A0C2B0FBF1F201FB1202B9F80A
:101E50002860DFF894A241F270753AB9B0F5166FB8
:101E600004D0B0F5965F01D0A8425ED19F49A04A48
:101E7000A04B9AF89C73B1F90010B2F90020B3F9A5
:101E800000309D4CDFF874E25046072F24D04E43BB
:101E900096FBFCF09A492080B1F90600504390FB74
:101EA000F5F0AEF80000B1F914009649584390FBE4
:101EB000F5F008808548B4F900200280BEF90010D2
:101EC000914200DA01808F49B0F90020B1F9001089
:101ED000914232DA018030E000F2A230DFF8D4C162
:101EE000067847780CF1840C06EB07261FFA86F873
:101EF000ACF800808678C77808FB01F806EB072667
:101F0000B7B2ACF80270067998FBF5F19AF8A7031E
:101F100007FB02F706EB002080B2ACF8040021803A
:101F200097FBF5F1AEF80010BFE777486749B0F9C5
:101F30000000464396FBFCF00880DFF8C481734C38
:101F40004FF4FA67B8F90010B4F900205E4E4A4326
:101F500092FBF7F1DFF8B8C17180B8F90820BCF93D
:101F600000104FF42F73514391FBF3F1B180B8F996
:101F70001820B4F90210514391FBF7F1A6F84E1066
:101F8000B8F90210BCF90200484390FBF3F0A6F840
:101F90005000DC20FEF72BF9D8BB4848464945F6EF
:101FA000386E008809884FF49672401A594945F2F4
:101FB00011644FF47A7CB1F900104143BBF8000082
:101FC000704503D0A0F5BC43923B02D191FBF2F1E6
:101FD0000CE0A0F5AA43FA3B03D0193B01D0A04284
:101FE00002D191FBF7F101E091FBFCF13181334922
:101FF000314B49885B88CB1A4649B1F902105943E5
:10200000704503D0A0F5BC43923B03D191FBF2F0A5
:102010000DE00EE0A0F5AA42FA3A03D0193A01D039
:10202000A04202D191FBF7F001E091FBFCF0A6F891
:102030005400B8F90C1040F6B73CA1F22132002050
:1020400001244346624501D2307300E03473DFF867
:10205000C88044F6206EB8F900204A4392FBFEF196
:10206000A1F211117181B3F90E10A1F22132624572
:1020700002D286F8580001E086F85840B8F90220EC
:102080004A4344F6206192FBF1F1A1F21111A6F846
:1020900056102249B1F900202149022A42D0042ACF
:1020A00056D092E0080000100EC10720D8C10720CA
:1020B000DAC107200CC0072000C40720A2F10720C6
:1020C000B09B0200D0C1072020F30720DEC107200B
:1020D00010C107207400001072000010F0C007202B
:1020E0006CC10720B0AD010088F507205600001034
:1020F00010C4072058000010E0C10720E2C10720EB
:10210000D4680010E4C107204E0000104200001007
:10211000460000104A00001004C4072062C10720D6
:10212000B8F30720B1F92820052A04DACA8B12B9BE
:102130008A8A72813073B1F95220052A45DAB1F8E2
:102140004820F2BBC98FA6F8561086F858003CE02C
:10215000B1F928306FF013084246052B04DACB8B17
:1021600013B9B1F914203073B1F95230052B08DAE4
:10217000B1F848302BB9B1F93E30934201DD3073EC
:102180001A4612F1140300D07281B1F97C20052A9D
:1021900006DAB1F872201AB9B1F9688086F85800E9
:1021A000B1F9A620052A09DAB1F89C2032B9B1F9B3
:1021B0009210414502DD86F85800884618F1140156
:1021C00000E002E001D0A6F85680DFF8E8E3FA4B21
:1021D000BEF90410B3F90030594391FBF7F1F74B06
:1021E0001980BEF90A20F649A2F22133634501D2D3
:1021F000086000E00C60F34B44F62068F24FB3F93E
:102200000030534393FBF8F2A2F211123A80BEF968
:102210001420A2F22133634501D2486000E04C60F3
:10222000DFF8A0E3BEF90230534393FBF8F2A2F2C9
:10223000111212B27A800092DE4AB2F90620A2F29E
:102240002133634501D2886000E08C60BEF9043020
:102250004FF47A6C534393FBF8F2A2F2111212B2CC
:10226000BA809646DFF86483D94ADB4FB8F800306D
:10227000B2F900205A4392FBFCF2D64B92B2642A88
:102280001A8001D3D54A12883A80D14AB8F8027030
:10229000DFF85083B2F902207A4392FBFCF25A80B5
:1022A000CF4AB8F90030DFF840C3B2F900707B4381
:1022B00093FBF5F3ACF80030B2F90270B8F90230D4
:1022C0007B4393FBF5F3ACF80230B8F90430B2F974
:1022D0000470DFF818837B4393FBF5F3ACF804300C
:1022E000B2F90670B8F90030DFF804C37B4393FB02
:1022F000F5F3ACF80030B2F90870B8F902307B435E
:1023000093FBF5F3ACF80230B2F90A20B8F90430C7
:10231000B84F534393FBF5F2ACF80420009A02F255
:10232000111213B20EF211123B8015B27D804A6871
:1023300012F0FF023A728968C9B27972AE4F04D0C6
:10234000012A0ED012B10DD020E011B1012910D018
:102350001CE0591901EBD1726FF4887101EB620135
:1023600013E011B1012908D010E0A5F211153D804C
:102370000CE0A3F211133B8008E0A049097805297D
:1023800002D29F49098800E0142139809D490A78CA
:10239000552A06D1B6F90220C82A02DD3389A9F8E8
:1023A0003830497855290BD1B6F94E10C82907DDC8
:1023B000B6F95410B6F90820914201DDA9F8381099
:1023C000BBF80010A1F5AC422F3A03D0283201D05F
:1023D000143A03D18C490A88A9F838208B49002285
:1023E000B1F900302FE000BFC2EBC20101EB4105A3
:1023F0000AEB8501CD78192D1CD28D79CF7905EBAB
:1024000007254D620D7A4F7A05EB07250D628D7A0F
:10241000CF7A05EB0725CD610D7B8D624D7B81F871
:1024200052508D7B81F842500D7C4F7C05EB072587
:10243000CD6406E0C86148620862886281F84200A3
:10244000C864521CD2B29A42CEDBB6F908200A21E7
:1024500092FBF1F2B6F95450814695FBF1F111442B
:1024600049420DB26A4A6B49D44615800880002063
:102470000FE000BFC0EBC00606EB46060CEB86067D
:10248000F778052F03D2766A0F883E440E80401CF1
:10249000C0B29842EEDB0888284400B210800028C1
:1024A00001DAA2F80090DFF870B1DFF870A15C4E9D
:1024B000002500BFC5EB051306EB8301887B4A7B33
:1024C00000EB02200FFA80F8C5EBC50000EB4002DC
:1024D0000AEB4200B8F1000FA0F80E804F7816F812
:1024E000233007EB03232AF81230CA788B7802EBEB
:1024F000032242800A7982804A79C280CA798B7924
:1025000002EB032202810A7A02EB02224281CA7A9A
:102510008B7A02EB032282810A7B4282CA7BC282CF
:102520004A7C0B7C02EB03228282897C0182B0F917
:10253000281007D0322912DA491C09B20185322944
:1025400008D00CE059B1491E09B2018539B9C18CD6
:1025500019B904E0C18C012901D08BF80040283062
:1025600032220021FDF796FE6D1CEDB2072DA1D39E
:1025700096F822102B48642909D0002905D101784A
:1025800009B18BF8004080F80090BDE8F88F047026
:10259000FBE7254A25481178052901D0012905D1F5
:1025A000517819B922490978552945D02149098816
:1025B00046E00000D46800100EC40720D8C10720F0
:1025C000B806082008C4072082C2072088C2072056
:1025D000500000108EC20720F4C10720DEC1072082
:1025E000FE0A08208200001094C2072040C4072081
:1025F0009AC2072012070820ECC10720E9C0072073
:10260000F8C107206AC10720D2C1072056C10720A0
:10261000DAC107207C000010ADC0072060F407205D
:102620003C0908207000001048C20720B0C00720F5
:10263000D7C007207CC107200178002901D0491E9E
:1026400001707047FE48416821F4402141F4802127
:102650004160416821F4403141F48031416041687A
:1026600021F4404141F480414160416C21F440211A
:1026700041F400214164416C21F4403141F40031C6
:102680004164416C21F4404141F400414164ED4812
:10269000016821F0E0610160016841F4001101600E
:1026A000016821F480310160016821F47F4141F427
:1026B000807101608115C160E34889030160704742
:1026C0002DE9F041E14C60882188401A00B203F006
:1026D00097F8A51D2880A0886188401A00B203F0F1
:1026E0008FF86880A0882188401A00B203F088F82B
:1026F0004FF49672A880A4F18A01904201DAA08872
:102700000AE0B5F90200904201DA608804E0B5F908
:102710000000904201DA2088488591F802C0002329
:10272000BCF1000F22D0CA48B1F92A200468144431
:102730000460446814444460846814448460C46839
:102740002244C2604A8E521C12B24A86B2F5805FA1
:1027500000DB4B86B1F9322094052FD1921250F84C
:10276000224024120C8540F8223027E0B94FC87867
:102770000C7907EB8015B1F92A2045F82420A2072F
:1027800010D100252A4607EB801600BF56F82270AC
:10279000521CD2B23D44102AF8D32A11AC4D203D30
:1027A00025F81020401CC0B2C870102806D3641C45
:1027B000E0B2CB700871102800D30B710CF1010C42
:1027C0004B701CF001009F4A887005D0106820F003
:1027D000FF00001D106034E0C97808070028106869
:1027E00020F0FF0002DB00F1010001E000F1020037
:1027F00010609948036843F080530360036A43F014
:1028000080430362036E43F080630366CB07436932
:1028100008D043F0805343618B07436B05D423F00A
:10282000804304E023F08053F5E743F080434363A3
:102830004907416F02D421F0806101E041F08061DD
:102840004167106840F080701060BDE8F081F0B51D
:102850007E488A38B0F9201019B1A1F10101018434
:1028600085E000227E4C827313467C49B4F9004017
:1028700011E000BFC3EBC30505EB450501EB850582
:10288000AE78012E05D1ED78142D02D2857B6D1C1A
:1028900085735B1CDBB2A342ECDB867B022E66D326
:1028A00041F28833C0E91A230023026717E000BF12
:1028B000C3EBC30505EB450501EB8505AF78012F9B
:1028C0000BD16D6A876EBD4200DD8566C76EBD4265
:1028D00000DAC566076F3D4405675B1CDBB2A342A7
:1028E000E6DB036F012593FBF6F74767C36E03B979
:1028F000C566836E64267343C66E93FBF6F38367E7
:10290000A02B00DD4573782B01DA42732FE0407B6A
:1029100001282CD100226FF0310326E0C2EBC20067
:1029200000EB400001EB80008578012D1BD1456A4A
:10293000BD4205DDB0F85050A5F10105A0F850509A
:1029400005DAB0F8505005F10105A0F85050B0F983
:1029500050509D4202DAA0F8503004E0322D02DDE2
:102960003225A0F85050521CD2B2A242D6DB00BF92
:10297000F0BD2DE9F041324801683A4A114001604A
:10298000354C216841F47C712160C16921F44021FA
:10299000C161216E41F000712166416821F0406102
:1029A0004160206840F00050206030482E4B314993
:1029B00002782F4893F83C50B1F900100078154385
:1029C00007D030B1052904DDA56945F48075A561FE
:1029D00003E0E56945F48075E56193F888301343B9
:1029E00007D030B1052904DDA06940F04000A061A6
:1029F00003E0E06940F04000E061D220FDF7F7FB22
:102A00001D4D48B16868012801D028B108E0A069CF
:102A100040F00050A06103E0E06940F00050E06148
:102A2000D220FDF7E4FB154E10B12868662837D098
:102A30003068C00798B3E06F40F00070E0671FE0B7
:102A400000C002400040034000E100E096C00720C3
:102A5000F4680010D464001000C0092088F5072035
:102A600056C10720FF00F0FF20F307203F000010B1
:102A7000B3C00720F0C00720080000102800001095
:102A8000D220FDF7B4FB10B128686C280FD0306855
:102A9000800711D4E06940F01000E06110E001E02F
:102AA0006868C7E7A06F40F00070A067C7E7686874
:102AB0000028EFD0012803D1A06940F01000A061E8
:102AC000D220FDF794FBFD4FDFF8F48310B12868A6
:102AD0006D280AD0387802280DD0306840070ED40F
:102AE000E06940F40070E0610DE068680028F7D00C
:102AF000012804D007E098F800000028F0D0A06971
:102B000040F40070A061D220FDF771FB10B128687D
:102B10006A2804D0306810F4FF6F05D009E06868B7
:102B200010B1012805D008E0E06940F08000E061C4
:102B300003E0A06940F08000A061D220FDF757FBC0
:102B400010B128686B2806D0387801280FD0DD48EE
:102B5000007838B901E06868FBE7A06940F0200020
:102B6000A06172E6E06940F02000E0616DE698F84F
:102B700000000028F6D0F0E72DE9F05FD14C0026E8
:102B80004FF00108207D0A2807D2401CC0B22075F2
:102B90000A2802D3267584F81580A4F84660A4F8A4
:102BA0004860CD20FDF723FBC74DDFF82093A8B385
:102BB000C7484FF6FF720168CE2908D0CF2909D047
:102BC000D12909D0D2290BD0D0290CD011E0A4F8FA
:102BD00048200EE040680AE04068A4F8460008E09B
:102BE000A4F8462005E04068A4F84600C043A4F8D5
:102BF0004800002730E000BF08FA07F0B4F848109A
:102C000083460842C7EBC70000EB400005EB80009D
:102C100005D030F8401F491C018002E021E0A0F8F7
:102C20004060C7EBC70000EB400005EB8000824628
:102C3000403032220021FDF72DFBBAF94000142864
:102C400001DD8AF82C80B4F846101BEA010F01D090
:102C50008AF82C607F1CFFB2B9F900008742CBDDF7
:102C600046E0607DB8B3002108464346B9F900202C
:102C70000AE000BFC0EBC00707EB470705EB87077B
:102C8000401C87F82C30C0B29042F3DD914B0020FD
:102C9000B3F9003014E000BFC0EBC00707EB4707F3
:102CA00005EB870797F802C0BCF1020F02D0BCF118
:102CB000010F03D1491C87F82C60C9B2401CC0B277
:102CC000904201DA9942E7DB8348B0F900003C28E2
:102CD0000EDA00200AE00BE0C0EBC00101EB41017D
:102CE00005EB8101401C81F82C60C0B29042F3DDFD
:102CF00000206323B9F900100EE000BFC0EBC00252
:102D000002EB420205EB8202D76B1FB182F82C3036
:102D10007F1ED763401CC0B28842EFDB66756674C5
:102D200000200DE0C0EBC00202EB420205EB820284
:102D30009278012A02D1627C521C6274401CC0B29B
:102D40008842EFDBBDE8F09F2DE9F0410746C0EB7C
:102D5000C7005D4900EB400011F82020032A73D121
:102D600001EB800494F84250A807B4F9460010D54E
:102D70004FF4966188421ADA401C00B2A4F846006B
:102D8000884214DBA4F846106078C0070FD10122F6
:102D900009E060B1401E00B2A4F8460038B960787E
:102DA000C00704D000220021384601F0F7FD2807B3
:102DB000B4F948004FF00A064FF000010ED50A287A
:102DC0001FDA401C00B2A4F848000A2819DBA4F856
:102DD00048606078800714D4012209E000280DDDE6
:102DE000A0F1010000B2A4F8480050B94FF0000271
:102DF0004FF00101384601F0D1FD02E001DAA4F8FC
:102E00004810E806B4F94A000ED50A2817DA401C23
:102E100000B2A4F84A000A2811DBA4F84A606078DE
:102E200040070CD4012206E048B1401E00B2A4F8CD
:102E30004A0020B900220221384601F0AFFD607837
:102E4000000702D0042012E028E02448007820B1D6
:102E5000E078142801D9052009E094F842008006A2
:102E600001D5022003E0E078142801D20120A070EF
:102E7000E0780A2894F82C0002D340F0800001E0AA
:102E800000F07F000F4984F82C00B4F95000B1F92C
:102E90001C10084420634FF47A706063D5E470B569
:102EA0000F4900200F4DB1F90C200121034600BF4E
:102EB00001FA00F4224217D0295416E0D2C00720AC
:102EC000FEC307200CC0072088F5072056C1072045
:102ED0000800001038C40720F0C00720DDC007201C
:102EE000FE0A0820300708202B54401CC0B20C28D2
:102EF000DED3F84C2878F84E217881420CD0B6F910
:102F00000010012908DB01287ED0002301220B21BB
:102F1000F2A000BF1DF0BAFB6178687881420BD047
:102F2000B6F90010022907DB01286ED00023022227
:102F30000B21EFA01DF0AAFBA178A87881420BD04D
:102F4000B6F90010032907DB01287CD000230322F7
:102F50000B21ECA01DF09AFBE178E87881420BD0C0
:102F6000B6F90010042907DB012872D000230422DF
:102F70000B21E9A01DF08AFB2179287981420BD031
:102F8000B6F90010052907DB012867D000230522C8
:102F90000B21E6A01DF07AFB6179687981420BD0A4
:102FA000B6F90010062907DB01285CD000230622B1
:102FB0000B21E3A01DF06AFBA179A87981420BD017
:102FC000B6F90010072907DB012851D0002307229A
:102FD0000B21E0A01DF05AFBE179E87981420BD08A
:102FE000B6F90010082907DB012846D00023082283
:102FF0000B21DDA01DF04AFB217A287A81420FD0F7
:10300000B6F90010092901E013E017E008DB0128F8
:1030100038D0002309220B21D8A000BF1DF036FBB9
:103020000020295C2154401CC0B20C28F9D370BD8B
:1030300009E001231A460B21D5A06BE701230222E8
:103040000B21D8A076E7012303220B21DAA081E728
:10305000FFE7012304220B21DCA08BE701230522DB
:103060000B21DFA096E7012306220B21E1A0A1E7B7
:10307000012307220B21E4A0ACE7012308220B2146
:10308000E6A0B7E7012309220B21E9A0C6E770B546
:10309000C820FDF7ACF8EB490022A0B3EA4C0123AD
:1030A0002068C92803D0CA28104611D02CE000207F
:1030B00000EB400404EB001411F82450322D02D22E
:1030C0006D1C01F82450401CC0B20228F0D325E04A
:1030D000D4F8045003FA00F4254200EB400409D070
:1030E00004EB001611F82640322C07D2641C01F8BC
:1030F000264003E004EB001401F82420401CC0B279
:103100000228E7D30AE01FE000EB400404EB0014C0
:10311000401CC0B201F824200228F5D35FF0000063
:1031200000EB400404EB001411F8245001EB84047C
:10313000142D02D984F83C3001E084F83C20401C76
:10314000C0B20228ECD372E700EB400303EB00139C
:10315000401C01F8232001EB8303C0B283F83C201C
:103160000228F1D363E72DE9F041B84FB848B94CD4
:10317000B7F90010B0F90020B4F90000914202DD67
:1031800000F1010002E002DAA0F101002080062235
:103190000021B048FDF77EF8B4F90010AE480126D2
:1031A000052900DD06700024012900DA0470AB480F
:1031B000B7F90010AB4DB0F90020A948931E994211
:1031C0000BDA90F900201E2A16DA521C52B2027055
:1031D0001E2A11DB2A88521E0CE091420BDD90F969
:1031E00000201E2A08DA521C52B202701E2A03DB8B
:1031F0002A88521C2A8004709B48B846B0F9000007
:10320000814201DD142203E098480088093002B2AF
:1032100000219448FDF73EF8F020FCF7E8FF28B1C4
:1032200089480168F12901D140682880B5F900106A
:103230008F48012901DC067000E004708D488E4F34
:10324000B0F90000A0F1320128291BD8B8F900100C
:103250008A4D814202DD2888401C28808848B0F9C8
:103260000000814202DA2888401E288006220021C0
:103270008248FDF70FF8B5F90000052800DD3E7023
:10328000012800DA3C707F487F4FB0F90000A0F1C0
:1032900032011E291BD8B8F900107C4D814202DD95
:1032A0002888401C28807A48B0F90000814202DA60
:1032B0002888401E2880062200217448FCF7EAFF77
:1032C000B5F90000052800DD3E70012800DA3C70E9
:1032D00047E40000120B082060C107204176746F9C
:1032E0006D6174202331206973204F464600000031
:1032F0004176746F6D6174202332206973204F46CC
:10330000460000004176746F6D617420233320699C
:1033100073204F46460000004176746F6D61742043
:103320002334206973204F46460000004176746FB5
:103330006D6174202335206973204F4646000000DC
:103340004176746F6D6174202336206973204F4677
:10335000460000004176746F6D6174202337206948
:1033600073204F46460000004176746F6D617420F3
:103370002338206973204F46460000004176746F61
:103380006D6174202339206973204F464600000088
:103390004176746F6D6174202331206973204F4E24
:1033A000200000004176746F6D6174202332206923
:1033B00073204F4E200000004176746F6D617420C1
:1033C0002333206973204F4E200000004176746F34
:1033D0006D6174202334206973204F4E200000005B
:1033E0004176746F6D6174202335206973204F4ED0
:1033F000200000004176746F6D61742023362069CF
:1034000073204F4E200000004176746F6D61742070
:103410002337206973204F4E200000004176746FDF
:103420006D6174202338206973204F4E2000000006
:103430004176746F6D6174202339206973204F4E7B
:103440002000000020F3072008000010ECC1072036
:1034500034C1072046C407204000001036C10720B1
:103460003E000010FCC1072038C10720F6C107202C
:10347000FCC307203EC107203F0000108800001059
:1034800040C107203AC10720FDC3072048C40720D8
:103490003CC107202DE9FC5F0546FF4830F91510B7
:1034A00011B1491E20F81510FB49091D31F91520ED
:1034B00012B1521E21F8152005EB450202EB05134F
:1034C000F64A02EB8304F64AB4F90830B2F9006018
:1034D0006422B34201DD20F81520002B01DA21F827
:1034E0001520ED4A30F815307C3A00264BB131F802
:1034F000153033B1B2F85E30B3B140F6B830A2F84F
:103500005C00A2F85C6094F83E00401CC0B284F8F5
:103510003E000A2801D384F83E60E24FDFF888833A
:103520003888322809D017E04FF41673A2F85E30BD
:1035300020F8156021F81560E3E794F83C00F8B92D
:10354000B4F9020050281BDA94F83D00C00717D1E7
:103550000121284601F02DFDB7F90000C8280FDD34
:10356000B4F90800FCF7CCFEB8F90010884207DD7A
:1035700094F83D00C00703D00021284601F019FD52
:10358000B8F90000B4F908104042814212DD607BB6
:103590000A280CD2401CC0B260730A2875D3A07BE5
:1035A000002872D0A673284601F0B3FB6DE00A2014
:1035B00060736AE069DA607BF0B3401E10F0FF00D0
:1035C000607362D1A07BB8BB0120A073B748B84F2D
:1035D0000088401C00F0070004EB4000008CADF8B0
:1035E0000400B88B8DF800004FF063024FF001012A
:1035F0006846FCF744FE04F11C049DF800002076A8
:10360000387E8DF800004FF00C024FF00101684643
:10361000FCF735FE9DF800006076387B8DF80000E1
:103620001F2201216846FCF72AFE9DF80000A076C3
:103630009DF80400E07600E027E0387A8DF800007D
:10364000172200216846FCF71AFE9DF8000020773B
:1036500038798DF800003B2200216846FCF70FFE08
:103660009DF80000607738788DF800003B2200213B
:103670006846FCF704FE9DF80000A0779DF8050061
:10368000E07726806680A4F11C0448F6A04894F8F0
:103690003E0088BBB4F908006169DFF818A208444D
:1036A000DFF8149245F2555B6061404525DB39F93E
:1036B00015205A4503D1814830F8157001E039F8DA
:1036C00015703AF815001EF05FFC80B2B8420AD2BD
:1036D000616900F10100A1F50041A1F54A61616154
:1036E0003AF815202BE031D93AF8150039B21EF01E
:1036F0003FFDC4F8148029E051E07149884225DC7F
:1037000039F915205A4503D16C4830F8157001E09D
:1037100039F815703AF815001EF036FC80B2B84240
:1037200005D93AF8150039B21EF022FD384658B1D5
:103730006269401E02EB080161613AF8152001B28E
:1037400010461EF015FD01E05D4860613AF8150075
:103750001EF01AFC014639F91500584502D15748A8
:1037600030F915004FF47A72514308B1B1FBF0F013
:103770000A21B0FBF1F0208252480088012808D1CC
:10378000C5EBC500504900EB400001EB4000408A0A
:10379000208204F1100064220021FCF77BFDA07B55
:1037A000012813D1A08B4746B8420ED2B4F90800C5
:1037B000FCF7A6FDA18B084480B2A083B84205D3D4
:1037C000A683E08B401CE08300E0A6833F49B4F968
:1037D0000A00B1F90010884201DD207BE8B3B4F89B
:1037E0004000401EA4F840004FF4167904F1400058
:1037F0004A460021FCF74EFDB4F9400040F24E2746
:10380000B84205DB94F83F1041F0010184F83F1005
:103810000A2805DC94F83F0020F0010084F83F00FE
:103820002B49B4F90A00B1F90010884201DD207B70
:1038300080B3B4F84200401EA4F8420004F14200F4
:103840004A460021FCF726FDB4F94200B84207DBE6
:1038500094F83F1041F0020100E041E084F83F108D
:103860000A2805DC94F83F0020F0020084F83F00AD
:10387000606C40453CDA401C6064404539DB66645E
:10388000144C34F815001EF07FFB401C01B234F8D4
:10389000150021E028E0000088C0072020F3072061
:1038A0001CC10720EEC0072014C10720D0C107208B
:1038B00020400240849B020030C2072028C207201B
:1038C0006073FFFF52C1072060F407202EC107205C
:1038D0002CC10720A09B0200BDE8FC5F1EF048BC85
:1038E000B4F84000401C7DE7B4F84200401CA3E758
:1038F0006664BDE8FC9F70B5FC4C0021A0790A28E5
:1039000007D2401CC0B2A0710A2802D3A1710120C5
:103910002072E079052805D2401CC0B2E07105286C
:1039200000D1E171BE20FCF762FCF14D28B1F148F5
:103930000168BF2927D1406824E0207A18B3EE48F7
:103940004088401D2880A07D022802D1EB480088D5
:103950002880EB48B5F90010B0F90000814200DB87
:103960002880E848B5F90010B0F90000814200DB7A
:103970002880E548808C30B1B5F900104FF4FA701A
:10398000814200DB2880E1484FF4C871B0F9002083
:10399000D748FCF77FFCB5F900006221414364225F
:1039A00091FBF2F1DA4B19806621484390FBF2F06B
:1039B000D849088070BD2DE9F041CC4CB4F92600FF
:1039C00008B1401EE084D448D44DCB4E00882880F6
:1039D000B6F908000A27002806DAFCF791FC90FBEC
:1039E000F7F0298808442880B6F95400002806DA40
:1039F000FCF786FC90FBF7F0298808442880C8492A
:103A0000B5F90000C74AB1F900103C2390FBF1F171
:103A1000491CC9B2A174B2F9002090FBF2F0401C1D
:103A2000C2B2C148E274B0F90050A94201DD018080
:103A300004E0AA4203DAE18C09B90280E384BB49BD
:103A40000A88BB490AB10A880280B1F90020BDE8A2
:103A5000F0410121B448FCF71DBC2DE9F05FB548E9
:103A6000A24CB0F900006087B4F95C1011B1491E96
:103A7000A4F85C10B4F95E1011B1491EA4F85E10F0
:103A80009D494FF00A0891F83F20920703D191F821
:103A90008B10890702D090FBF8F06087607A4FF0B6
:103AA00000094FF0010A0A2808D2401CC0B2607217
:103AB0000A2803D384F8099084F80AA0E120FCF7CF
:103AC00096FB9D4F8A4BDFF874B2D0B389480168EA
:103AD000642908D069290AD06E290CD0E5291ED0A6
:103AE000E6291ED0D3E04068E18B0844CEE0406870
:103AF000E18B081ACAE0A08B401E00B2A0831E28EA
:103B000006DD8F49B7F90000B1F90010884205DAE7
:103B10000A230022E721E620FCF732FBB7E04068E9
:103B2000B4E0B7F90000B3F90010884212DDA0EB51
:103B300001000A2806DDB4F91C00002802DD401F40
:103B4000A4E01CE0B4F91C00002836D0A17AA1B38F
:103B5000401E9BE031DA081A0A2807DDB4F91C0080
:103B600040F2F731884201DA401D8FE0B4F91C00C1
:103B7000B0F57F7F21DAA17AF9B1401C86E0A07A06
:103B8000D8B17048008818B19BF8A30228287ED9C4
:103B9000B4F91E00E086B4F93810628F91FBF8F595
:103BA000B5EB420F57DC0DDAC2EB02168E4209DA92
:103BB000B4F85C1021B1401E5EE068E00A385BE0BA
:103BC000C01E59E0C2EB02168E4201DD9542F2DCC6
:103BD000B7F90050B3F90030494F4A4E9D4231DAEF
:103BE000B7F90070B6F90060A7EB0606A3EB06076D
:103BF000AF4215DD00291ADAB4F85C1071B90A3049
:103C00003AE000BFB4F85C1041B915E0C2EB4213D2
:103C100003EB8212B2FBF8F28A422EDD401C2BE04D
:103C2000F71706EB9776A3EBA606AE4206DD02EB8E
:103C300082038B42EADDE5E7801C1DE05B1E9D42AE
:103C4000E4DB1AE019DDB7F90010B6F90020891A93
:103C5000CA18AA4204DAB4F85C100029AED0AAE768
:103C6000CA1701EB927103EBA101A9421ADAB4F869
:103C70005C1000299FD1801EE0861C4840F2F23281
:103C80000A213630FCF706FBE08EE083A08328484B
:103C900084F80C9084F80B904D4659465246B0F982
:103CA00000300FE05B1C9D4285DCE6E7C0EBC00600
:103CB00006EB460601EB8606F6781E2E00D222732E
:103CC000401CE072E07A9842F0DB207B20B94FF490
:103CD0001670A083E083E086044840F2F2320A21A5
:103CE0001C30FCF7D7FAA572BDE8F09F0CC0072086
:103CF000EEC107200800001020F3072016C107209E
:103D000004C1072006C1072060F4072002C1072074
:103D10007A00001036C407207C0000103AC4072047
:103D200018C107201AC1072038C407202AC107205C
:103D300056C107201CC10720D8C1072088F50720DD
:103D40000EC1072000C207202DE9F05FFA4E0020C7
:103D5000F749DFF8E0834FF00A0B8246B6F90030EE
:103D600024E0F64AF64C125C34F91220B2F5FA6FF0
:103D70000A560DDA0A2A08DA521C52B20A540A2AE2
:103D800012DB012208F800200EE001F800B00BE081
:103D9000002A07DB521E52B20A54002A04DC08F83B
:103DA00000A001E001F800A0401CC0B29842D8DB9E
:103DB0000024DFF89093E44DE44F70E0E44830F8DD
:103DC0001400002818F8040001D078B101E001289F
:103DD0000CD019F90400002818DB401E40B209F885
:103DE0000400002814DC05F804A011E019F90410FF
:103DF0000A2908DA491C49B209F804100A2907DB24
:103E00000120285504E009F804B001E009F804A0F5
:103E1000395D285D81423ED0CE4A918E491C918603
:103E2000012807D014B3012C25D0022C28D0032C54
:103E30002BD030E034B1012C09D0022C0CD0032C53
:103E40000FD028E001231A460F21C3A021E001234F
:103E500002220F21C3A01CE0012303220F21C4A0D2
:103E600017E0012304220F21C4A012E00023012245
:103E70000F21C5A00DE0002302220F21C7A008E0FA
:103E8000002303220F21CAA003E0002304220F21F4
:103E9000CCA01CF0FBFB285D3855641CE4B2B6F9DD
:103EA000000084428ADB1FE7CB49CC4A012008701E
:103EB00010704870507070472DE9F05FC948DFF806
:103EC00028E3DFF81CC3B0F90070BEF90000A14C74
:103ED000C0EB0011BCF902506FF01D0A6FF0950B9A
:103EE0000026DFF8F482B4F93E000AEB81020BEB06
:103EF0008103BD4204DCBD4FB7F90070BD4205DA55
:103F0000824203DD834201DA88F80060B84DE14661
:103F1000BCF908C0B5F90050B04FBCEB450F03DC4D
:103F20006D42BCEB450F04DA824202DD834200DAC7
:103F30003E706FF0090202EB81017546814220D18B
:103F4000A07DF0B998F8000001281AD1387801282E
:103F500017D14FF4D6701EF017F8A649B1F900102A
:103F600088420ED0A448008858B199F83D00C00797
:103F700007D14FF4D6701EF0FBF8A0480178491C19
:103F800001709849B9F902204846B1F900108A42F7
:103F900006DC9649B0F94E20B1F900108A420FDADA
:103FA000B5F90010B4F93E20C1EB01110AEB810311
:103FB000934205DD0BEB8101914201DA88F8016043
:103FC0008B49B9F95400B1F90010B0EB410F03DC93
:103FD0004942B0EB410F0EDAB5F90000B4F93E10DA
:103FE000C0EB00100AEB80028A4204DD0BEB80007C
:103FF000884200DA7E70B5F90000C0EB00116FF066
:10400000090000EB8100B4F93E10884222D1A07D66
:1040100000BB98F8010001281CD17878012819D13B
:104020004FF4E57630461DF0AFFF02467148B0F917
:1040300002108A420ED07048008802280AD199F8EE
:104040008900C00706D130461EF092F86B4801780F
:10405000491C0170B5F900006FF00101C0EB0010C0
:1040600001EB8000B4F93E10884202D1BDE8F05F58
:104070001AE739E62DE9F0036148624ADFF888C1A2
:1040800000784FF000084FF00109F0B35F48614637
:10409000B0F900605E48B1F90010B0F900705D48F9
:1040A000BE42B0F900305C48B0F900405B48B0F95E
:1040B00000505B48B0F9000013DA834203DB84420E
:1040C00001DB85420DDA5748B0F90000814219DA68
:1040D000491C09B2ACF80010814213D182F800806B
:1040E00015E0514FB7F90070BE420BDD834209DD88
:1040F000844207DD854205DD21B1491E08B2ACF8D6
:10410000000060B11078002800E00DE009D1BDE8A2
:10411000F0030F2301226E21D220FCF731B882F880
:104120000090BDE8F0037047ACF80080F7E70000AE
:104130002EC407200DC207205CC107207F9B020010
:10414000D46800107500001011C2072032C4072087
:10415000A8C207200CC00720534B20233120416CFC
:1041600061726D00534B20233220416C61726D00EF
:10417000534B20233320416C61726D00534B20233D
:104180003420416C61726D00534B20233120416C0F
:1041900061726D206973206F66660000534B2023A7
:1041A0003220416C61726D206973206F6666000079
:1041B000534B20233320416C61726D206973206F53
:1041C00066660000534B20233420416C61726D20E1
:1041D0006973206F666600007E0000103CC40720F3
:1041E00020F3072036C4072024C107207A000010DE
:1041F00014C1072030C2072054C107203EC4072045
:10420000D2C00720FEC307208A000010D8C10720B3
:1042100048C10720E0C10720E2C10720E4C1072010
:1042200010C1072046C107204AC107202DE9F04FE1
:104230009448DFF8548296490378944898F900200E
:10424000B1F90010B0F9000088B023B1022B34D0CE
:10425000012B7ED0FDE08F4E8F4B347896F801C055
:10426000B3F90A501F7BB3F9566093F8583022B166
:10427000012A0FD1552C14D10FE0552C03D18542C2
:1042800068DC002F66D1BCF1550F03D1864261DC9A
:10429000002B5FD108B0BDE8F08F8D42FADA002F15
:1042A000F8D1BCF1550F7ED18E42F3DA002B7AD0D3
:1042B000F0E700BF88F80000ECE7794C774B94F802
:1042C00003C0B3F90030A76AE56F009594F8575022
:1042D0000195D4F8D050029594F8AB500395D4F8DA
:1042E0002451049594F8FF500595D4F8785106951B
:1042F00094F85351AE46D4F8CC51079594F8A75191
:10430000D4F87462AB46D4F82052B146AA4694F869
:10431000FB5194F84F42DBB387421BDCBCF11E0F0C
:1043200018D2012B05DD009E864213DC019E1E2E55
:1043300010D2022B05DD029E86420BDC039E1E2E50
:1043400008D2032B08DD049E864203DC059E1E2E48
:1043500001E05CE07DE07CD2042B05DD069E864218
:1043600077DCBEF11E0F74D2052B05DD079E864259
:104370006FDCBBF11E0F6CD2062B03DD824568DCBF
:104380001E2D66D2072B03DD814562DC1E2C60D218
:10439000012A8DD13BB18F428ADABCF10A0F87D254
:1043A000022B2DDB00E06BE00098884284DA019854
:1043B0000A28F4D2032B23DB02988842ECDA039814
:1043C0000A28ECD2042B1BDB04988842E4DA059817
:1043D0000A28E4D2052B13DB06988842DCDABEF10A
:1043E0000A0FDCD2062B0BDB07988842D4DABBF12C
:1043F0000A0FD4D2072B03DB8A45CDDA0A2DCED2A1
:10440000082B3DDB8945C7DA0A2C39D342E7264C15
:10441000244BB4F90050B4F90260AA46234DB3F915
:104420000030B4F90440D5E900C7AD68B94693B18E
:1044300082450EDCBCF1000F0BD1012B04DD86425E
:1044400007DCB9F1000F04D1022B04DD844200DC4B
:104450000DB101202EE7012AD8D18BB18A45D5DADA
:10446000BCF1000FD2D1022B04DB8E42CEDAB9F1BF
:10447000000FCBD1032B03DB8C42C7DA002DC5D153
:10448000002017E7D1C007200CC0072042C1072039
:1044900044C107206AC1072020F3072056C1072026
:1044A00088F507205AC1072082C20720B8060820D5
:1044B00070B5F9480278F948016812B141F001017C
:1044C00001E021F001010022F54C01605FF00101E3
:1044D00002EB420303EB021304EB830393F83D303A
:1044E000DB0706D0551C01FA05F305689D431D4303
:1044F00004E0531C056801FA03F39D43521CD2B239
:104500000560022AE4D3E74C002200BFC2EBC203DD
:1045100003EB430304EB83035B7833B1D51C01FA4F
:1045200005F305689D431D4303E0D31C01FA03F323
:104530009D43521CD2B205600C2AE7D32A46D74DC0
:1045400000231435EC5C34B103F10F0601FA06F4D4
:10455000A243224304E003F10F0401FA04F4A2434E
:104560005B1CDBB2062BEDD3CF4D00230260EC5C6D
:10457000012C2FD003F1190401FA04F4A2435B1CAF
:10458000DBB2042BF3D30260836822EA0301C1602B
:1045900044680C43C54944600D8815B124F000748B
:1045A00044604C881CB1446824F0806444608C886A
:1045B0001CB1446824F000644460C98819B14168A2
:1045C00021F0805141609343D943B94B01611B886D
:1045D0003BB109E003F1190601FA06F4A2432243B4
:1045E000CDE761F001010161036941681940C0E94B
:1045F000011270BDF8B54FF4606528461DF0C4FC8B
:10460000401C04463F2800D9002421B228461DF052
:10461000AFFD40F6026630461DF0B6FC3F2800D0E4
:10462000204601B230461DF0A3FD28461DF0ACFC2B
:104630004FF4806101EB4010054655208DF80000D5
:1046400000268DF8016052208DF802008DF803607D
:10465000694628461DF011FE6946281D00961DF08A
:104660000CFE944CA08B8DF80000207E8DF801008C
:10467000207B8DF802008DF80360694605F1080083
:104680001DF0FBFD207A8DF8000020798DF80100E7
:1046900020788DF802008DF80360694605F10C0062
:1046A0001DF0EBFD41248DF800408DF801408DF8A0
:1046B00002408DF80340694605F110001DF0DDFD54
:1046C0008DF800408DF801408DF802408DF80340D0
:1046D000694605F114001DF0D0FD8DF800408DF8FD
:1046E00001408DF802408DF80340694605F118003D
:1046F0001DF0C3FD8DF800408DF801408DF802409B
:104700008DF80340694605F11C001DF0B6FDF8BDAB
:104710002DE9F843674D604A203D00262F154FF4E0
:104720006061012802D000287DD034E101201070A2
:10473000884608461DF028FC401C04463F2800D946
:10474000002421B240461DF013FD40F602694846A0
:104750001DF01AFC3F2800D0204601B248461DF04B
:1047600007FD40461DF010FC07EB401750208DF868
:1047700000008DF8016041248DF802408DF803603F
:10478000694638461DF079FD6946381D00961DF0D2
:1047900074FD05F12005A88B8DF80000287E8DF8AA
:1047A0000100287B8DF802008DF80360694607F14F
:1047B00008001DF062FD287A8DF8000028798DF838
:1047C000010028788DF802008DF80360694607F132
:1047D0000C001DF052FD8DF800408DF801408DF861
:1047E00002408DF80340694607F110001DF045FDB9
:1047F0008DF800408DF801408DF802408DF803409F
:10480000694607F114001DF038FD8DF800408DF861
:1048100001408DF802408DF80340694607F1180009
:104820001DF02BFD00E011E08DF800408DF80140F7
:104830008DF802408DF80340694607F11C001DF019
:104840001CFD0023012202211BA0A2E013481670C8
:10485000B046026822F001020260154A12881AB1BD
:10486000426822F00102426008461DF08DFB0646B8
:104870003446B94609EB4417694638461DF001FC39
:104880009DF8000050283CD19DF80100C8BB9DF860
:104890000200412835D11FE0DDC0072024000010B0
:1048A00020F3072088F5072011C20720B8C207208F
:1048B0000CC10720204002404D61696E20706F7767
:1048C0006572206973206F6666000000641E00E058
:1048D0003F24B442CED15EE0694607F110001DF0DE
:1048E000D0FB9DF8000041280BD19DF80100412824
:1048F00007D19DF80200412803D19DF8030041280B
:1049000002D0002CE4D0E1E705F12005A88B8DF85A
:104910000000287E8DF80100287B8DF802004446B7
:104920008DF80380694607F110001DF0A6FC287A77
:104930008DF8000028798DF8010028788DF80200A4
:104940008DF80340694607F114001DF096FCFF48FE
:10495000422401788DF8001040788DF801008DF820
:1049600002408DF80340694607F118001DF085FCF0
:104970008DF800408DF801408DF802408DF803401D
:10498000694607F11C001DF078FC01231A4602213C
:10499000EFA01BF07BFE00BFBDE8F8832DE9F84FC8
:1049A00005460C004FF054060BD0012C04D0022C0D
:1049B00004D0032C04D004E0552602E0752600E064
:1049C0004C26E949C5EBC503DFF898A303EB430385
:1049D0004FF0000B4FF460604FF4806901EB8301EE
:1049E000012A02D0002A7DD090E134B1012C08D0F8
:1049F000022C0AD0032C0CD00FE04A7842F00102BE
:104A00000AE04A7842F0020206E04A7842F00402E4
:104A100002E04A7842F008024A7081F8534080462A
:104A20001DF0B2FA401C87B23F2F00D9002739B2DF
:104A300040461DF09DFB40F602601DF0A5FA80B2D5
:104A40003F2800D0384601B240F602601DF090FBCE
:104A500040461DF099FA09EB401087B253208DF8BB
:104A600000008DF801508DF80260D8468DF803B033
:104A7000694638461DF001FC6946381DCDF80080B6
:104A80001DF0FBFBBAF83C000AF120068DF800008F
:104A9000307E8DF80100307B8DF802008DF80380A8
:104AA000694607F108001DF0E8FB307A8DF8000038
:104AB00030798DF8010030788DF802008DF8038090
:104AC000694607F10C001DF0D8FB41268DF8006007
:104AD0008DF801608DF802608DF80360694607F17A
:104AE000100000E084E01DF0C8FB8DF800608DF838
:104AF00001608DF802608DF80360694607F11400CB
:104B00001DF0BBFB8DF800608DF801608DF8026030
:104B10008DF80360694607F118001DF0AEFB8DF8B3
:104B200000608DF801608DF802608DF803606946C1
:104B300007F11C001DF0A1FB25B1012D20D0022D95
:104B40003AD0E3E034B1012C09D0022C0CD0032C74
:104B50000FD0DBE000230122042184A00DE001231B
:104B60001A46042187A008E00223012204218CA018
:104B700003E003230122042191A01BF087FDC5E07F
:104B800034B1012C09D0022C0CD0032C0FD0BDE085
:104B900000230222042192A0EFE701230222042134
:104BA00095A0EAE702231A4604219AA0E5E7032329
:104BB000022204219FA0E0E734B1012C09D0022C8D
:104BC0000CD0032C0FD0A1E0002303220421A1A0CC
:104BD000D3E7012303220421A4A0CEE7022303226A
:104BE0000421A9A0C9E703231A460421AEA0C4E703
:104BF00034B1012C08D0022C0AD0032C0CD00FE0C9
:104C00004A7822F001020AE04A7822F0020206E025
:104C10004A7822F0040202E04A7822F008024A7040
:104C20001DF0B2F984B2A04609EB441087B2694680
:104C300038461DF026FA9DF80000532824D19DF82F
:104C40000100A84220D19DF80200B0421CD1694663
:104C500007F110001DF015FA9DF80000412813D14E
:104C600006E0641EA4B200E03F244445DCD14DE0E0
:104C70009DF80100412807D19DF80200412803D189
:104C80009DF80300412802D0002CEDD0E9E7BAF8E6
:104C90003C000AF120048DF80000207E8DF8010010
:104CA000207B8DF802005D468DF803B0694607F160
:104CB00010001DF0E2FA207A8DF8000020798DF8BE
:104CC000010020788DF802008DF80350694607F145
:104CD00014001DF0D2FA42248DF800408DF80140F6
:104CE0008DF802408DF80340694607F118001DF069
:104CF000C4FA8DF800408DF801408DF802408DF81F
:104D00000340694607F11C001DF0B7FA00BFBDE87B
:104D1000F88F2DE9FC41064600EB460000EB06113A
:104D2000694800EB8104E08B05280DD367484FF4F8
:104D300060670088801D00F0070004EB4000008CD5
:104D4000ADF804003846C3E030E100007200001006
:104D50004D61696E20706F776572206973206F6E88
:104D6000000000000040024088F507204250532018
:104D7000233120416C61726D2C206F7665726865FD
:104D80006174000042505320233120416C61726DE8
:104D90002C20766F6C7461676520697320757000D4
:104DA00042505320233120416C61726D2C20766F6C
:104DB0006C7461676520697320646F776E00000012
:104DC00042505320233120416C61726D2C20636F5F
:104DD0006E6E656374206973206C6F7374000000DD
:104DE00042505320233220416C61726D2C206F762B
:104DF000657268656174000042505320233220417F
:104E00006C61726D2C20766F6C74616765206973BC
:104E10002075700042505320233220416C61726D26
:104E20002C20766F6C7461676520697320646F77DE
:104E30006E00000042505320233220416C61726D9D
:104E40002C20636F6E6E656374206973206C6F73C2
:104E50007400000042505320233320416C61726D76
:104E60002C206F7665726865617400004250532093
:104E7000233320416C61726D2C20766F6C746167F6
:104E80006520697320757000425053202333204100
:104E90006C61726D2C20766F6C746167652069732C
:104EA00020646F776E00000042505320233320416E
:104EB0006C61726D2C20636F6E6E65637420697314
:104EC000206C6F737400000020F30720D0C107200E
:104ED0001DF05AF8401C85B23F2D00D9002529B29B
:104EE00038461DF045F940F6026840461DF04CF882
:104EF00080B23F2800D0284601B240461DF038F964
:104F000038461DF041F84FF4806101EB401085B246
:104F100042208DF800008DF8016057208DF80200C6
:104F200000268DF80360694628461DF0A6F9A07F8B
:104F30008DF80000E07F8DF801009DF804008DF8E9
:104F400002009DF805008DF803006946281D1DF03C
:104F500094F904F1340105F108001DF08EF904F113
:104F6000380105F10C001DF088F9FF4CA08B8DF87D
:104F70000000207E8DF80100207B8DF802008DF866
:104F80000360694605F110001DF077F9207A8DF86D
:104F9000000020798DF8010020788DF802008DF84E
:104FA0000360694605F114001DF067F900BFBDE814
:104FB000FC812DE9F84F0646EC48DFF8AC9306EB90
:104FC000460202EB06124FF0000B4FF0420AA9F125
:104FD00020094FF460674FF4806500EB82000129DF
:104FE00002D000297ED01DE110F83D1F41F00101E3
:104FF000017038461CF0C8FF401C84B23F2C00D919
:10500000002421B238461DF0B3F840F6026840464D
:105010001CF0BAFF80B23F2800D0204601B24046C3
:105020001DF0A6F838461CF0AFFF05EB401085B226
:105030008DF800A08DF8016043208DF802005F46D6
:105040008DF803B0694628461DF017F96946281DFA
:1050500000971DF012F9B9F83C0009F120048DF811
:105060000000207E8DF80100207B8DF802008DF875
:105070000370694605F108001DF0FFF8207A8DF8ED
:10508000000020798DF8010020788DF802008DF85D
:105090000370694605F10C001DF0EFF841248DF80E
:1050A00000408DF801408DF802408DF803406946BC
:1050B00005F110001DF0E1F88DF800408DF8014079
:1050C0008DF802408DF80340694605F114001DF08B
:1050D000D4F88DF800408DF801408DF802408DF82D
:1050E000034000E021E0694605F118001DF0C5F815
:1050F0008DF800408DF801408DF802408DF8034096
:10510000694605F11C001DF0B8F816B1012E05D056
:1051100088E001231A46052195A003E0012302221D
:10512000052198A01BF0B2FA7CE010F83D1F21F099
:105130000101017038461CF027FF87B23C46A846A3
:1051400008EB441085B2694628461CF09AFF9DF88A
:105150000000422824D19DF80100B04220D19DF8E2
:10516000020043281CD106E0641EA4B200E03F24E4
:10517000BC42E5D156E0694605F110001CF081FF04
:105180009DF8000041280BD19DF80100412807D16E
:105190009DF80200412803D19DF80300412802D068
:1051A000002CE4D0E0E7B9F83C0009F120048DF8C8
:1051B0000000207E8DF80100207B8DF802005E4605
:1051C0008DF803B0694605F110001DF056F8207AFD
:1051D0008DF8000020798DF8010020788DF802000C
:1051E0008DF80360694605F114001DF046F88DF84E
:1051F00000A08DF801A08DF802A054468DF803A000
:10520000694605F118001DF038F88DF800408DF85A
:1052100001408DF802408DF80340694605F11C00FD
:105220001DF02BF800BF72E52DE9F84FDFF838814B
:1052300006464FF0000A4FF04209A8F120084FF44B
:1052400060604FF48065012902D000297DD037E1EC
:1052500006EB460101EB06124449074601EB8201C9
:1052600011F83D2F42F002020A701CF08DFE401C26
:1052700084B23F2C00D9002421B238461CF078FFBC
:1052800040F6026B58461CF07FFE80B23F2800D0EB
:10529000204601B258461CF06BFF38461CF074FEE5
:1052A00005EB401085B28DF800908DF80160532019
:1052B0008DF8020057468DF803A0694628461CF079
:1052C000DCFF6946281D00971CF0D7FFB8F83C00AA
:1052D00008F120048DF80000207E8DF80100207B6D
:1052E0008DF802008DF80370694605F108001CF086
:1052F000C4FF207A8DF8000020798DF80100207815
:105300008DF802008DF80370694605F10C001CF061
:10531000B4FF41248DF800408DF801408DF8024023
:105320008DF80340694605F110001CF0A6FF8DF8CA
:1053300000408DF801408DF802408DF80340694629
:1053400005F114001CF099FF00E042E08DF80040E8
:105350008DF801408DF802408DF80340694605F153
:1053600018001CF08AFF17E02040024020F30720BD
:1053700042415420233120416C61726D2C206C6FAE
:105380007374000042415420233220416C61726DDD
:105390002C206C6F737400008DF800408DF8014074
:1053A0008DF802408DF80340694605F11C001CF0A1
:1053B00064FF16B1012E05D082E0022301220521EF
:1053C000FBA003E002231A460521FFA01BF05EF9B3
:1053D00076E01CF0D9FD87B23C46AB460BEB44109F
:1053E00085B2694628461CF04CFE9DF80000422814
:1053F00024D19DF80100B04220D19DF8020043283D
:105400001CD106E0641EA4B200E03F24BC42E5D1FA
:1054100056E0694605F110001CF033FE9DF80000CF
:1054200041280BD19DF80100412807D19DF80200C9
:10543000412803D19DF80300412802D0002CE4D07C
:10544000E0E7B8F83C0008F120048DF80000207E69
:105450008DF80100207B8DF8020056468DF803A0E0
:10546000694605F110001CF008FF207A8DF8000055
:1054700020798DF8010020788DF802008DF8036006
:10548000694605F114001CF0F8FE8DF800908DF8C7
:1054900001908DF802904C468DF80390694605F115
:1054A00018001CF0EAFE8DF800408DF801408DF8E0
:1054B00002408DF80340694605F11C001CF0DDFE3A
:1054C00000BF24E4F3B5054600EB4500C44900EBFA
:1054D000051001EB8000C34983B04FF46066B1F959
:1054E000001000EB4100B0F92200019030461CF0A2
:1054F0004BFD401C04463F2800D9002421B2304611
:105500001CF036FE40F6026738461CF03DFD3F2891
:1055100000D0204601B238461CF02AFE30461CF06E
:1055200033FD4FF4806101EB401442208DF8000000
:105530008DF801504B208DF8020000268DF8036095
:10554000694620461CF099FE9DF810008DF8000079
:105550009DF811008DF801009DF804008DF80200FF
:105560009DF805008DF803006946201D1CF085FE9E
:105570004FF4FC701CF041FD9B4D2946286004F15E
:1055800008001CF07AFE4FF4FE701CF036FD6860D7
:10559000291D04F10C001CF070FE944DA88B8DF8B1
:1055A0000000287E8DF80100287B8DF802008DF820
:1055B0000360694604F110001CF05FFE287A8DF844
:1055C000000028798DF8010028788DF802008DF808
:1055D0000360694604F114001CF04FFE05B0F0BDF5
:1055E0002DE9F84F814E0027203E35153C46BA463E
:1055F0004FF04209012802D0002871D0FCE04FF49E
:10560000606738461CF0C0FC401C04463F2800D9A7
:10561000002421B238461CF0ABFD40F6026840463B
:105620001CF0B2FC3F2800D0204601B240461CF0DE
:105630009FFD38461CF0A8FC05EB40158DF8009046
:105640008DF801A05A208DF8020054468DF803A071
:10565000694628461CF011FE6946281D00941CF07E
:105660000CFE06F12006B08B8DF80000307E8DF820
:105670000100307B8DF802008DF80340694605F18A
:1056800008001CF0FAFD307A8DF8000030798DF8B2
:10569000010030788DF802008DF80340694605F16D
:1056A0000C001CF0EAFD41248DF800408DF801400B
:1056B0008DF802408DF80340694605F110001CF09A
:1056C000DCFD8DF800408DF801408DF802408DF82A
:1056D0000340694605F114001CF0CFFD4EE0FFE7E2
:1056E0004FEA050808EB4415694628461CF0C9FC3A
:1056F0009DF80000422803D19DF802005A2804D0EA
:10570000ECB3641EBC42EDD176E0694605F11000B1
:105710001CF0B7FC9DF800004128F1D19DF8010074
:105720004128EDD19DF802004128E9D19DF8030000
:105730004128E5D106F12006B08B8DF80000307EBF
:105740008DF80100307B8DF8020054468DF803A0DF
:10575000694605F110001CF090FD307A8DF80000CC
:1057600030798DF8010030788DF802008DF8034013
:10577000694605F114001CF080FD4C4600E03DE058
:105780008DF800408DF801408DF802408DF80340FF
:10579000694605F118001CF070FD8DF800408DF889
:1057A00001408DF802408DF80340694620E000007A
:1057B00042415420233120416C61726D2C20617371
:1057C00073696D657472790042415420233220411F
:1057D0006C61726D2C20617373696D6574727900F0
:1057E00020F30720D0C10720A4C00720204002409A
:1057F00005F11C001CF041FD00BF14E53F2471E7DA
:10580000002801DA404200B2704710B54FF43470FE
:105810001CF0BAFBFF4C207040F2D2201CF0B4FB0D
:1058200060704FF435701CF0AFFBA07040F2D620D2
:105830001CF0AAFBE0704FF436701CF0A5FB207240
:1058400040F2DA201CF0A0FB60724FF437701CF0BD
:105850009BFBA07240F2DE201CF096FBE0724FF43E
:1058600043701CF091FB207140F20E301CF08CFB59
:1058700060714FF444701CF087FBA07140F212304D
:105880001CF082FBE07110BDE34810B5016821F007
:10589000E06101604168E24AC1F30B13DF4C11780B
:1058A00024F81130491CC9B21170032903D20168D0
:1058B00041F08071016010BD2DE9F0470746DDE938
:1058C0000A090E46DDE9085A01B2144698469820A6
:1058D0001CF04EFC00219A201CF04AFC002176208E
:1058E0001CF046FC0121CA201CF042FC3C21C220D5
:1058F0001CF03EFC39B278201CF03AFC04EBD4706A
:10590000401001B2C8201CF033FC31B27A201CF0E8
:105910002FFC21B27C201CF02BFC4621C6201CF061
:1059200027FC50217E201CF023FC0FFA88F18220F6
:105930001CF01EFCBB2184201CF01AFC00218620D8
:105940001CF016FC0A2188201CF012FC0FFA89F1C9
:10595000DE201CF00DFC29B28C201CF009FCE800B4
:105960000A2190FBF1F001B28E201CF001FC012114
:10597000A0201CF0FDFB0121A2201CF0F9FB01215D
:10598000A4201CF0F5FBA02192201CF0F1FB0FFAE3
:105990008AF194201CF0ECFB032196201CF0E8FB1C
:1059A0003221CC201CF0E4FB2821CE201CF0E0FBAF
:1059B0005521BC201CF0DCFB1E21BE201CF0D8FBB6
:1059C000012180201CF0D4FB4621D0201CF0D0FB0C
:1059D0003C21D4201CF0CCFB1921D2201CF0C8FBA8
:1059E0005021D6201CF0C4FB4621D8201CF0C0FB5F
:1059F0005B21DA201CF0BCFB5021DC201CF0B8FB42
:105A0000884C002120881CF0B3FB874D002128889A
:105A10001CF0AEFB854E4FF0FF37394630881CF046
:105A2000A7FB608800211CF0A3FB688800211CF004
:105A30009FFB708839461CF09BFBA08800211CF05E
:105A400097FBA88800211CF093FBB08839461CF016
:105A50008FFBE08800211CF08BFBE88800211CF004
:105A600087FBF08839461CF083FB0A214FF419703C
:105A70001CF07EFBBDE8F0470B214FF418701CF0C2
:105A800077BB2DE9FF4700210723182809D064229E
:105A90004FF41674302810D03C2819D0DC2823D0BD
:105AA0004FE0F0249622CDE90024CDE902310246F0
:105AB000162311464FF4967013E04FF4F075CDE9BC
:105AC0000025CDE9023102462C231146204608E08C
:105AD000CDE90024CDE9023102463723114640F2D8
