:020000040000FA
:10000000707C0010E1000000E5000000E700000047
:10001000E9000000EB000000ED000000000000001F
:10002000000000000000000000000000EF000000E1
:10003000F100000000000000F300000049E70100AB
:10004000F7000000B1150200DD150200F700000006
:10005000F700000021440200F7000000F700000054
:10006000F7000000F7000000F7000000F7000000B4
:10007000F7000000F7000000F7000000F7000000A4
:10008000F7000000F7000000F7000000F700000094
:10009000F7000000F700000055590000F7000000CD
:1000A000F7000000FF410200F7000000F700000029
:1000B00091590200F7000000F7000000F70000006F
:1000C000F7000000F7000000F7000000DFF80CD098
:1000D00025F026FD00480047B9E80100707C0010BB
:1000E00005480047FEE7FEE7FEE7FEE7FEE7FEE71E
:1000F000FEE7FEE7FEE7FEE7CD000000FEE710B5F5
:1001000027F0D8FB27F064FC27F056FC27F0E4FB2F
:10011000AFF30080BDE8104027F020BC10B528F0F8
:1001200031FA29F0A1F828F085FABDE8104028F04E
:10013000FDBB28F045B927F00DBF09B1002070477D
:1001400026F062BC0020704770B5374A0020A2F14B
:100150001401064601F10A030C5C54B11D5CAC426B
:1001600007D1145C2CB1641E14F0FF04145400D1A8
:100170000E540C5C1C54401CC0B20A28ECD370BD59
:1001800070B5294D0024143D641CE4B22E5D1EB1EF
:10019000864201D00A2CF7D3285523480C3040F86A
:1001A0002410283040F824203438035570BD1E4AEE
:1001B0000021143A491CC9B2535C834201D00A2978
:1001C000F8D3DBB2834210D117480C3050F82130FD
:1001D00016480360144B343353F821304360002039
:1001E0005054114A505401207047002070470E4A65
:1001F0000021143A491CC9B2535C834201D00A2938
:10020000F8D3DAB282420CD107480C3050F82120E2
:1002100006480260044A343252F82110416001203D
:100220007047002070470000C8F207200C00001043
:100230000C4BDA601870597070470A4A116190705F
:1002400070470849088170470648B0F9081000292E
:1002500007D0491E09B20181002902D1084600F0E9
:10026000C0BF70471400001090F900308B4200DAD4
:10027000027090F90030934200DD0170704790F9F0
:1002800000308B4200DA017090F90010914200DDDD
:1002900002707047B0F900308B4200DA0180B0F98B
:1002A0000010914200DD02807047B0F900308B42AF
:1002B00000DA0280B0F90030934200DD018070471F
:1002C0000146002000E0401C0A5C002AFBD1704778
:1002D00010B5002200E0521C835C8C5CA34201D16B
:1002E000002BF8D1D8B2E1B2401A10BD00487047D7
:1002F000E8AA02000048704758220010FFFFFFFFE5
:10030000002801DA404200B270470020F84A20215C
:100310001154401CC0B2C828FAD370470146F44AB1
:100320000020401CC0B2135C8B4201D0C828F8D317
:10033000704710B50021EF4C0A2200BFB0FBF2F36A
:1003400002FB13006054491CC9B218460529F5D3B5
:1003500010BDF0B5E84B0121202719700521E54AB1
:10036000002601E01C7844B1541814F8015C25B94A
:10037000814202D904F8017C05E0541814F8015DAB
:10038000303525701E70491E11F0FF01EAD1F0BD15
:10039000FEB52B23002802DA404200B22D230025AF
:1003A0000A266C4690FBF6F706FB170060556D1C9D
:1003B0006DB238B20A2DF5DB012600250920202771
:1003C00000E046B114F800C0BCF1000F03D1904228
:1003D00001DD275405E0265C3036265400266D1CCE
:1003E000EDB2401E40B20028EBDA2D2B02D163554E
:1003F0006D1CEDB26AB168B205E0231813F8013C38
:100400002354401E40B29042F7DC2E206D1CA054B5
:10041000EDB20846FFF782FF0021B54A04E0635CB5
:10042000461A491C935549B2A942F8DBFEBDFEB5F8
:100430002B23002801DA40422D2300250A266C4692
:10044000074690FBF6F006FB107767556D1C6DB202
:100450000A2DF5DB012600250920202700E046B102
:1004600014F800C0BCF1000F03D1904201DD275405
:1004700005E0265C3036265400266D1CEDB2401E89
:1004800040B20028EBDA2D2B02D163556D1CEDB282
:100490006AB168B205E0231813F8013C2354401EEA
:1004A00040B29042F7DC2E206D1CA054EDB20846FD
:1004B000FFF734FF00218E4A04E0635C461A491CB2
:1004C000935549B2A942F8DBFEBDFEB52B260028A4
:1004D00001DA40422D2600240A276D46844690FB0F
:1004E000F7F007FB10CC05F804C0641C64B20A2CBA
:1004F000F4DB0127002009244FF0200C00E04FB16D
:1005000015F804E0BEF1000F04D19C4202DD05F8AD
:1005100004C005E02F5D30372F550027401CC0B2C6
:10052000641E64B2002CEADA2D2E02D12E54401C37
:10053000C0B26BB144B205E02E1916F8016C2E550D
:10054000641E64B29C42F7DC2E24401CEC54C0B202
:1005500001EB810102EB8101CAB20021644B04E08E
:100560006C5C561A491C9C5549B28142F8DBFEBDB1
:1005700070B50D4616461C46FFF7DBFE601CC0B288
:10058000FFF7E7FE05EB850006EB8000C1B2594A94
:10059000574B0020A04201D2155C5D5406D3155C78
:1005A000202D03D04CB15E1806F8015C491E401C9A
:1005B000C0B2C9B20528EDD370BD5D54F6E730B5C1
:1005C000044608461546FFF7A9FEFF2809D0484A09
:1005D0002178002905D04319641C401CD154C0B2B5
:1005E000F6E730BD70B50D461446FFF7A2FE601C5D
:1005F000C0B2FFF7AEFE2846FFF790FE3D4B3C4AE7
:10060000002124B95D5C202D01D015540FE0A142DA
:1006100001D25D5CF9E704D14FF02E0515545D5C05
:1006200002E05D5C202D02D0161806F8015C401E29
:10063000491CC9B2C0B20529E3D370BD801801D5E9
:10064000084402E0884200DB401AC0B270472DE93E
:10065000FE4F04460D464FF4606021F07DFC62427F
:100660004021FFF7EBFF400100F58060044602A93E
:1006700021F0EFFC694604F1080021F0EAFC01A931
:1006800004F10C0021F0E5FC2846FFF747FE064682
:100690009DF8080040273025DFF860B0DFF850A053
:1006A00020244FF0210C4FF02309552828D0CF22C9
:1006B000D123502873D0422872D0532871D04928B2
:1006C0006BD1C8210AF80610761CF1B2ED220AF8A7
:1006D0000120491CC9B2E2220AF80120491C9DF8F8
:1006E00009205046C9B2092A7ED231324254FEE373
:1006F000D0C2072028C407202DC407200040024094
:100700009DF80A0052280ED1C2210AF80610761C64
:10071000F1B2EA220AF80120491CC9B2EB220AF818
:100720000120491CCEB25046B1E300BF9DF8012024
:1007300096F838309A4267D19DF8022096F82C300E
:100740009A42F8D14554491CC9B23A2200F801C076
:10075000491CC9B24254491CC9B24554491CC9B2CA
:100760004754491CC9B24254491CC9B200224554DD
:10077000491CC9B20AF801909DF804002121FFF735
:1007800031FF9DF8050000224021FFF72BFF9DF867
:10079000060000222321FFF725FFBDE8FE8F0BE0B6
:1007A00033E04BE39DF80110FD48002200EB81008F
:1007B0004021FFF704FFF0E70AF80620761CF1B2AB
:1007C00050460AF80130491CC9B20AF80140491CD8
:1007D000C9B20AF80140491CC9B20AF80140491CD3
:1007E000C9B20AF8014000E095E3491CC9B219E317
:1007F0009DF8013092F83860B3429CD19DF80230E8
:1008000092F82C2093429DD055E39DF80A0043288E
:100810007CD1C1210AF80610761CF1B2E0220AF858
:100820000120491CC9B2F2220AF80120491CCEB2AB
:100830009DF809105046092906D231318155761CA0
:10084000F1B2C022425419E0A1F109025A2A11D290
:10085000491C0A23B1FBF3F2904630328255761CD4
:1008600003FB1811F6B230318155761CF1B2C0226B
:10087000425406E08455761CF1B24454491CC9B276
:100880004454491CC9B25E464454491C9DF800209A
:10089000BBF83C30C9B29A4239D19DF8012096F894
:1008A00038309A4233D19DF8022096F82C309A4283
:1008B0002DD14554491CC9B23A2200F801C0491C47
:1008C000C9B24254491CC9B24554491CC9B2475423
:1008D000491CC9B24254491CC9B200224554491CA2
:1008E000C9B20AF80190491CCEB29DF8040021213A
:1008F000FFF778FE9DF8050000224021FFF772FE09
:100900009DF8060000222321FFF76CFE36E04454D8
:10091000491CC9B200224554491CC9B200F801C0A3
:10092000491CC9B24754491CC9B24454491CC9B2F4
:100930004454491CC9B24554491CC9B20AF8019033
:10094000491CCEB29DF802002121FFF74BFE9DF815
:10095000000000222321FFF745FE9DF80100401E04
:100960000C2802D301208DF801009DF801108C485D
:10097000002200EB81004021FFF721FE9DF80A00D4
:10098000532873D1C1210AF80610761CF1B2E02277
:100990000AF80120491CC9B2F2220AF80120491CB8
:1009A0009DF8092043235046C9B2092A09D23132A1
:1009B0004254491CC9B2C0224254491CC9B24354D2
:1009C0000FE0093A5A2A05D2C0224254491CC9B242
:1009D000435403E04454491CC9B24454491CC9B2AD
:1009E0004454491CC9B25E464454491C9DF8002039
:1009F000BBF83C30C9B29A4239D19DF8012096F833
:100A000038309A4233D19DF8022096F82C309A4221
:100A10002DD14554491CC9B23A2200F801C0491CE5
:100A2000C9B24254491CC9B24554491CC9B24754C1
:100A3000491CC9B24254491CC9B200224554491C40
:100A4000C9B20AF80190491CCEB29DF804002121D8
:100A5000FFF7C8FD9DF8050000224021FFF7C2FD09
:100A60009DF8060000222321FFF7BCFD36E0445428
:100A7000491CC9B200224554491CC9B200F801C042
:100A8000491CC9B24754491CC9B24454491CC9B293
:100A90004454491CC9B24554491CC9B20AF80190D2
:100AA000491CCEB29DF802002121FFF79BFD9DF865
:100AB000000000222321FFF795FD9DF80100401E54
:100AC0000C2802D301208DF801009DF80110344854
:100AD000002200EB81004021FFF771FD9DF80A0024
:100AE0005A285CD1C2210AF80610761CF1B2C7223E
:100AF0000AF80120491CC9B250460AF80140491CB5
:100B0000C9B25E460AF80140491CC9B20AF8014060
:100B1000491CC9B24454491CC9B24454491C9DF8EB
:100B20000020BBF83C30C9B29A423BD19DF801206D
:100B300096F838309A4235D19DF8022096F82C303C
:100B40009A422FD14554491CC9B23A2200F801C03B
:100B5000491CC9B24254491CC9B24554491CC9B2C6
:100B60004754491CC9B24254491CC9B200224554D9
:100B7000491CC9B20AF80190491CCEB29DF8040084
:100B80002121FFF72FFD9DF8050000224021FFF7EE
:100B900029FD9DF8060000222321FFF723FD38E000
:100BA000E4A102004454491CC9B200224554491C26
:100BB000C9B200F801C0491CC9B24754491CC9B2A6
:100BC0004454491CC9B24454491CC9B24554491C37
:100BD000C9B20AF80190491CCEB29DF80200212149
:100BE000FFF700FD9DF8000000222321FFF7FAFC2B
:100BF0009DF80100401E0C2802D301208DF8010051
:100C00009DF80110FE48002200EB81004021FFF713
:100C1000D6FC9DF80A0057287DD1C1210AF806109C
:100C2000761CF1B2E0220AF80120491CC9B2F22276
:100C30000AF80120491CCEB29DF8091050464FF029
:100C4000F00E092906D231318155761CF1B200F837
:100C500001E019E0A1F109025A2A11D2491C0A2324
:100C6000B1FBF3F2904630328255761C03FB18112B
:100C7000F6B230318155761CF1B200F801E006E0A1
:100C80008455761CF1B24454491CC9B24454491CE1
:100C9000C9B25E464454491C9DF80020BBF83C3064
:100CA000C9B29A423BD19DF8012096F838309A4259
:100CB00035D19DF8022096F82C309A422FD1455418
:100CC000491CC9B23A2200F801C0491CC9B24254B9
:100CD000491CC9B24554491CC9B24754491CC9B240
:100CE0004254491CC9B200224554491CC9B20AF8F1
:100CF0000190491CCEB29DF804002121FFF772FC3F
:100D00009DF8050000224021FFF76CFC00229DF8B1
:100D10000600232100E039E0FFF764FC36E044548C
:100D2000491CC9B200224554491CC9B200F801C08F
:100D3000491CC9B24754491CC9B24454491CC9B2E0
:100D40004454491CC9B24554491CC9B20AF801901F
:100D5000491CCEB29DF802002121FFF743FC9DF80B
:100D6000000000222321FFF73DFC9DF80100401EFA
:100D70000C2802D301208DF801009DF80110A04835
:100D8000002200EB81004021FFF719FC9DF80A00CA
:100D90004B287FF410ADC1210AF80610761CF1B281
:100DA000E0220AF80120491CC9B2F2220AF8012007
:100DB000491C9DF80900C9B209280BD231300AF844
:100DC0000100491CC8B2EA210AF80010401CC0B258
:100DD000E52115E0A0F109025A2A16D2401C0A2387
:100DE000B0FBF3F2904630320AF80120491C03FBB5
:100DF0001800C9B230300AF80100491CC8B2EA2113
:100E00000AF80010401CC1B20BE00AF80140491C6E
:100E1000C9B20AF80140491CC9B20AF80140491C8C
:100E2000C9B250465A464454491C9DF80030BBF89C
:100E30003C60C9B2B3423FF4DBAC3CE0C1210AF8EC
:100E40000610761CF1B250460AF80120491CC9B2BE
:100E50000AF80130491CCEB29DF80910092902D2C6
:100E60003131815514E0A1F109025A2A0FD2491CEF
:100E70000A23B1FBF3F2904630328255761C03FB15
:100E80001811F6B230318155761CF1B205E0845567
:100E9000761CF1B24454491CC9B25E464454491C04
:100EA000C9B24454491C9DF80020BBF83C30C9B27B
:100EB0009A423FF43BAC4454491CC9B24554491CC6
:100EC000C9B200F801C0491CC9B24754491CC9B293
:100ED0004454491CC9B24454491CC9B24554491C24
:100EE000C9B200220AF801909DF8020000E025E056
:100EF0002121FFF777FB9DF8000000222321FFF757
:100F000071FB9DF80100401E0C28FFF44BAC012042
:100F10008DF8010046E4A2F109035A2B0DD2521CB0
:100F20000A25B2FBF5F303F130064654491C05FBD4
:100F30001322C9B23032425403E04454491CC9B2AE
:100F40004454491CC9B20AF8014026E470B504466D
:100F5000084615461E46FFF7E1F92A4B0146FF28D1
:100F600004D106E01A54641C401CC0B22278002A46
:100F7000F8D125480078002804D0002E02D029445A
:100F80005F20585470BD2DE9FF4F8146DDE90D0407
:100F90008A469346FFF7C2F92022DFF86C80194990
:100FA0000A234FF0640C012C09D198F8005035B198
:100FB0000D18A5F10E05AA706A702A7026E099FB3B
:100FC000F3F603FB16970D183037A5F10E05022C2A
:100FD000AF7096FBF3F703FB176606F130066E70F1
:100FE00099FBFCF606F1300605F80E6B0ED198F869
:100FF00000605EB1A5F10A05AA706A702A7027E048
:10100000E4A10200D0C20720CDC007209AFBF3F66E
:1010100003FB16A70D183037A5F10A05032CAF7096
:1010200096FBF3F703FB176606F130066E709AFB2A
:10103000FCF606F13006674605F80A6B08D198F809
:1010400000602EB1A5F10605AA706A702A7022E030
:101050009BFBF3F603FB16B70D183037A5F1060519
:10106000042CAF7096FBF3F703FB176606F130060E
:101070006E709BFBFCF606F13006674605F8066BC2
:1010800009D198F8004034B1A5F102050A546A70FC
:101090002A70BDE8FF8F039C94FBF3F203FB12441C
:1010A00030340C5492FBF3F403FB14220844A0F1F7
:1010B000020030324270039991FBF7F101F13001E7
:1010C0000170E6E717B501EB810002EB8000C2B2C8
:1010D0009DF80030B44803F00F0100EB1313445C9B
:1010E000B2498C54521ED2B21B788B549DF80130F9
:1010F000521E03F00F04D2B2045D8C54521E00EB5A
:101100001313D2B21B788B549DF80230521E03F099
:101110000F04D2B2045D8C54521E00EB1313D2B2F2
:101120001B788B549DF80330521E03F00F04D2B28B
:10113000045D8C54521E00EB1310D2B20078885418
:101140001EBD01EB810102EB8101974A10B500F051
:101150000F03C9B2D45C954B02EB10105C54491ECE
:10116000C9B20078585410BD30B5914901238F4D54
:1011700091F9012091F9041000EB80048A4202D118
:1011800005F8243030BD894D4C1C00EB800005EB88
:101190008000A24201D1037530BD8C1CA24202D155
:1011A00080F8283030BDCC1CA24202D180F83C30FF
:1011B00030BD0C1DA24202D180F8503030BD4C1D14
:1011C000A24202D180F8643030BD8C1DA24202D10F
:1011D00080F8783030BDC91D8A42FBD180F88C3050
:1011E00030BD744B1A88521E104400B21880724AE7
:1011F00000EB800002446E481368036012790271AC
:101200004278114441707047F0B56A4D6A4FB5F9A4
:10121000004004EB8406641C2C80654C3E44256829
:10122000356025793571207061702271A370F0BD31
:10123000F0B505460E461746FFF767F85B4C0020F1
:10124000401C15F8011BC0B204F8011B1428F7D389
:101250005FF00000401C16F8011BC0B204F8011B2F
:101260001428F7D35FF00000401C17F8011BC0B230
:1012700004F8011B1428F7D35FF00000401C13F89A
:10128000011BC0B204F8011B1428F7D3F0BD10B540
:10129000029CFFF7CDFF4648C378827841789320BF
:1012A000FFF7B2FF642094FBF0F0BDE81040C0B23D
:1012B000FEF7C7BF2DE9FE4340010D4600F58060F3
:1012C000044602A920F0C5FE694604F1080020F09A
:1012D000C0FE01A904F10C0020F0BBFE2846FFF778
:1012E0001DF8324C202530262554401CC0B24FF04A
:1012F00021082654401CC0B24FF0400C04F8008076
:10130000401CC0B2232104F800C0401CC0B200221F
:101310002554401CC0B22554401CC0B22654401C69
:10132000C0B22154401CC7B29DF802002121FFF732
:1013300059F99DF8000000222321FFF753F99DF889
:101340000100401E0C2802D301208DF801009DF8F9
:1013500001001A49002201EB80004021FFF72FF91C
:10136000E5557F1CF8B23A212654401CC0B2002239
:1013700004F80080401CC0B22154401CC0B221219E
:101380002654401CC0B204F800C0401CC6B29DF8F0
:101390000400FFF727F99DF8050000224021FFF720
:1013A00021F9A555BDE8FE8362A20200D0C2072044
:1013B00048C20720F2C007201C690010E4A1020007
:1013C0002DE9FF41FB4C00270546A776A07D0121B2
:1013D000022805D0F84A525D552A04D065200EE057
:1013E000A176BDE8FF8105EB450202EB0513F34A48
:1013F00002EB830696F83D20D30702D06620A07644
:10140000EFE796F83F309B0701D56720F7E7920793
:1014100001D56820F3E7EA4AB6F90830B2F90020AE
:10142000934201DD6920EAE75242934201DA6A20E1
:10143000E5E7012804D1E07D00287ED001287DD099
:101440006420A076A175A4F856104FF4F87020F02F
:1014500077FEE5752946A4F858504FF4FA7020F04D
:101460006FFED848B761002130F9150020F068FE02
:101470002776A4F85A7039464FF4FB7020F060FECE
:10148000D148D24D0088401C00F0070006EB400018
:10149000008CADF80000A88B8DF804004FF06302BB
:1014A0004FF0010101A8FEF7EAFEC24C9DF80400CE
:1014B00098342070287E8DF804000C22012101A8A8
:1014C000FEF7DDFE9DF804006070287B8DF80400B7
:1014D0001F22012101A8FEF7D2FE9DF80400A07092
:1014E0009DF80000E0704FF4FC70216820F063FE6E
:1014F000287A8DF804001722002101A8FEF7BFFE0C
:101500009DF80400207128798DF804003B22002109
:1015100001A8FEF7B4FE9DF80400607128788DF8EC
:1015200004003B22002101A8FEF7A9FE9DF804005B
:10153000A0719DF80100E07101E006E007E04FF4C2
:10154000FE70616820F037FE4BE76B2057E76C2098
:1015500055E72DE9F047974CA07D01287ED1204624
:101560000127C07D217EC0F1010207FA02F0954EED
:10157000924D02B211B1012933D037E01423CA21B0
:10158000C820FEF7FDFD14234FF0FF32CE21CD2001
:10159000FEF7F6FDE07D00EB400101EB001005EBEE
:1015A0008000B0F90800FEF7ABFEE17D01EB4102DF
:1015B00002EB011205EB82029369184448F6A0433E
:1015C0009061984212DBC01A906136F8110020F049
:1015D000C3FC401C01B2E07D36F9100020F0B0FDE4
:1015E00004E01423CA21C820FEF7CAFDE07DA84606
:1015F00000EB400101EB001205EB8201744AB1F9E6
:1016000002100025B2F900204FF4F87902EB8202B3
:10161000B1EB420F42DAB4F85210491C09B2A4F8F7
:1016200052101E293CDBA17D012921D1217EF9B96F
:1016300036F8100020F090FC01B26648E27D30F9E7
:10164000120020F07DFDE07D36F8100020F084FCD3
:1016500081B2E07D03F09CFF5F4800E041E0E17D66
:1016600030F91100002120F06BFD3220A083E083CF
:10167000E07D5149C0F10100085C552807D0A575EF
:10168000A4F856500021484620F05AFD08E027767D
:10169000A4F85A7001214FF4FB70F5E7A4F85250FA
:1016A000E17D01EB410000EB0112C1F1010101EB11
:1016B000410303EB011108EB820208EB8100B2F950
:1016C0000220B0F9020082420BDB207E012808D103
:1016D000A575A4F856504846BDE8F047002120F013
:1016E0002FBDBDE8F08770B5324C05460026A07DC1
:1016F000F0B9022104F8161F4FF4F870A4F8401056
:1017000020F01EFDC5EB0510810025870D46E18701
:101710004FF4F97020F014FD29464FF4FF7020F0CB
:101720000FFD00206087A0860126304603F0BEFF33
:10173000304670BD10B51F4CA07D022812D104F1B7
:101740001604208F03F0B2FF0020A0862087608758
:101750002070A4F840000146BDE810404FF4F87036
:1017600020F0EEBC10BD70B5184C203C94F8380049
:101770001A4D297808440C2803D9A08F401C01B2C7
:1017800001E0B4F93C10B82020F0DAFC94F83810ED
:10179000287801440C2994F8381000D90C380144F9
:1017A000B62020F0CDFC94F82C001C2818D91C2160
:1017B00018E0000008C007206AC1072024F30720B2
:1017C00014C10720589B0200D0C1072020400240CE
:1017D0000EC10720749B0200549B0200D6C0072054
:1017E00094F82C10B42020F0ABFC04F12004217AF2
:1017F0004FF0AE0020F0A4FC2179B02020F0A0FC36
:101800002178BDE87040B22020F09ABC10B5F848AD
:10181000F84C007830B3F848818FF84A128891422A
:1018200020D190F83810F64A128891421AD190F8D7
:101830002C10F44A1288914214D190F82810F24AE0
:10184000128891420ED190F82410F04A12889142E9
:1018500008D190F82000EE490988884202D1012081
:10186000607602E0607E00280BD0EA480088C0B2B3
:10187000FFF739FF002804D000206076BDE8104053
:1018800071E710BD70B5DB4CA07D02283FD1B4F8E4
:101890004C004FF461610025884212D2401C80B296
:1018A000A4F84C0088420CD3A4F84C50B4F84E0075
:1018B00038B1401E24F84E0F6088401C6080A4F1AF
:1018C0004E04B4F84A003C2821D2401C80B2A4F84F
:1018D0004A003C281BD324F84A5F6089401E01B2AD
:1018E00061814FF4F97020F02BFC6089A4F14A0467
:1018F00000280CD1A5750146A4F856504FF4F87095
:1019000020F01EFCBDE87040002003F0CFBE70BD8B
:10191000C1486FF03B010088C0EB001001EB800074
:10192000B449C88770472DE9F05FDFF8C892BA481C
:101930000026B9F83E10B94F491C09B2A9F83E106B
:10194000B0F90000B64DC0EB00124FF0010B09F1E9
:1019500044044FF00A08B1EB820F51DBF0B3A9F851
:101960003E602670DFF8BCA2667089F810609AF8B5
:101970000000552811D1B5F9020050280DDDB5F948
:101980000800FEF7BDFCB7F90010884203DB95F8AC
:101990003D00C00701D084F800B09AF80100552836
:1019A00011D1B5F94E0050280DDDB5F95400FEF700
:1019B000A7FCB7F90010884203DB95F88900C0073F
:1019C00001D084F801B09848007848B999F811100E
:1019D000484629B1817D41B1022900E010E004D0E0
:1019E0002670667089F8106008E0217801291DD002
:1019F000617801291AD0017C012917D0A9F840602B
:101A00004846B9F94010DFF8EC91DFF820A209F15F
:101A10006009F1B383460246491E08B2A2F84000AD
:101A2000052806DD0F231E22642107E0A9F8408067
:101A3000E6E700281BDD0F231E226921E120FEF7C7
:101A40009FFBBBF84000052811D1B5F90800FEF74F
:101A500057FCA9F80000B5F95400FEF751FCA9F8AD
:101A60000200BAF90000FEF74BFCABF82200614817
:101A7000B0F84000002841D1AB46B5F90800FEF7A8
:101A80003FFC5C4D64352880BBF95400FEF738FC00
:101A900000E038E06880BAF90000FEF731FCDFF8BA
:101AA00054A1AAF82400AAF84260B9F90000B5F9D7
:101AB00000100844B7F90010884202DA20780128A3
:101AC00017D0BBF90200C82804DD002126700846A3
:101AD00003F0D5FAB9F90200B5F902100844B7F9D4
:101AE0000010884202DA6078012805D0BBF94E0068
:101AF0007AE0AAF84280EDE7AAF84280BDE8F09FBC
:101B00006670002106E1B0F94210E9B38046024652
:101B1000491E08B2A2F84200052803DD0F23C8229F
:101B2000642104E000281BDD0F23C8226921E12085
:101B3000FEF726FBB8F84200052811D1B5F90800D8
:101B4000FEF7DEFBA9F80000B5F95400FEF7D8FB5C
:101B5000A9F80200BAF90000FEF7D2FBA8F82200AB
:101B60002448B0F842000028C8D1DFF8B480B8F9A2
:101B70000800FEF7C5FB1F4D64352880B8F95400F6
:101B8000FEF7BEFB688000E058E0BAF90000FEF7FF
:101B9000B7FBDFF86080A8F8240088F80F60B9F977
:101BA0000000B5F900100844B7F90010884202DAC5
:101BB000207801283CD01A48B0F90200C82804DD7A
:101BC00000212670084603F05AFAB9F90200B5F967
:101BD00002100844B7F90010884202DA6078012840
:101BE00029D00F48B0F94E00C82889DC86E70000EC
:101BF000D6C0072008C007200040024078C1072057
:101C000076C1072074C107206EC1072070C107206C
:101C100072C107207AC1072024C1072014C1072000
:101C200024F307206AC10720DDC00720D2C10720A6
:101C300088F80FB0C9E788F80FB05FE78146C07B2E
:101C40000028D3D00F2300226E21E120FEF798FA5E
:101C5000B5F90800FEF754FBB7F90010884207DD1C
:101C60002078012804D100212670084603F007FAE5
:101C7000B5F95400FEF744FBB7F90010884206DDC1
:101C80006078012803D16670002103F0F8F920780C
:101C900030B9607820B999F8101009B989F80F6047
:101CA000E620FEF784FA18B1FF480068E7280AD05A
:101CB000FE48FF49B0F90000B1F9001000EB8000C8
:101CC000B1EB400F92DA89F80F602078F94E0128C5
:101CD0000FD1B7F90000410091FBF8F0B6F9001000
:101CE000884206DA95F83D00C00702D1012103F0D1
:101CF000C6F960780128A0D1B7F90000410091FB36
:101D0000F8F0B6F90010884297DA95F88900C00714
:101D100093D10121BDE8F05F012003F0B0B970B5A7
:101D2000E54CA08F401C00B2A087B0F5E16F02DB4C
:101D30000020A08770BDB0F5DF6F11D90F230122FD
:101D40006421D220FEF71CFA0F230022D821D720CD
:101D5000FEF716FA0F230022D821DC20FEF710FA36
:101D6000B4F93C00A0F5E0610739E3D1D34ED44C7F
:101D7000D44D30882188884205D0B4F90010B5F9D7
:101D8000000020F0DDF9708861888842D2D0B4F973
:101D90000210B5F90200BDE8704020F0D1B910B5CD
:101DA000C94C082200212088401C20802046FEF7D4
:101DB0007CFAC648B4F9001000EB410142880A845D
:101DC000B0F84E00A1F86C0010BD70B5C148C04D10
:101DD000B0F90030C048B5F9002090F900109A42DF
:101DE0001BDABE4C0A290EDABD4BB3F900300F2BBB
:101DF0000BDD491C49B201700A2906DB2280012053
:101E000002F0ECFC01E00A210170B5F90000B4F920
:101E10000010884200DA208070BDFDDD0029FBD073
:101E2000491E49B201700029F6DCBDE8704000206F
:101E300002F0D4BC2DE9F84FDFF8A8B20A21DFF890
:101E40007892BBF80000DFF8A0C2B0FBF1F201FB12
:101E50001202B9F82860DFF894A241F270753AB91D
:101E6000B0F5166F04D0B0F5965F01D0A8425ED1F0
:101E70009F49A04AA04B9AF89C73B1F90010B2F99F
:101E80000020B3F900309D4CDFF874E25046072F74
:101E900024D04E4396FBFCF09A492080B1F906000D
:101EA000504390FBF5F0AEF80000B1F914009649EC
:101EB000584390FBF5F008808548B4F90020028073
:101EC000BEF90010914200DA01808F49B0F900207C
:101ED000B1F90010914232DA018030E000F2A23014
:101EE000DFF8D4C1067847780CF1840C06EB07269E
:101EF0001FFA86F8ACF800808678C77808FB01F8EE
:101F000006EB0726B7B2ACF80270067998FBF5F13C
:101F10009AF8A70307FB02F706EB002080B2ACF8A3
:101F20000400218097FBF5F1AEF80010BFE7774879
:101F30006749B0F90000464396FBFCF00880DFF8E3
:101F4000C481734C4FF4FA67B8F90010B4F900205B
:101F50005E4E4A4392FBF7F1DFF8B8C17180B8F9E1
:101F60000820BCF900104FF42F73514391FBF3F19B
:101F7000B180B8F91820B4F90210514391FBF7F180
:101F8000A6F84E10B8F90210BCF90200484390FBC5
:101F9000F3F0A6F85000DC20FEF729F9D8BB48483A
:101FA000464945F6386E008809884FF49672401A03
:101FB000594945F211644FF47A7CB1F9001041435C
:101FC000BBF80000704503D0A0F5BC43923B02D1A2
:101FD00091FBF2F10CE0A0F5AA43FA3B03D0193BC8
:101FE00001D0A04202D191FBF7F101E091FBFCF19D
:101FF00031813349314B49885B88CB1A4649B1F965
:1020000002105943704503D0A0F5BC43923B03D165
:1020100091FBF2F00DE00EE0A0F5AA42FA3A03D0EF
:10202000193A01D0A04202D191FBF7F001E091FBF7
:10203000FCF0A6F85400B8F90C1040F6B73CA1F239
:102040002132002001244346624501D2307300E072
:102050003473DFF8C88044F6206EB8F900204A4394
:1020600092FBFEF1A1F211117181B3F90E10A1F2F0
:102070002132624502D286F8580001E086F85840C5
:10208000B8F902204A4344F6206192FBF1F1A1F233
:102090001111A6F856102249B1F900202149022A4F
:1020A00042D0042A56D092E00C0000100EC1072046
:1020B000D8C10720DAC1072008C0072000C40720C4
:1020C000AAF10720809B0200D0C1072024F307203B
:1020D000DEC1072010C10720750000102EC40720A4
:1020E000F0C007206CC10720B0AD01008CF50720BF
:1020F00010C407205A00001012C40720E0C10720B6
:10210000E2C10720DC680010E4C1072008C40720F2
:10211000460000104A0000104E00001004C40720C2
:1021200062C10720BCF30720B1F92820052A04DA90
:10213000CA8B12B98A8A72813073B1F95220052A8A
:1021400045DAB1F84820F2BBC98FA6F8561086F8D8
:1021500058003CE0B1F928306FF013084246052BD7
:1021600004DACB8B13B9B1F914203073B1F95230C2
:10217000052B08DAB1F848302BB9B1F93E3093425B
:1021800001DD30731A4612F1140300D07281B1F9E7
:102190007C20052A06DAB1F872201AB9B1F96880F4
:1021A00086F85800B1F9A620052A09DAB1F89C2072
:1021B00032B9B1F99210414502DD86F858008846DF
:1021C00018F1140100E002E001D0A6F85680DFF813
:1021D000E8E3FA4BBEF90410B3F90030594391FB20
:1021E000F7F1F74B1980BEF90A20F649A2F2213324
:1021F000634501D2086000E00C60F34B44F62068B0
:10220000F24FB3F90030534393FBF8F2A2F21112EC
:102210003A80BEF91420A2F22133634501D248600E
:1022200000E04C60DFF8A0E3BEF90230534393FBBB
:10223000F8F2A2F2111212B27A800092DE4AB2F9DA
:102240000620A2F22133634501D2886000E08C6051
:10225000BEF904304FF47A6C534393FBF8F2A2F2C8
:10226000111212B2BA809646DFF86483D94ADB4F66
:10227000B8F80030B2F900205A4392FBFCF2D64B7A
:1022800092B2642A1A8001D3D54A12883A80D14A80
:10229000B8F80270DFF85083B2F902207A4392FB5B
:1022A000FCF25A80CF4AB8F90030DFF840C3B2F9E7
:1022B00000707B4393FBF5F3ACF80030B2F9027089
:1022C000B8F902307B4393FBF5F3ACF80230B8F970
:1022D0000430B2F90470DFF818837B4393FBF5F305
:1022E000ACF80430B2F90670B8F90030DFF804C376
:1022F0007B4393FBF5F3ACF80030B2F90870B8F902
:1023000002307B4393FBF5F3ACF80230B2F90A20BC
:10231000B8F90430B84F534393FBF5F2ACF80420FE
:10232000009A02F2111213B20EF211123B8015B292
:102330007D804A6812F0FF023A728968C9B27972E8
:10234000AE4F04D0012A0ED012B10DD020E011B151
:10235000012910D01CE0591901EBD1726FF488717A
:1023600001EB620113E011B1012908D010E0A5F2E0
:1023700011153D800CE0A3F211133B8008E0A04949
:102380000978052902D29F49098800E01421398083
:102390009D490A78552A06D1B6F90220C82A02DDDD
:1023A0003389A9F83830497855290BD1B6F94E1040
:1023B000C82907DDB6F95410B6F90820914201DDAD
:1023C000A9F83810BBF80010A1F5AC422F3A03D0A1
:1023D000283201D0143A03D18C490A88A9F8382050
:1023E0008B490022B1F900302FE000BFC2EBC201DF
:1023F00001EB41050AEB8501CD78192D1CD28D79B1
:10240000CF7905EB07254D620D7A4F7A05EB07254D
:102410000D628D7ACF7A05EB0725CD610D7B8D623C
:102420004D7B81F852508D7B81F842500D7C4F7C62
:1024300005EB0725CD6406E0C86148620862886242
:1024400081F84200C864521CD2B29A42CEDBB6F97F
:1024500008200A2192FBF1F2B6F95450814695FB0F
:10246000F1F1114449420DB26A4A6B49D4461580D4
:10247000088000200FE000BFC0EBC00606EB460658
:102480000CEB8606F778052F03D2766A0F883E4458
:102490000E80401CC0B29842EEDB0888284400B28F
:1024A0001080002801DAA2F80090DFF870B1DFF8A0
:1024B00070A15C4E002500BFC5EB051306EB830140
:1024C000887B4A7B00EB02200FFA80F8C5EBC50041
:1024D00000EB40020AEB4200B8F1000FA0F80E80BA
:1024E0004F7816F8233007EB03232AF81230CA7806
:1024F0008B7802EB032242800A7982804A79C2807B
:10250000CA798B7902EB032202810A7A02EB02225A
:102510004281CA7A8B7A02EB032282810A7B428251
:10252000CA7BC2824A7C0B7C02EB03228282897CBA
:102530000182B0F9281007D0322912DA491C09B2F9
:102540000185322908D00CE059B1491E09B2018534
:1025500039B9C18C19B904E0C18C012901D08BF8BB
:102560000040283032220021FDF794FE6D1CEDB2B0
:10257000072DA1D396F822102B48642909D00029F1
:1025800005D1017809B18BF8004080F80090BDE8D2
:10259000F88F0470FBE7254A25481178052901D0FA
:1025A000012905D1517819B922490978552945D011
:1025B0002149098846E00000DC680010580000103E
:1025C000D8C10720BC0608200AC4072082C2072001
:1025D00088C20720520000108EC20720F4C10720D5
:1025E000DEC10720020B08208800001094C20720DB
:1025F00042C407209AC2072016070820ECC1072012
:10260000E9C00720F8C107206AC10720D2C107200E
:1026100056C10720DAC107203AC40720ADC0072001
:1026200064F40720400908207400001048C2072005
:10263000B0C00720D7C007207CC10720017800293F
:1026400001D0491E01707047FE48416821F44021C5
:1026500041F480214160416821F4403141F48031EE
:102660004160416821F4404141F480414160416C46
:1026700021F4402141F400214164416C21F44031B6
:1026800041F400314164416C21F4404141F4004186
:102690004164ED48016821F0E0610160016841F4A6
:1026A00000110160016821F480310160016821F4AA
:1026B0007F4141F4807101608115C160E348890365
:1026C000016070472DE9F041E14C60882188401A93
:1026D00000B203F0FBF8A51D2880A0886188401A8D
:1026E00000B203F0F3F86880A0882188401A00B295
:1026F00003F0ECF84FF49672A880A4F18A0190429E
:1027000001DAA0880AE0B5F90200904201DA608897
:1027100004E0B5F90000904201DA2088488591F87C
:1027200002C00023BCF1000F22D0CA48B1F92A2010
:102730000468144404604468144444608468144485
:102740008460C4682244C2604A8E521C12B24A8617
:10275000B2F5805F00DB4B86B1F9322094052FD1B2
:10276000921250F8224024120C8540F8223027E0C3
:10277000B94FC8780C7907EB8015B1F92A2045F8D4
:102780002420A20710D100252A4607EB801600BF9F
:1027900056F82270521CD2B23D44102AF8D32A11A6
:1027A000AC4D203D25F81020401CC0B2C870102848
:1027B00006D3641CE0B2CB700871102800D30B71F3
:1027C0000CF1010C4B701CF001009F4A887005D081
:1027D000106820F0FF00001D106034E0C978080781
:1027E0000028106820F0FF0002DB00F1010001E08A
:1027F00000F1020010609948036843F080530360C1
:10280000036A43F080430362036E43F08063036610
:10281000CB07436908D043F0805343618B07436B78
:1028200005D423F0804304E023F08053F5E743F020
:10283000804343634907416F02D421F0806101E086
:1028400041F080614167106840F080701060BDE821
:10285000F081F0B57E488A38B0F9201019B1A1F1A5
:102860000101018485E000227E4C827313467C497D
:10287000B4F9004011E000BFC3EBC30505EB45050B
:1028800001EB8505AE78012E05D1ED78142D02D22D
:10289000857B6D1C85735B1CDBB2A342ECDB867B06
:1028A000022E66D341F28833C0E91A23002302675F
:1028B00017E000BFC3EBC30505EB450501EB85053C
:1028C000AF78012F0BD16D6A876EBD4200DD856642
:1028D000C76EBD4200DAC566076F3D4405675B1CE5
:1028E000DBB2A342E6DB036F012593FBF6F74767F4
:1028F000C36E03B9C566836E64267343C66E93FBCD
:10290000F6F38367A02B00DD4573782B01DA427361
:102910002FE0407B01282CD100226FF0310326E00C
:10292000C2EBC20000EB400001EB80008578012D76
:102930001BD1456ABD4205DDB0F85050A5F1010537
:10294000A0F8505005DAB0F8505005F10105A0F894
:102950005050B0F950509D4202DAA0F8503004E0D7
:10296000322D02DD3225A0F85050521CD2B2A242C4
:10297000D6DB00BFF0BD2DE9F041324801683A4A8C
:1029800011400160354C216841F47C712160C169BE
:1029900021F44021C161216E41F00071216641683E
:1029A00021F040614160206840F0005020603048D4
:1029B0002E4B314902782F4893F83C50B1F9001062
:1029C0000078154307D030B1052904DDA56945F429
:1029D0008075A56103E0E56945F48075E56193F8CC
:1029E0008830134307D030B1052904DDA06940F0D9
:1029F0004000A06103E0E06940F04000E061D220C7
:102A0000FDF7F5FB1D4D48B16868012801D028B1DC
:102A100008E0A06940F00050A06103E0E06940F0E8
:102A20000050E061D220FDF7E2FB154E10B128689E
:102A3000662837D03068C00798B3E06F40F0007068
:102A4000E0671FE000C002400040034000E100E0FA
:102A500092C00720FC680010DC64001000C0092050
:102A60008CF5072056C10720FF00F0FF24F3072054
:102A700043000010B3C00720F0C007200C00001076
:102A80002C000010D220FDF7B2FB10B128686C2892
:102A90000FD03068800711D4E06940F01000E06189
:102AA00010E001E06868C7E7A06F40F00070A06721
:102AB000C7E768680028EFD0012803D1A06940F07B
:102AC0001000A061D220FDF792FBFD4FDFF8F483E8
:102AD00010B128686D280AD0387802280DD03068E7
:102AE00040070ED4E06940F40070E0610DE06868D2
:102AF0000028F7D0012804D007E098F8000000284B
:102B0000F0D0A06940F40070A061D220FDF76FFB07
:102B100010B128686A2804D0306810F4FF6F05D01F
:102B200009E0686810B1012805D008E0E06940F0CC
:102B30008000E06103E0A06940F08000A061D22045
:102B4000FDF755FB10B128686B2806D038780128AE
:102B50000FD0DD48007838B901E06868FBE7A0696C
:102B600040F02000A06172E6E06940F02000E061E2
:102B70006DE698F800000028F6D0F0E72DE9F05F48
:102B8000D14C00264FF00108207D0A2807D2401CB6
:102B9000C0B220750A2802D3267584F81580A4F8DF
:102BA0004660A4F84860CD20FDF721FBC74DDFF853
:102BB0002093A8B3C7484FF6FF720168CE2908D00A
:102BC000CF2909D0D12909D0D2290BD0D0290CD0B6
:102BD00011E0A4F848200EE040680AE04068A4F83C
:102BE000460008E0A4F8462005E04068A4F8460046
:102BF000C043A4F84800002730E000BF08FA07F0FF
:102C0000B4F8481083460842C7EBC70000EB400009
:102C100005EB800005D030F8401F491C018002E020
:102C200021E0A0F84060C7EBC70000EB400005EBD7
:102C300080008246403032220021FDF72BFBBAF99A
:102C40004000142801DD8AF82C80B4F846101BEAF5
:102C5000010F01D08AF82C607F1CFFB2B9F9000087
:102C60008742CBDD46E0607DB8B30021084643468D
:102C7000B9F900200AE000BFC0EBC00707EB470727
:102C800005EB8707401C87F82C30C0B29042F3DD7B
:102C9000914B0020B3F9003014E000BFC0EBC00737
:102CA00007EB470705EB870797F802C0BCF1020F57
:102CB00002D0BCF1010F03D1491C87F82C60C9B2C6
:102CC000401CC0B2904201DA9942E7DB8348B0F978
:102CD00000003C280EDA00200AE00BE0C0EBC00147
:102CE00001EB410105EB8101401C81F82C60C0B271
:102CF0009042F3DD00206323B9F900100EE000BF1D
:102D0000C0EBC00202EB420205EB8202D76B1FB19F
:102D100082F82C307F1ED763401CC0B28842EFDBA4
:102D20006675667400200DE0C0EBC00202EB420243
:102D300005EB82029278012A02D1627C521C6274F5
:102D4000401CC0B28842EFDBBDE8F09F2DE9F041A6
:102D50000746C0EBC7005D4900EB400011F820209A
:102D6000032A73D101EB800494F84250A807B4F908
:102D7000460010D54FF4966188421ADA401C00B222
:102D8000A4F84600884214DBA4F846106078C00717
:102D90000FD1012209E060B1401E00B2A4F8460044
:102DA00038B96078C00704D000220021384601F00D
:102DB0005BFE2807B4F948004FF00A064FF0000107
:102DC0000ED50A281FDA401C00B2A4F848000A28D1
:102DD00019DBA4F848606078800714D4012209E068
:102DE00000280DDDA0F1010000B2A4F8480050B9A0
:102DF0004FF000024FF00101384601F035FE02E0CD
:102E000001DAA4F84810E806B4F94A000ED50A28F9
:102E100017DA401C00B2A4F84A000A2811DBA4F813
:102E20004A60607840070CD4012206E048B1401E99
:102E300000B2A4F84A0020B900220221384601F06D
:102E400013FE6078000702D0042012E028E0244836
:102E5000007820B1E078142801D9052009E094F821
:102E60004200800601D5022003E0E078142801D258
:102E70000120A070E0780A2894F82C0002D340F0DA
:102E8000800001E000F07F000F4984F82C00B4F9C5
:102E90005000B1F91C10084420634FF47A7060634D
:102EA000D5E470B50F4900200F4DB1F90C20012178
:102EB000034600BF01FA00F4224217D0295416E05D
:102EC000D2C00720FEC3072008C007208CF50720CA
:102ED00056C107200C0000107C000010F0C0072035
:102EE000DDC00720020B0820340708202B54401CAB
:102EF000C0B20C28DED3F84C2878F84E21788142F5
:102F00000CD0B6F90010012908DB01287ED000237F
:102F100001220B21F2A000BF1DF0A0FB61786878B0
:102F200081420BD0B6F90010022907DB01286ED0D0
:102F3000002302220B21EFA01DF090FBA178A878BE
:102F400081420BD0B6F90010032907DB01287CD0A1
:102F5000002303220B21ECA01DF080FBE178E87830
:102F600081420BD0B6F90010042907DB012872D08A
:102F7000002304220B21E9A01DF070FB21792879A0
:102F800081420BD0B6F90010052907DB012867D074
:102F9000002305220B21E6A01DF060FB6179687912
:102FA00081420BD0B6F90010062907DB01285CD05E
:102FB000002306220B21E3A01DF050FBA179A87984
:102FC00081420BD0B6F90010072907DB012851D048
:102FD000002307220B21E0A01DF040FBE179E879F6
:102FE00081420BD0B6F90010082907DB012846D032
:102FF000002308220B21DDA01DF030FB217A287A66
:1030000081420FD0B6F90010092901E013E017E062
:1030100008DB012838D0002309220B21D8A000BFEB
:103020001DF01CFB0020295C2154401CC0B20C2860
:10303000F9D370BD09E001231A460B21D5A06BE737
:10304000012302220B21D8A076E7012303220B21C2
:10305000DAA081E7FFE7012304220B21DCA08BE744
:10306000012305220B21DFA096E7012306220B2175
:10307000E1A0A1E7012307220B21E4A0ACE7012393
:1030800008220B21E6A0B7E7012309220B21E9A0C2
:10309000C6E770B5C820FDF7AAF8EB490022A0B337
:1030A000EA4C01232068C92803D0CA28104611D051
:1030B0002CE0002000EB400404EB001411F8245035
:1030C000322D02D26D1C01F82450401CC0B20228DF
:1030D000F0D325E0D4F8045003FA00F4254200EBC5
:1030E000400409D004EB001611F82640322C07D218
:1030F000641C01F8264003E004EB001401F82420CE
:10310000401CC0B20228E7D30AE01FE000EB4004F5
:1031100004EB0014401CC0B201F824200228F5D3AF
:103120005FF0000000EB400404EB001411F82450A1
:1031300001EB8404142D02D984F83C3001E084F8BA
:103140003C20401CC0B20228ECD372E700EB4003E5
:1031500003EB0013401C01F8232001EB8303C0B2F2
:1031600083F83C200228F1D363E72DE9F041B84F02
:10317000B848B94CB7F90010B0F90020B4F9000014
:10318000914202DD00F1010002E002DAA0F101004B
:10319000208006220021B048FDF77CF8B4F9001029
:1031A000AE480126052900DD06700024012900DA59
:1031B0000470AB48B7F90010AB4DB0F90020A94836
:1031C000931E99420BDA90F900201E2A16DA521C3F
:1031D00052B202701E2A11DB2A88521E0CE0914264
:1031E0000BDD90F900201E2A08DA521C52B2027040
:1031F0001E2A03DB2A88521C2A8004709B48B8468A
:10320000B0F90000814201DD142203E098480088F3
:10321000093002B200219448FDF73CF8F020FCF799
:10322000E6FF28B189480168F12901D1406828806A
:10323000B5F900108F48012901DC067000E0047028
:103240008D488E4FB0F90000A0F1320128291BD81B
:10325000B8F900108A4D814202DD2888401C288080
:103260008848B0F90000814202DA2888401E288090
:10327000062200218248FDF70DF8B5F90000052867
:1032800000DD3E70012800DA3C707F487F4FB0F9C6
:103290000000A0F132011E291BD8B8F900107C4DA6
:1032A000814202DD2888401C28807A48B0F900005D
:1032B000814202DA2888401E2880062200217448B4
:1032C000FCF7E8FFB5F90000052800DD3E70012895
:1032D00000DA3C7047E40000160B082060C10720AC
:1032E0004176746F6D6174202331206973204F46DD
:1032F000460000004176746F6D61742023322069AE
:1033000073204F46460000004176746F6D61742053
:103310002333206973204F46460000004176746FC6
:103320006D6174202334206973204F4646000000ED
:103330004176746F6D6174202335206973204F4688
:10334000460000004176746F6D6174202336206959
:1033500073204F46460000004176746F6D61742003
:103360002337206973204F46460000004176746F72
:103370006D6174202338206973204F464600000099
:103380004176746F6D6174202339206973204F4634
:10339000460000004176746F6D617420233120690E
:1033A00073204F4E200000004176746F6D617420D1
:1033B0002332206973204F4E200000004176746F45
:1033C0006D6174202333206973204F4E200000006C
:1033D0004176746F6D6174202334206973204F4EE1
:1033E000200000004176746F6D61742023352069E0
:1033F00073204F4E200000004176746F6D61742081
:103400002336206973204F4E200000004176746FF0
:103410006D6174202337206973204F4E2000000017
:103420004176746F6D6174202338206973204F4E8C
:10343000200000004176746F6D617420233920698B
:1034400073204F4E2000000024F307200C000010D2
:10345000ECC1072034C107208E000010440000108A
:1034600036C1072042000010FCC1072038C10720E8
:10347000F6C10720FCC307203EC10720430000100F
:1034800048C4072040C107203AC10720FDC30720D8
:10349000900000103CC107202DE9FC5F0546FF4865
:1034A00030F9151011B1491E20F81510FB49091DFE
:1034B00031F9152012B1521E21F8152005EB4502F5
:1034C00002EB0513F64A02EB8304F64AB4F908301E
:1034D000B2F900606422B34201DD20F81520002B10
:1034E00001DA21F81520ED4A30F815307C3A002633
:1034F0004BB131F8153033B1B2F85E30B3B140F6AC
:10350000B830A2F85C00A2F85C6094F83E00401C61
:10351000C0B284F83E000A2801D384F83E60E24F2E
:10352000DFF888833888322809D017E04FF4167303
:10353000A2F85E3020F8156021F81560E3E794F8F2
:103540003C00F8B9B4F9020050281BDA94F83D00A9
:10355000C00717D10121284601F091FDB7F90000FD
:10356000C8280FDDB4F90800FCF7CAFEB8F900104E
:10357000884207DD94F83D00C00703D000212846AB
:1035800001F07DFDB8F90000B4F908104042814215
:1035900012DD607B0A280CD2401CC0B260730A287E
:1035A00075D3A07B002872D0A673284601F017FCC3
:1035B0006DE00A2060736AE069DA607BF0B3401E58
:1035C00010F0FF00607362D1A07BB8BB0120A07334
:1035D000B748B84F0088401C00F0070004EB4000DB
:1035E000008CADF80400B88B8DF800004FF063023A
:1035F0004FF001016846FCF742FE04F11C049DF8FF
:1036000000002076387E8DF800004FF00C024FF05D
:1036100001016846FCF733FE9DF800006076387BB8
:103620008DF800001F2201216846FCF728FE9DF856
:103630000000A0769DF80400E07600E027E0387AEC
:103640008DF80000172200216846FCF718FE9DF84F
:103650000000207738798DF800003B220021684671
:10366000FCF70DFE9DF80000607738788DF80000BB
:103670003B2200216846FCF702FE9DF80000A0777F
:103680009DF80500E07726806680A4F11C0448F6CA
:10369000A04894F83E0088BBB4F908006169DFF8DF
:1036A00018A20844DFF8149245F2555B606140456A
:1036B00025DB39F915205A4503D1814830F81570BA
:1036C00001E039F815703AF815001EF045FC80B29B
:1036D000B8420AD2616900F10100A1F50041A1F5EB
:1036E0004A6161613AF915202BE031D93AF91500A8
:1036F00039B21EF025FDC4F8148029E051E071496B
:10370000884225DC39F915205A4503D16C4830F838
:10371000157001E039F815703AF815001EF01CFC20
:1037200080B2B84205D93AF9150039B21EF008FD49
:10373000384658B16269401E02EB080161613AF9EE
:10374000152001B210461EF0FBFC01E05D486061EF
:103750003AF815001EF000FC014639F915005845ED
:1037600002D1574830F915004FF47A72514308B12D
:10377000B1FBF0F00A21B0FBF1F020825248008842
:10378000012808D1C5EBC500504900EB400001EB12
:103790004000408A208204F1100064220021FCF7DE
:1037A00079FDA07B012813D1A08B4746B8420ED2E9
:1037B000B4F90800FCF7A4FDA18B084480B2A083F3
:1037C000B84205D3A683E08B401CE08300E0A683CB
:1037D0003F49B4F90A00B1F90010884201DD207BAD
:1037E000E8B3B4F84000401EA4F840004FF4167946
:1037F00004F140004A460021FCF74CFDB4F94000BA
:1038000040F24E27B84205DB94F83F1041F0010129
:1038100084F83F100A2805DC94F83F0020F00100EE
:1038200084F83F002B49B4F90A00B1F9001088422E
:1038300001DD207B80B3B4F84200401EA4F84200B2
:1038400004F142004A460021FCF724FDB4F942008D
:10385000B84207DB94F83F1041F0020100E041E07C
:1038600084F83F100A2805DC94F83F0020F002009D
:1038700084F83F00606C40453CDA401C6064404581
:1038800039DB6664144C34F815001EF065FB401CEF
:1038900001B234F9150021E028E0000084C00720BF
:1038A00024F307201CC10720EEC0072014C1072005
:1038B000D0C1072020400240549B020030C20720A4
:1038C00028C207206073FFFF52C1072064F407205D
:1038D0002EC107202CC10720709B0200BDE8FC5FB1
:1038E0001EF02EBCB4F84000401C7DE7B4F8420046
:1038F000401CA3E76664BDE8FC9F2DE9F84FFB4C34
:103900000021A0790A2807D2401CC0B2A0710A2861
:1039100002D3A17101202072E079052805D2401C54
:10392000C0B2E071052800D1E171BE20FCF75FFC58
:10393000EF4928B1EF480268BF2A1AD1406882E0F7
:10394000207A002815D0EC4BEC481A78552A04D080
:103950005A78552A01D0008875E0E948DFF8A4A319
:10396000E94DB0F90000E94ADFF8A49310B101284D
:1039700049D069E0AB464FF0140C6D466FF0130769
:103980001E5C552E0FD025F81070401CC0B20228C6
:10399000F6D3BDF90050BDF90230DE489D4214DD7A
:1039A0002B46056012E000EB400606EB00180BEB1F
:1039B000880696F80C80B8F1000F02D025F810C0E8
:1039C000E3E7768925F81060DFE70360002B02DA71
:1039D000B2F9000011E0282B01DD28230360B9F9BA
:1039E0000050B2F900300068EA1A02EB820252007D
:1039F0004243C82092FBF0F01844A27D022A22D153
:103A0000BAF900001FE06888401D0880A07D0228E8
:103A100002D1BAF800000880B1F90030B2F9000014
:103A2000834200DB0880B1F90020B9F9000082422E
:103A300000DB0880B848808C30B1B1F900204FF429
:103A4000FA70824200DB0880B1F900006221414334
:103A5000642291FBF2F1B14B19806621484390FB3F
:103A6000F2F0AF490880BDE8F88F2DE9F0419F4C96
:103A7000B4F9260008B1401EE084AA48AA4DA24E1F
:103A800000882880B6F908000A27002806DAFCF723
:103A900037FC90FBF7F0298808442880B6F95400D9
:103AA000002806DAFCF72CFC90FBF7F02988084484
:103AB00028809E49B5F900009D4AB1F900103C23C9
:103AC00090FBF1F1491CC9B2A174B2F9002090FB3E
:103AD000F2F0401CC2B29748E274B0F90050A9421B
:103AE00001DD018004E0AA4203DAE18C09B9028019
:103AF000E38491490A8891490AB10A880280B1F9A0
:103B00000020BDE8F04101218A48FCF7C3BB2DE944
:103B1000F05F8B48754CB0F900006087B4F95C1019
:103B200011B1491EA4F85C10B4F95E1011B1491E20
:103B3000A4F85E1074494FF00A0891F83F209207EC
:103B400003D191F88B10890702D090FBF8F06087C1
:103B5000607A4FF000094FF0010A0A2808D2401C91
:103B6000C0B260720A2803D384F8099084F80AA0CE
:103B7000E120FCF73CFB734F5D4BDFF8CCB1D0B3D9
:103B80005C480168642908D069290AD06E290CD0E4
:103B9000E5291ED0E6291ED008E14068E18B0844E3
:103BA00003E14068E18B081AFFE0A08B401E00B2E1
:103BB000A0831E2806DD6549B7F90000B1F90010A1
:103BC000884205DA0A230022E721E620FCF7D8FA2A
:103BD000ECE04068E9E0B7F90000B3F90010884272
:103BE00012DDA0EB01000A2806DDB4F91C00002854
:103BF00002DD401FD9E01CE0B4F91C00002836D0DB
:103C0000A17AA1B3401ED0E031DA081A0A2807DDF4
:103C1000B4F91C0040F2F731884201DA401DC4E0DB
:103C2000B4F91C00B0F57F7F21DAA17AF9B1401C0C
:103C3000BBE0A07AD8B14648008818B19BF8A3022F
:103C4000282814D9B4F91E00E086B4F93810628F20
:103C500091FBF8F5B5EB420F7CDC0DDAC2EB0216F6
:103C60008E4209DAB4F85C1021B1401E94E09DE068
:103C70000A3891E0C01E8FE0C2EB02168E4201DDD1
:103C80009542F2DCB7F90050B3F900301F4F204ED7
:103C90009D4266DAB7F90070B6F90060A7EB060638
:103CA000A3EB0607AF4215DD00291ADAB4F85C1061
:103CB00071B90A3070E000BFB4F85C1041B94AE055
:103CC000C2EB421303EB8212B2FBF8F28A4264DDCC
:103CD000401C61E0F71706EB9776A3EBA606AE4211
:103CE0003BDD02EB82038B42EADDE5E708C00720FB
:103CF000EEC107200C0000106AC107201EC107207A
:103D000052C1072016C1072024F3072004C1072051
:103D100006C107208000001064F4072038C4072083
:103D20007A0000103AC407208400001018C1072050
:103D30001AC107207C0000102AC1072056C10720A5
:103D40001CC10720D8C107208CF507200EC1072011
:103D500000C207200EE0801C1EE05B1E9D42AFDB10
:103D60001BE01ADDB7F90010B6F90020891ACA184D
:103D7000AA4205DAB4F85C1000293FF479AF74E781
:103D8000CA1701EB927103EBA101A94219DAB4F849
:103D90005C100029F3D1801EE08640F2F2320A2145
:103DA000FF48FCF777FAE08EE083A083FD4884F8B3
:103DB0000C9084F80B904D4659465246B0F90030AD
:103DC00010E05B1C9D42DADCE7E700BFC0EBC006F9
:103DD00006EB460601EB8606F6781E2E00D222730D
:103DE000401CE072E07A9842F0DB207B20B94FF46F
:103DF0001670A083E083E086E94840F2F2320A219F
:103E00001A38FCF747FAA572BDE8F09F2DE9F05F7C
:103E1000E74E0020E449DFF894834FF00A0B824616
:103E2000B6F9003024E0E34AE34C125C34F9122086
:103E3000B2F5FA6F0A560DDA0A2A08DA521C52B2A3
:103E40000A540A2A12DB012208F800200EE001F8C9
:103E500000B00BE0002A07DB521E52B20A54002ABF
:103E600004DC08F800A001E001F800A0401CC0B28A
:103E70009842D8DB0024DFF84493D14DD14F71E054
:103E8000D14830F81400002818F8040001D078B1A7
:103E900001E001280CD019F90400002818DB401EAD
:103EA00040B209F80400002814DC05F804A011E071
:103EB00019F904100A2908DA491C49B209F8041052
:103EC0000A2907DB0120285504E009F804B001E0C5
:103ED00009F804A0395D285D81423FD0B04A363AE6
:103EE000918E491C9186012807D014B3012C25D04E
:103EF000022C28D0032C2BD030E034B1012C09D077
:103F0000022C0CD0032C0FD028E001231A460F21DD
:103F1000AEA021E0012302220F21AFA01CE001236B
:103F200003220F21AFA017E0012304220F21B0A02C
:103F300012E0002301220F21B0A00DE00023022295
:103F40000F21B3A008E0002303220F21B5A003E056
:103F5000002304220F21B8A01CF080FB285D3855F7
:103F6000641CE4B2B6F90000844289DB4CE7B7492F
:103F7000B74A0120087010704870507070472DE9E2
:103F8000F05FB548DFF8D4E2DFF8C8C2B0F90070DE
:103F9000BEF90000824CC0EB0011363CBCF9025067
:103FA0006FF01D0A6FF0950B0026DFF8A082B4F9C0
:103FB0003E000AEB81020BEB8103BD4204DCA84FFB
:103FC000B7F90070BD4205DA824203DD834201DAAF
:103FD00088F80060A34DE146BCF908C0B5F900506F
:103FE0009B4FBCEB450F03DC6D42BCEB450F04DA85
:103FF000824202DD834200DA3E706FF0090202EB7A
:1040000081017546814220D1A07DF0B998F8000069
:1040100001281AD13878012817D14FF4D6701DF035
:104020009BFF9149B1F9001088420ED08F4800885B
:1040300058B199F83D00C00707D14FF4D6701EF073
:104040007FF88B480178491C01708349B9F9022037
:104050004846B1F900108A4206DC8149B0F94E2089
:10406000B1F900108A420FDAB5F90010B4F93E2018
:10407000C1EB01110AEB8103934205DD0BEB8101DA
:10408000914201DA88F801607649B9F95400B1F932
:104090000010B0EB410F03DC4942B0EB410F0EDAE8
:1040A000B5F90000B4F93E10C0EB00100AEB800235
:1040B0008A4204DD0BEB8000884200DA7E70B5F99D
:1040C0000000C0EB00116FF0090000EB8100B4F9B3
:1040D0003E10884222D1A07D00BB98F80100012843
:1040E0001CD17878012819D14FF4E57630461DF0BF
:1040F00033FF02465C48B0F902108A420ED05B489A
:10410000008802280AD199F88900C00706D13046F4
:104110001EF016F856480178491C0170B5F90000E8
:104120006FF00101C0EB001001EB8000B4F93E100C
:10413000884202D1BDE8F05F19E765E62DE9F0039A
:104140004C484D4ADFF834C100784FF000084FF07A
:10415000010910B34A486146B0F900604948B1F915
:104160000010B0F900704848BE42B0F9003047482E
:10417000B0F900404648B0F900504648B0F9000098
:104180000CDA834203DB844201DB854206DA4248D3
:10419000B0F90000814202DA80E0A9E087E097E010
:1041A0003EC0072056C1072030C407200DC207209B
:1041B0005CC107204F9B0200DC68001076000010F5
:1041C00011C2072034C40720A8C20720534B202364
:1041D0003120416C61726D00534B20233220416CC1
:1041E00061726D00534B20233320416C61726D006E
:1041F000534B20233420416C61726D00534B2023BC
:104200003120416C61726D206973206F6666000019
:10421000534B20233220416C61726D206973206FF3
:1042200066660000534B20233320416C61726D2081
:104230006973206F66660000534B20233420416C65
:1042400061726D206973206F666600003CC40720B0
:104250008600001024F307207A00001024C10720F4
:1042600038C4072014C1072030C2072054C10720DA
:104270003EC40720D2C00720FEC307204AC407203F
:10428000D8C1072048C10720E0C10720E2C10720AC
:10429000E4C1072010C1072046C10720491C09B20C
:1042A000ACF80010814213D182F8008013E0A74FD0
:1042B000B7F90070BE420BDD834209DD844207DDA1
:1042C000854205DD21B1491E08B2ACF8000050B1AD
:1042D0001078002809D1BDE8F0030F2301226E21D8
:1042E000D220FBF74DBF82F80090BDE8F003704785
:1042F000ACF80080F7E72DE9F04F9548DFF85482DD
:1043000096490378944898F90020B1F90010B0F963
:10431000000088B023B1022B33D0012B7ED0FCE00B
:104320008F4E904B347896F801C0B3F90A501F7B3A
:10433000B3F9566093F8583022B1012A0FD1552CA9
:1043400014D10FE0552C03D1854268DC002F66D1D3
:10435000BCF1550F03D1864261DC002B5FD108B060
:10436000BDE8F08F8D42FADA002FF8D1BCF1550F7D
:104370007ED18E42F3DA002B7AD0F0E788F8000085
:10438000EDE77A4C784B94F803C0B3F90030A76A94
:10439000E56F009594F857500195D4F8D0500295E8
:1043A00094F8AB500395D4F82451049594F8FF5039
:1043B0000595D4F87851069594F85351AE46D4F843
:1043C000CC51079594F8A751D4F87462AB46D4F851
:1043D0002052B146AA4694F8FB5194F84F42DBB301
:1043E00087421CDCBCF11E0F19D2012B05DD009E9B
:1043F000864214DC019E1E2E11D2022B05DD029E88
:1044000086420CDC039E1E2E09D2032B05DD049E82
:10441000864204DC059E1E2E7FD201E05BE07CE03C
:10442000042B05DD069E864277DCBEF11E0F74D29A
:10443000052B05DD079E86426FDCBBF11E0F6CD29B
:10444000062B03DD824568DC1E2D66D2072B03DDBB
:10445000814562DC1E2C60D2012A80D143B18F429B
:104460008BDABCF10A0F88D2022B2DDB009800E01A
:104470006AE0884284DA01980A28F4D2032B23DB0D
:1044800002988842ECDA03980A28ECD2042B1BDB52
:1044900004988842E4DA05980A28E4D2052B13DB55
:1044A00006988842DCDABEF10A0FDCD2062B0BDB61
:1044B00007988842D4DABBF10A0FD4D2072B03DB6A
:1044C0008A45CDDA0A2DCED2082B3DDB8945C7DAE5
:1044D0000A2C39D343E7274C254BB4F90050B4F9E3
:1044E0000260AA46244DB3F90030B4F90440D5E97E
:1044F00000C7AD68B94693B182450EDCBCF1000F30
:104500000BD1012B04DD864207DCB9F1000F04D189
:10451000022B04DD844200DC0DB101202EE7012ACC
:10452000D8D18BB18A45D5DABCF1000FD2D1022B9C
:1045300004DB8E42CEDAB9F1000FCBD1032B03DBC3
:104540008C42C7DA002DC5D1002017E74AC10720E9
:10455000D1C0072008C0072042C1072044C107205E
:104560006AC1072024F3072056C107208CF50720D5
:104570005AC1072082C20720BC06082070B5F9483E
:104580000278F948016812B141F0010101E021F01F
:1045900001010022F54C01605FF0010102EB4203D2
:1045A00003EB021304EB830393F83D30DB0706D0E3
:1045B000551C01FA05F305689D431D4304E0531C97
:1045C000056801FA03F39D43521CD2B20560022A2A
:1045D000E4D3E74C002200BFC2EBC20303EB43036A
:1045E00004EB83035B7833B1D51C01FA05F305684E
:1045F0009D431D4303E0D31C01FA03F39D43521C6A
:10460000D2B205600C2AE7D32A46D74D00231435D1
:10461000EC5C34B103F10F0601FA06F4A243224325
:1046200004E003F10F0401FA04F4A2435B1CDBB2C3
:10463000062BEDD3CF4D00230260EC5C012C2FD074
:1046400003F1190401FA04F4A2435B1CDBB2042B4E
:10465000F3D30260836822EA0301C16044680C431B
:10466000C54944600D8815B124F0007444604C883D
:104670001CB1446824F0806444608C881CB1446898
:1046800024F000644460C98819B1416821F0805168
:1046900041609343D943B94B01611B883BB109E0A9
:1046A00003F1190601FA06F4A2432243CDE761F0B3
:1046B00001010161036941681940C0E9011270BD3F
:1046C000F8B54FF4606528461DF046FC401C0446D2
:1046D0003F2800D9002421B228461DF031FD40F6C4
:1046E000026630461DF038FC3F2800D0204601B25B
:1046F00030461DF025FD28461DF02EFC4FF480614C
:1047000001EB4010054655208DF8000000268DF87D
:10471000016052208DF802008DF80360694628463A
:104720001DF093FD6946281D00961DF08EFD944CEA
:10473000A08B8DF80000207E8DF80100207B8DF885
:1047400002008DF80360694605F108001DF07DFD4B
:10475000207A8DF8000020798DF8010020788DF8FE
:1047600002008DF80360694605F10C001DF06DFD37
:1047700041248DF800408DF801408DF802408DF8FD
:104780000340694605F110001DF05FFD8DF8004003
:104790008DF801408DF802408DF80340694605F11F
:1047A00014001DF052FD8DF800408DF801408DF889
:1047B00002408DF80340694605F118001DF045FDE3
:1047C0008DF800408DF801408DF802408DF80340CF
:1047D000694605F11C001DF038FDF8BD2DE9F843D0
:1047E000674D604A203D00262F154FF46061012877
:1047F00002D000287DD034E10120107088460846A0
:104800001DF0AAFB401C04463F2800D9002421B219
:1048100040461DF095FC40F6026948461DF09CFBA1
:104820003F2800D0204601B248461DF089FC404692
:104830001DF092FB07EB401750208DF800008DF81B
:10484000016041248DF802408DF8036069463846C6
:104850001DF0FBFC6946381D00961DF0F6FC05F1C5
:104860002005A88B8DF80000287E8DF80100287B9C
:104870008DF802008DF80360694607F108001DF00D
:10488000E4FC287A8DF8000028798DF8010028785A
:104890008DF802008DF80360694607F10C001DF0E9
:1048A000D4FC8DF800408DF801408DF802408DF861
:1048B0000340694607F110001DF0C7FC8DF8004069
:1048C0008DF801408DF802408DF80340694607F1EC
:1048D00014001DF0BAFC8DF800408DF801408DF8F1
:1048E00002408DF80340694607F118001DF0ADFC49
:1048F00000E011E08DF800408DF801408DF8024095
:104900008DF80340694607F11C001DF09EFC002352
:10491000012202211BA0A2E013481670B0460268D3
:1049200022F001020260154A12881AB1426822F090
:104930000102426008461DF00FFB06463446B946A8
:1049400009EB4417694638461DF083FB9DF80000CB
:1049500050283CD19DF80100C8BB9DF802004128B9
:1049600035D11FE0DDC007202800001024F3072008
:104970008CF5072011C20720B8C207200CC1072000
:10498000204002404D61696E20706F77657220692A
:1049900073206F6666000000641E00E03F24B4428E
:1049A000CED15EE0694607F110001DF052FB9DF884
:1049B000000041280BD19DF80100412807D19DF846
:1049C0000200412803D19DF80300412802D0002CA9
:1049D000E4D0E1E705F12005A88B8DF80000287EE2
:1049E0008DF80100287B8DF8020044468DF8038085
:1049F000694607F110001DF028FC287A8DF80000A8
:104A000028798DF8010028788DF802008DF8034090
:104A1000694607F114001DF018FCFF484224017894
:104A20008DF8001040788DF801008DF802408DF867
:104A30000340694607F118001DF007FC8DF800409F
:104A40008DF801408DF802408DF80340694607F16A
:104A50001C001DF0FAFB01231A460221EFA01BF0F7
:104A6000FDFD00BFBDE8F8832DE9F84F05460C00B9
:104A70004FF054060BD0012C04D0022C04D0032C90
:104A800004D004E0552602E0752600E04C26E949F2
:104A9000C5EBC503DFF898A303EB43034FF0000B0E
:104AA0004FF460604FF4806901EB8301012A02D06A
:104AB000002A7DD090E134B1012C08D0022C0AD01C
:104AC000032C0CD00FE04A7842F001020AE04A7849
:104AD00042F0020206E04A7842F0040202E04A781C
:104AE00042F008024A7081F8534080461DF034FAC3
:104AF000401C87B23F2F00D9002739B240461DF035
:104B00001FFB40F602601DF027FA80B23F2800D05C
:104B1000384601B240F602601DF012FB40461DF01F
:104B20001BFA09EB401087B253208DF800008DF876
:104B300001508DF80260D8468DF803B069463846BA
:104B40001DF083FB6946381DCDF800801DF07DFB0C
:104B5000BAF83C000AF120068DF80000307E8DF88E
:104B60000100307B8DF802008DF80380694607F163
:104B700008001DF06AFB307A8DF8000030798DF85E
:104B8000010030788DF802008DF80380694607F146
:104B90000C001DF05AFB41268DF800608DF8016075
:104BA0008DF802608DF80360694607F1100000E09F
:104BB00084E01DF04AFB8DF800608DF801608DF8EF
:104BC00002608DF80360694607F114001DF03DFB9B
:104BD0008DF800608DF801608DF802608DF803603B
:104BE000694607F118001DF030FB8DF800608DF864
:104BF00001608DF802608DF80360694607F11C00C2
:104C00001DF023FB25B1012D20D0022D3AD0E3E089
:104C100034B1012C09D0022C0CD0032C0FD0DBE0D6
:104C200000230122042184A00DE001231A4604215F
:104C300087A008E00223012204218CA003E00323C3
:104C40000122042191A01BF009FDC5E034B1012C23
:104C500009D0022C0CD0032C0FD0BDE0002302227F
:104C6000042192A0EFE701230222042195A0EAE7A4
:104C700002231A4604219AA0E5E703230222042115
:104C80009FA0E0E734B1012C09D0022C0CD0032CFA
:104C90000FD0A1E0002303220421A1A0D3E7012328
:104CA00003220421A4A0CEE7022303220421A9A009
:104CB000C9E703231A460421AEA0C4E734B1012C8E
:104CC00008D0022C0AD0032C0CD00FE04A7822F036
:104CD00001020AE04A7822F0020206E04A7822F055
:104CE000040202E04A7822F008024A701DF034F90A
:104CF00084B2A04609EB441087B2694638461DF0DD
:104D0000A8F99DF80000532824D19DF80100A8427D
:104D100020D19DF80200B0421CD1694607F1100075
:104D20001DF097F99DF80000412813D106E0641E9C
:104D3000A4B200E03F244445DCD14DE09DF80100E1
:104D4000412807D19DF80200412803D19DF80300B6
:104D5000412802D0002CEDD0E9E7BAF83C000AF176
:104D600020048DF80000207E8DF80100207B8DF856
:104D700002005D468DF803B0694607F110001DF092
:104D800064FA207A8DF8000020798DF801002078EF
:104D90008DF802008DF80350694607F114001DF0EC
:104DA00054FA42248DF800408DF801408DF80240FD
:104DB0008DF80340694607F118001DF046FA8DF89A
:104DC00000408DF801408DF802408DF8034069469F
:104DD00007F11C001DF039FA00BFBDE8F88F2DE97E
:104DE000FC41064600EB460000EB0611694800EB6B
:104DF0008104E08B05280DD367484FF46067008875
:104E0000801D00F0070004EB4000008CADF80400AA
:104E10003846C3E030E100002EC407204D61696EC2
:104E200020706F776572206973206F6E000000003C
:104E3000004002408CF5072042505320233120418E
:104E40006C61726D2C206F7665726865617400000C
:104E500042505320233120416C61726D2C20766FBB
:104E60006C7461676520697320757000425053202F
:104E7000233120416C61726D2C20766F6C746167F8
:104E80006520697320646F776E00000042505320E4
:104E9000233120416C61726D2C20636F6E6E6563EF
:104EA00074206973206C6F737400000042505320AB
:104EB000233220416C61726D2C206F7665726865BB
:104EC0006174000042505320233220416C61726DA6
:104ED0002C20766F6C746167652069732075700093
:104EE00042505320233220416C61726D2C20766F2A
:104EF0006C7461676520697320646F776E000000D1
:104F000042505320233220416C61726D2C20636F1C
:104F10006E6E656374206973206C6F73740000009B
:104F200042505320233320416C61726D2C206F76E8
:104F3000657268656174000042505320233320413C
:104F40006C61726D2C20766F6C746167652069737B
:104F50002075700042505320233320416C61726DE4
:104F60002C20766F6C7461676520697320646F779D
:104F70006E00000042505320233320416C61726D5B
:104F80002C20636F6E6E656374206973206C6F7381
:104F90007400000024F30720D0C107201CF0DCFFC0
:104FA000401C85B23F2D00D9002529B238461DF09E
:104FB000C7F840F6026840461CF0CEFF80B23F289A
:104FC00000D0284601B240461DF0BAF838461CF021
:104FD000C3FF4FF4806101EB401085B242208DF891
:104FE00000008DF8016057208DF8020000268DF832
:104FF0000360694628461DF028F9A07F8DF800005F
:10500000E07F8DF801009DF804008DF802009DF806
:1050100005008DF803006946281D1DF016F904F1FE
:10502000340105F108001DF010F904F1380105F113
:105030000C001DF00AF9FF4CA08B8DF80000207EBB
:105040008DF80100207B8DF802008DF80360694621
:1050500005F110001DF0F9F8207A8DF80000207994
:105060008DF8010020788DF802008DF80360694604
:1050700005F114001DF0E9F800BFBDE8FC812DE941
:10508000F84F0646EC48DFF8AC9306EB460202EB1D
:1050900006124FF0000B4FF0420AA9F120094FF41D
:1050A00060674FF4806500EB8200012902D000297F
:1050B0007ED01DE110F83D1F41F00101017038461E
:1050C0001CF04AFF401C84B23F2C00D9002421B2BE
:1050D00038461DF035F840F6026840461CF03CFFAB
:1050E00080B23F2800D0204601B240461DF028F88B
:1050F00038461CF031FF05EB401085B28DF800A05A
:105100008DF8016043208DF802005F468DF803B0F2
:10511000694628461DF099F86946281D00971DF03C
:1051200094F8B9F83C0009F120048DF80000207EC5
:105130008DF80100207B8DF802008DF80370694620
:1051400005F108001DF081F8207A8DF80000207923
:105150008DF8010020788DF802008DF80370694603
:1051600005F10C001DF071F841248DF800408DF818
:1051700001408DF802408DF80340694605F11000AA
:105180001DF063F88DF800408DF801408DF8024065
:105190008DF80340694605F114001DF056F88DF8AE
:1051A00000408DF801408DF802408DF8034000E08A
:1051B00021E0694605F118001DF047F88DF8004020
:1051C0008DF801408DF802408DF80340694605F1E5
:1051D0001C001DF03AF816B1012E05D088E001231D
:1051E0001A46052195A003E001230222052198A07B
:1051F0001BF034FA7CE010F83D1F21F00101017032
:1052000038461CF0A9FE87B23C46A84608EB44107D
:1052100085B2694628461CF01CFF9DF80000422814
:1052200024D19DF80100B04220D19DF8020043280E
:105230001CD106E0641EA4B200E03F24BC42E5D1CC
:1052400056E0694605F110001CF003FF9DF80000D0
:1052500041280BD19DF80100412807D19DF802009B
:10526000412803D19DF80300412802D0002CE4D04E
:10527000E0E7B9F83C0009F120048DF80000207E39
:105280008DF80100207B8DF802005E468DF803B09A
:10529000694605F110001CF0D8FF207A8DF8000057
:1052A00020798DF8010020788DF802008DF80360D8
:1052B000694605F114001CF0C8FF8DF800A08DF8B8
:1052C00001A08DF802A054468DF803A0694605F1AF
:1052D00018001CF0BAFF8DF800408DF801408DF8E1
:1052E00002408DF80340694605F11C001CF0ADFF3B
:1052F00000BF72E52DE9F84FDFF8388106464FF020
:10530000000A4FF04209A8F120084FF460604FF402
:105310008065012902D000297DD037E106EB4601E6
:1053200001EB06124449074601EB820111F83D2FBB
:1053300042F002020A701CF00FFE401C84B23F2CA7
:1053400000D9002421B238461CF0FAFE40F6026B68
:1053500058461CF001FE80B23F2800D0204601B222
:1053600058461CF0EDFE38461CF0F6FD05EB4010EB
:1053700085B28DF800908DF8016053208DF8020001
:1053800057468DF803A0694628461CF05EFF694623
:10539000281D00971CF059FFB8F83C0008F12004C4
:1053A0008DF80000207E8DF80100207B8DF8020032
:1053B0008DF80370694605F108001CF046FF207A5D
:1053C0008DF8000020798DF8010020788DF802001A
:1053D0008DF80370694605F10C001CF036FF41247E
:1053E0008DF800408DF801408DF802408DF80340A3
:1053F000694605F110001CF028FF8DF800408DF87B
:1054000001408DF802408DF80340694605F1140013
:105410001CF01BFF00E042E08DF800408DF80140D9
:105420008DF802408DF80340694605F118001CF024
:105430000CFF17E02040024024F307204241542093
:10544000233120416C61726D2C206C6F73740000ED
:1054500042415420233220416C61726D2C206C6FCC
:10546000737400008DF800408DF801408DF8024003
:105470008DF80340694605F11C001CF0E6FE16B1EC
:10548000012E05D082E0022301220521FBA003E0CA
:1054900002231A460521FFA01BF0E0F876E01CF07D
:1054A0005BFD87B23C46AB460BEB441085B26946C8
:1054B00028461CF0CEFD9DF80000422824D19DF81E
:1054C0000100B04220D19DF8020043281CD106E023
:1054D000641EA4B200E03F24BC42E5D156E0694618
:1054E00005F110001CF0B5FD9DF8000041280BD11E
:1054F0009DF80100412807D19DF80200412803D101
:105500009DF80300412802D0002CE4D0E0E7B8F871
:105510003C0008F120048DF80000207E8DF8010089
:10552000207B8DF8020056468DF803A0694605F1F0
:1055300010001CF08AFE207A8DF8000020798DF88A
:10554000010020788DF802008DF80360694605F1AE
:1055500014001CF07AFE8DF800908DF801908DF803
:1055600002904C468DF80390694605F118001CF036
:105570006CFE8DF800408DF801408DF802408DF8EA
:105580000340694605F11C001CF05FFE00BF24E4E7
:10559000F3B5054600EB4500C44900EB051001EBEF
:1055A0008000C34983B04FF46066B1F9001000EB8E
:1055B0004100B0F92200019030461CF0CDFC401CA7
:1055C00004463F2800D9002421B230461CF0B8FD23
:1055D00040F6026738461CF0BFFC3F2800D020464A
:1055E00001B238461CF0ACFD30461CF0B5FC4FF45F
:1055F000806101EB401442208DF800008DF80150CD
:105600004B208DF8020000268DF803606946204685
:105610001CF01BFE9DF810008DF800009DF8110095
:105620008DF801009DF804008DF802009DF805003A
:105630008DF803006946201D1CF007FE4FF4FC7036
:105640001CF0C3FC9B4D2946286004F108001CF0A7
:10565000FCFD4FF4FE701CF0B8FC6860291D04F1DD
:105660000C001CF0F2FD944DA88B8DF80000287EF4
:105670008DF80100287B8DF802008DF803606946E3
:1056800004F110001CF0E1FD287A8DF80000287963
:105690008DF8010028788DF802008DF803606946C6
:1056A00004F114001CF0D1FD05B0F0BD2DE9F84F58
:1056B000814E0027203E35153C46BA464FF0420940
:1056C000012802D0002871D0FCE04FF46067384612
:1056D0001CF042FC401C04463F2800D9002421B2A3
:1056E00038461CF02DFD40F6026840461CF034FCA4
:1056F0003F2800D0204601B240461CF021FD38462C
:105700001CF02AFC05EB40158DF800908DF801A0E7
:105710005A208DF8020054468DF803A069462846A9
:105720001CF093FD6946281D00941CF08EFD06F1C7
:105730002006B08B8DF80000307E8DF80100307BA4
:105740008DF802008DF80340694605F108001CF051
:105750007CFD307A8DF8000030798DF801003078CA
:105760008DF802008DF80340694605F10C001CF02D
:105770006CFD41248DF800408DF801408DF8024009
:105780008DF80340694605F110001CF05EFD8DF8B0
:1057900000408DF801408DF802408DF803406946C5
:1057A00005F114001CF051FD4EE0FFE74FEA05083B
:1057B00008EB4415694628461CF04BFC9DF8000098
:1057C000422803D19DF802005A2804D0ECB3641E8D
:1057D000BC42EDD176E0694605F110001CF039FCC1
:1057E0009DF800004128F1D19DF801004128EDD13C
:1057F0009DF802004128E9D19DF803004128E5D138
:1058000006F12006B08B8DF80000307E8DF8010087
:10581000307B8DF8020054468DF803A0694605F1EF
:1058200010001CF012FD307A8DF8000030798DF8F0
:10583000010030788DF802008DF80340694605F1CB
:1058400014001CF002FD4C4600E03DE08DF80040E5
:105850008DF801408DF802408DF80340694605F14E
:1058600018001CF0F2FC8DF800408DF801408DF816
:1058700002408DF80340694620E000004241542078
:10588000233120416C61726D2C20617373696D65E9
:105890007472790042415420233220416C61726D50
:1058A0002C20617373696D657472790024F307208D
:1058B000D0C10720A0C007202040024005F11C00F5
:1058C0001CF0C3FC00BF14E53F2471E7002801DA97
:1058D000404200B2704710B54FF434701CF03CFBEE
:1058E000FF4C207040F2D2201CF036FB60704FF469
:1058F00035701CF031FBA07040F2D6201CF02CFB60
:10590000E0704FF436701CF027FB207240F2DA2072
:105910001CF022FB60724FF437701CF01DFBA0726C
:1059200040F2DE201CF018FBE0724FF443701CF0D4
:1059300013FB207140F20E301CF00EFB60714FF42F
:1059400044701CF009FBA07140F212301CF004FB03
:10595000E07110BDE34810B5016821F0E06101601D
:105960004168E24AC1F30B13DF4C117824F811307F
:10597000491CC9B21170032903D2016841F080713A
:10598000016010BD2DE9F0470746DDE90A090E4622
:10599000DDE9085A01B21446984698201CF0D0FB65
:1059A00000219A201CF0CCFB002176201CF0C8FBC3
:1059B0000121CA201CF0C4FB3C21C2201CF0C0FB0A
:1059C00039B278201CF0BCFB04EBD470401001B25B
:1059D000C8201CF0B5FB31B27A201CF0B1FB21B21B
:1059E0007C201CF0ADFB4621C6201CF0A9FB5021F9
:1059F0007E201CF0A5FB0FFA88F182201CF0A0FB92
:105A0000BB2184201CF09CFB002186201CF098FB0D
:105A10000A2188201CF094FB0FFA89F1DE201CF08B
:105A20008FFB29B28C201CF08BFBE8000A2190FB35
:105A3000F1F001B28E201CF083FB0121A0201CF0AC
:105A40007FFB0121A2201CF07BFB0121A4201CF084
:105A500077FBA02192201CF073FB0FFA8AF19420AF
:105A60001CF06EFB032196201CF06AFB3221CC2037
:105A70001CF066FB2821CE201CF062FB5521BC20C7
:105A80001CF05EFB1E21BE201CF05AFB0121802071
:105A90001CF056FB4621D0201CF052FB3C21D420A8
:105AA0001CF04EFB1921D2201CF04AFB5021D620BD
:105AB0001CF046FB4621D8201CF042FB5B21DA207B
:105AC0001CF03EFB5021DC201CF03AFB884C0021EE
:105AD000B4F900001CF034FB864D0021B5F900003C
