:020000040000FA
:1000000058770010E1000000E5000000E700000064
:10001000E9000000EB000000ED000000000000001F
:10002000000000000000000000000000EF000000E1
:10003000F100000000000000F30000006DEE010080
:10004000F70000008D180200B9180200F700000048
:10005000F700000081450200F7000000F7000000F3
:10006000F7000000F7000000F7000000F7000000B4
:10007000F7000000F7000000F7000000F7000000A4
:10008000F7000000F7000000F7000000F700000094
:10009000F7000000F70000009D590000F700000085
:1000A000F70000006F430200F7000000F7000000B7
:1000B000F15A0200F7000000F7000000F70000000E
:1000C000F7000000F7000000F7000000DFF80CD098
:1000D00025F0D6FD00480047D7EF01005877001003
:1000E00005480047FEE7FEE7FEE7FEE7FEE7FEE71E
:1000F000FEE7FEE7FEE7FEE7CD000000FEE710B5F5
:1001000027F088FC27F014FD27F006FD27F094FC6B
:10011000AFF30080BDE8104027F0D0BC10B528F048
:10012000E1FA29F051F928F035FBBDE8104028F03C
:10013000ADBC28F0F5B927F0BDBF09B1002070476C
:1001400026F012BD0020704770B5374A0020A2F19A
:100150001401064601F10A030C5C54B11D5CAC426B
:1001600007D1145C2CB1641E14F0FF04145400D1A8
:100170000E540C5C1C54401CC0B20A28ECD370BD59
:1001800070B5294D0024143D641CE4B22E5D1EB1EF
:10019000864201D00A2CF7D3285523480C3040F86A
:1001A0002410283040F824203438035570BD1E4AEE
:1001B0000021143A491CC9B2535C834201D00A2978
:1001C000F8D3DBB2834210D117480C3050F82130FD
:1001D00016480360144B343353F821304360002039
:1001E0005054114A505401207047002070470E4A65
:1001F0000021143A491CC9B2535C834201D00A2938
:10020000F8D3DAB282420CD107480C3050F82120E2
:1002100006480260044A343252F82110416001203D
:100220007047002070470000646400100C0000104C
:100230000C4BDA601870597070470A4A116190705F
:1002400070470849088170470648B0F9081000292E
:1002500007D0491E09B20181002902D1084600F0E9
:10026000C0BF7047ACC0072090F900308B4200DA65
:10027000027090F90030934200DD0170704790F9F0
:1002800000308B4200DA017090F90010914200DDDD
:1002900002707047B0F900308B4200DA0180B0F98B
:1002A0000010914200DD02807047B0F900308B42AF
:1002B00000DA0280B0F90030934200DD018070471F
:1002C0000146002000E0401C0A5C002AFBD1704778
:1002D00010B5002200E0521C835C8C5CA34201D16B
:1002E000002BF8D1D8B2E1B2401A10BD00487047D7
:1002F00048AC02000048704750220010FFFFFFFF8B
:10030000002801DA404200B270470020F84A20215C
:100310001154401CC0B2C828FAD370470146F44AB1
:100320000020401CC0B2135C8B4201D0C828F8D317
:10033000704710B50021EF4C0A2200BFB0FBF2F36A
:1003400002FB13006054491CC9B218460529F5D3B5
:1003500010BDF0B5E84B0121202719700521E54AB1
:10036000002601E01C7844B1541814F8015C25B94A
:10037000814202D904F8017C05E0541814F8015DAB
:10038000303525701E70491E11F0FF01EAD1F0BD15
:10039000FEB52B23002802DA404200B22D230025AF
:1003A0000A266C4690FBF6F706FB170060556D1C9D
:1003B0006DB238B20A2DF5DB012600250920202771
:1003C00000E046B114F800C0BCF1000F03D1904228
:1003D00001DD275405E0265C3036265400266D1CCE
:1003E000EDB2401E40B20028EBDA2D2B02D163554E
:1003F0006D1CEDB26AB168B205E0231813F8013C38
:100400002354401E40B29042F7DC2E206D1CA054B5
:10041000EDB20846FFF782FF0021B54A04E0635CB5
:10042000461A491C935549B2A942F8DBFEBDFEB5F8
:100430002B23002801DA40422D2300250A266C4692
:10044000074690FBF6F006FB107767556D1C6DB202
:100450000A2DF5DB012600250920202700E046B102
:1004600014F800C0BCF1000F03D1904201DD275405
:1004700005E0265C3036265400266D1CEDB2401E89
:1004800040B20028EBDA2D2B02D163556D1CEDB282
:100490006AB168B205E0231813F8013C2354401EEA
:1004A00040B29042F7DC2E206D1CA054EDB20846FD
:1004B000FFF734FF00218E4A04E0635C461A491CB2
:1004C000935549B2A942F8DBFEBDFEB52B260028A4
:1004D00001DA40422D2600240A276D46844690FB0F
:1004E000F7F007FB10CC05F804C0641C64B20A2CBA
:1004F000F4DB0127002009244FF0200C00E04FB16D
:1005000015F804E0BEF1000F04D19C4202DD05F8AD
:1005100004C005E02F5D30372F550027401CC0B2C6
:10052000641E64B2002CEADA2D2E02D12E54401C37
:10053000C0B26BB144B205E02E1916F8016C2E550D
:10054000641E64B29C42F7DC2E24401CEC54C0B202
:1005500001EB810102EB8101CAB20021644B04E08E
:100560006C5C561A491C9C5549B28142F8DBFEBDB1
:1005700070B50D4616461C46FFF7DBFE601CC0B288
:10058000FFF7E7FE05EB850006EB8000C1B2594A94
:10059000574B0020A04201D2155C5D5406D3155C78
:1005A000202D03D04CB15E1806F8015C491E401C9A
:1005B000C0B2C9B20528EDD370BD5D54F6E730B5C1
:1005C000044608461546FFF7A9FEFF2809D0484A09
:1005D0002178002905D04319641C401CD154C0B2B5
:1005E000F6E730BD70B50D461446FFF7A2FE601C5D
:1005F000C0B2FFF7AEFE2846FFF790FE3D4B3C4AE7
:10060000002124B95D5C202D01D015540FE0A142DA
:1006100001D25D5CF9E704D14FF02E0515545D5C05
:1006200002E05D5C202D02D0161806F8015C401E29
:10063000491CC9B2C0B20529E3D370BD801801D5E9
:10064000084402E0884200DB401AC0B270472DE93E
:10065000FE4F04460D464FF4606021F0EBFD624210
:100660004021FFF7EBFF400100F58060044602A93E
:1006700021F05DFE694604F1080021F058FE01A951
:1006800004F10C0021F053FE2846FFF747FE064612
:100690009DF8080040273025DFF860B0DFF850A053
:1006A00020244FF0210C4FF02309552828D0CF22C9
:1006B000D123502873D0422872D0532871D04928B2
:1006C0006BD1C8210AF80610761CF1B2ED220AF8A7
:1006D0000120491CC9B2E2220AF80120491C9DF8F8
:1006E00009205046C9B2092A7ED231324254FEE373
:1006F000F0C20720440000104900001000400240F2
:100700009DF80A0052280ED1C2210AF80610761C64
:10071000F1B2EA220AF80120491CC9B2EB220AF818
:100720000120491CCEB25046B1E300BF9DF8012024
:1007300096F838309A4267D19DF8022096F82C300E
:100740009A42F8D14554491CC9B23A2200F801C076
:10075000491CC9B24254491CC9B24554491CC9B2CA
:100760004754491CC9B24254491CC9B200224554DD
:10077000491CC9B20AF801909DF804002121FFF735
:1007800031FF9DF8050000224021FFF72BFF9DF867
:10079000060000222321FFF725FFBDE8FE8F0BE0B6
:1007A00033E04BE39DF80110FD48002200EB81008F
:1007B0004021FFF704FFF0E70AF80620761CF1B2AB
:1007C00050460AF80130491CC9B20AF80140491CD8
:1007D000C9B20AF80140491CC9B20AF80140491CD3
:1007E000C9B20AF8014000E095E3491CC9B219E317
:1007F0009DF8013092F83860B3429CD19DF80230E8
:1008000092F82C2093429DD055E39DF80A0043288E
:100810007CD1C1210AF80610761CF1B2E0220AF858
:100820000120491CC9B2F2220AF80120491CCEB2AB
:100830009DF809105046092906D231318155761CA0
:10084000F1B2C022425419E0A1F109025A2A11D290
:10085000491C0A23B1FBF3F2904630328255761CD4
:1008600003FB1811F6B230318155761CF1B2C0226B
:10087000425406E08455761CF1B24454491CC9B276
:100880004454491CC9B25E464454491C9DF800209A
:10089000BBF83C30C9B29A4239D19DF8012096F894
:1008A00038309A4233D19DF8022096F82C309A4283
:1008B0002DD14554491CC9B23A2200F801C0491C47
:1008C000C9B24254491CC9B24554491CC9B2475423
:1008D000491CC9B24254491CC9B200224554491CA2
:1008E000C9B20AF80190491CCEB29DF8040021213A
:1008F000FFF778FE9DF8050000224021FFF772FE09
:100900009DF8060000222321FFF76CFE36E04454D8
:10091000491CC9B200224554491CC9B200F801C0A3
:10092000491CC9B24754491CC9B24454491CC9B2F4
:100930004454491CC9B24554491CC9B20AF8019033
:10094000491CCEB29DF802002121FFF74BFE9DF815
:10095000000000222321FFF745FE9DF80100401E04
:100960000C2802D301208DF801009DF801108C485D
:10097000002200EB81004021FFF721FE9DF80A00D4
:10098000532873D1C1210AF80610761CF1B2E02277
:100990000AF80120491CC9B2F2220AF80120491CB8
:1009A0009DF8092043235046C9B2092A09D23132A1
:1009B0004254491CC9B2C0224254491CC9B24354D2
:1009C0000FE0093A5A2A05D2C0224254491CC9B242
:1009D000435403E04454491CC9B24454491CC9B2AD
:1009E0004454491CC9B25E464454491C9DF8002039
:1009F000BBF83C30C9B29A4239D19DF8012096F833
:100A000038309A4233D19DF8022096F82C309A4221
:100A10002DD14554491CC9B23A2200F801C0491CE5
:100A2000C9B24254491CC9B24554491CC9B24754C1
:100A3000491CC9B24254491CC9B200224554491C40
:100A4000C9B20AF80190491CCEB29DF804002121D8
:100A5000FFF7C8FD9DF8050000224021FFF7C2FD09
:100A60009DF8060000222321FFF7BCFD36E0445428
:100A7000491CC9B200224554491CC9B200F801C042
:100A8000491CC9B24754491CC9B24454491CC9B293
:100A90004454491CC9B24554491CC9B20AF80190D2
:100AA000491CCEB29DF802002121FFF79BFD9DF865
:100AB000000000222321FFF795FD9DF80100401E54
:100AC0000C2802D301208DF801009DF80110344854
:100AD000002200EB81004021FFF771FD9DF80A0024
:100AE0005A285CD1C2210AF80610761CF1B2C7223E
:100AF0000AF80120491CC9B250460AF80140491CB5
:100B0000C9B25E460AF80140491CC9B20AF8014060
:100B1000491CC9B24454491CC9B24454491C9DF8EB
:100B20000020BBF83C30C9B29A423BD19DF801206D
:100B300096F838309A4235D19DF8022096F82C303C
:100B40009A422FD14554491CC9B23A2200F801C03B
:100B5000491CC9B24254491CC9B24554491CC9B2C6
:100B60004754491CC9B24254491CC9B200224554D9
:100B7000491CC9B20AF80190491CCEB29DF8040084
:100B80002121FFF72FFD9DF8050000224021FFF7EE
:100B900029FD9DF8060000222321FFF723FD38E000
:100BA00044A302004454491CC9B200224554491CC4
:100BB000C9B200F801C0491CC9B24754491CC9B2A6
:100BC0004454491CC9B24454491CC9B24554491C37
:100BD000C9B20AF80190491CCEB29DF80200212149
:100BE000FFF700FD9DF8000000222321FFF7FAFC2B
:100BF0009DF80100401E0C2802D301208DF8010051
:100C00009DF80110FE48002200EB81004021FFF713
:100C1000D6FC9DF80A0057287DD1C1210AF806109C
:100C2000761CF1B2E0220AF80120491CC9B2F22276
:100C30000AF80120491CCEB29DF8091050464FF029
:100C4000F00E092906D231318155761CF1B200F837
:100C500001E019E0A1F109025A2A11D2491C0A2324
:100C6000B1FBF3F2904630328255761C03FB18112B
:100C7000F6B230318155761CF1B200F801E006E0A1
:100C80008455761CF1B24454491CC9B24454491CE1
:100C9000C9B25E464454491C9DF80020BBF83C3064
:100CA000C9B29A423BD19DF8012096F838309A4259
:100CB00035D19DF8022096F82C309A422FD1455418
:100CC000491CC9B23A2200F801C0491CC9B24254B9
:100CD000491CC9B24554491CC9B24754491CC9B240
:100CE0004254491CC9B200224554491CC9B20AF8F1
:100CF0000190491CCEB29DF804002121FFF772FC3F
:100D00009DF8050000224021FFF76CFC00229DF8B1
:100D10000600232100E039E0FFF764FC36E044548C
:100D2000491CC9B200224554491CC9B200F801C08F
:100D3000491CC9B24754491CC9B24454491CC9B2E0
:100D40004454491CC9B24554491CC9B20AF801901F
:100D5000491CCEB29DF802002121FFF743FC9DF80B
:100D6000000000222321FFF73DFC9DF80100401EFA
:100D70000C2802D301208DF801009DF80110A04835
:100D8000002200EB81004021FFF719FC9DF80A00CA
:100D90004B287FF410ADC1210AF80610761CF1B281
:100DA000E0220AF80120491CC9B2F2220AF8012007
:100DB000491C9DF80900C9B209280BD231300AF844
:100DC0000100491CC8B2EA210AF80010401CC0B258
:100DD000E52115E0A0F109025A2A16D2401C0A2387
:100DE000B0FBF3F2904630320AF80120491C03FBB5
:100DF0001800C9B230300AF80100491CC8B2EA2113
:100E00000AF80010401CC1B20BE00AF80140491C6E
:100E1000C9B20AF80140491CC9B20AF80140491C8C
:100E2000C9B250465A464454491C9DF80030BBF89C
:100E30003C60C9B2B3423FF4DBAC3CE0C1210AF8EC
:100E40000610761CF1B250460AF80120491CC9B2BE
:100E50000AF80130491CCEB29DF80910092902D2C6
:100E60003131815514E0A1F109025A2A0FD2491CEF
:100E70000A23B1FBF3F2904630328255761C03FB15
:100E80001811F6B230318155761CF1B205E0845567
:100E9000761CF1B24454491CC9B25E464454491C04
:100EA000C9B24454491C9DF80020BBF83C30C9B27B
:100EB0009A423FF43BAC4454491CC9B24554491CC6
:100EC000C9B200F801C0491CC9B24754491CC9B293
:100ED0004454491CC9B24454491CC9B24554491C24
:100EE000C9B200220AF801909DF8020000E025E056
:100EF0002121FFF777FB9DF8000000222321FFF757
:100F000071FB9DF80100401E0C28FFF44BAC012042
:100F10008DF8010046E4A2F109035A2B0DD2521CB0
:100F20000A25B2FBF5F303F130064654491C05FBD4
:100F30001322C9B23032425403E04454491CC9B2AE
:100F40004454491CC9B20AF8014026E470B504466D
:100F5000084615461E46FFF7E1F92A4B0146FF28D1
:100F600004D106E01A54641C401CC0B22278002A46
:100F7000F8D125480078002804D0002E02D029445A
:100F80005F20585470BD2DE9FF4F8146DDE90D0407
:100F90008A469346FFF7C2F92022DFF86C80194990
:100FA0000A234FF0640C012C09D198F8005035B198
:100FB0000D18A5F10E05AA706A702A7026E099FB3B
:100FC000F3F603FB16970D183037A5F10E05022C2A
:100FD000AF7096FBF3F703FB176606F130066E70F1
:100FE00099FBFCF606F1300605F80E6B0ED198F869
:100FF00000605EB1A5F10A05AA706A702A7027E048
:1010000044A30200F0C20720FCC007209AFBF3F6BD
:1010100003FB16A70D183037A5F10A05032CAF7096
:1010200096FBF3F703FB176606F130066E709AFB2A
:10103000FCF606F13006674605F80A6B08D198F809
:1010400000602EB1A5F10605AA706A702A7022E030
:101050009BFBF3F603FB16B70D183037A5F1060519
:10106000042CAF7096FBF3F703FB176606F130060E
:101070006E709BFBFCF606F13006674605F8066BC2
:1010800009D198F8004034B1A5F102050A546A70FC
:101090002A70BDE8FF8F039C94FBF3F203FB12441C
:1010A00030340C5492FBF3F403FB14220844A0F1F7
:1010B000020030324270039991FBF7F101F13001E7
:1010C0000170E6E717B501EB810002EB8000C2B2C8
:1010D0009DF80030B44803F00F0100EB1313445C9B
:1010E000B2498C54521ED2B21B788B549DF80130F9
:1010F000521E03F00F04D2B2045D8C54521E00EB5A
:101100001313D2B21B788B549DF80230521E03F099
:101110000F04D2B2045D8C54521E00EB1313D2B2F2
:101120001B788B549DF80330521E03F00F04D2B28B
:10113000045D8C54521E00EB1310D2B20078885418
:101140001EBD01EB810102EB8101974A10B500F051
:101150000F03C9B2D45C954B02EB10105C54491ECE
:10116000C9B20078585410BD30B5914901238F4D54
:1011700091F9012091F9041000EB80048A4202D118
:1011800005F8243030BD894D4C1C00EB800005EB88
:101190008000A24201D1037530BD8C1CA24202D155
:1011A00080F8283030BDCC1CA24202D180F83C30FF
:1011B00030BD0C1DA24202D180F8503030BD4C1D14
:1011C000A24202D180F8643030BD8C1DA24202D10F
:1011D00080F8783030BDC91D8A42FBD180F88C3050
:1011E00030BD744B1A88521E104400B21880724AE7
:1011F00000EB800002446E481368036012790271AC
:101200004278114441707047F0B56A4D6A4FB5F9A4
:10121000004004EB8406641C2C80654C3E44256829
:10122000356025793571207061702271A370F0BD31
:10123000F0B505460E461746FFF767F85B4C0020F1
:10124000401C15F8011BC0B204F8011B1428F7D389
:101250005FF00000401C16F8011BC0B204F8011B2F
:101260001428F7D35FF00000401C17F8011BC0B230
:1012700004F8011B1428F7D35FF00000401C13F89A
:10128000011BC0B204F8011B1428F7D3F0BD10B540
:10129000029CFFF7CDFF4648C378827841789320BF
:1012A000FFF7B2FF642094FBF0F0BDE81040C0B23D
:1012B000FEF7C7BF2DE9FE4340010D4600F58060F3
:1012C000044602A921F033F8694604F1080021F030
:1012D0002EF801A904F10C0021F029F82846FFF7A7
:1012E0001DF8324C202530262554401CC0B24FF04A
:1012F00021082654401CC0B24FF0400C04F8008076
:10130000401CC0B2232104F800C0401CC0B200221F
:101310002554401CC0B22554401CC0B22654401C69
:10132000C0B22154401CC7B29DF802002121FFF732
:1013300059F99DF8000000222321FFF753F99DF889
:101340000100401E0C2802D301208DF801009DF8F9
:1013500001001A49002201EB80004021FFF72FF91C
:10136000E5557F1CF8B23A212654401CC0B2002239
:1013700004F80080401CC0B22154401CC0B221219E
:101380002654401CC0B204F800C0401CC6B29DF8F0
:101390000400FFF727F99DF8050000224021FFF720
:1013A00021F9A555BDE8FE83C2A30200F0C20720C3
:1013B00070C2072020C10720C064001044A30200AF
:1013C0002DE9FF41FB4C00270546A776A07D0121B2
:1013D000022805D0F84A525D552A04D065200EE057
:1013E000A176BDE8FF8105EB450202EB0513F34A48
:1013F00002EB830696F83D20D30702D06620A07644
:10140000EFE796F83F309B0701D56720F7E7920793
:1014100001D56820F3E7EA4AB6F90830B2F90020AE
:10142000934201DD6920EAE75242934201DA6A20E1
:10143000E5E7012804D1E07D00287ED001287DD099
:101440006420A076A175A4F856104FF4F87020F02F
:10145000E5FFE5752946A4F858504FF4FA7020F0DE
:10146000DDFFD848B761002130F9150020F0D6FF24
:101470002776A4F85A7039464FF4FB7020F0CEFF5F
:10148000D148D24D0088401C00F0070006EB400018
:10149000008CADF80000A88B8DF804004FF06302BB
:1014A0004FF0010101A8FEF7EAFEC24C9DF80400CE
:1014B0009C342070287E8DF804000C22012101A8A4
:1014C000FEF7DDFE9DF804006070287B8DF80400B7
:1014D0001F22012101A8FEF7D2FE9DF80400A07092
:1014E0009DF80000E0704FF4FC70216820F0D1FFFF
:1014F000287A8DF804001722002101A8FEF7BFFE0C
:101500009DF80400207128798DF804003B22002109
:1015100001A8FEF7B4FE9DF80400607128788DF8EC
:1015200004003B22002101A8FEF7A9FE9DF804005B
:10153000A0719DF80100E07101E006E007E04FF4C2
:10154000FE70616820F0A5FF4BE76B2057E76C2029
:1015500055E72DE9F047974CA07D01287ED1204624
:101560000127C07D217EC0F1010207FA02F0954EED
:10157000924D02B211B1012933D037E01423CA21B0
:10158000C820FEF7FDFD14234FF0FF32CE21CD2001
:10159000FEF7F6FDE07D00EB400101EB001005EBEE
:1015A0008000B0F90800FEF7ABFEE17D01EB4102DF
:1015B00002EB011205EB82029369184448F6A0433E
:1015C0009061984212DBC01A906136F8110020F049
:1015D00031FE401C01B2E07D36F9100020F01EFF04
:1015E00004E01423CA21C820FEF7CAFDE07DA84606
:1015F00000EB400101EB001205EB8201744AB1F9E6
:1016000002100025B2F900204FF4F87902EB8202B3
:10161000B1EB420F42DAB4F85210491C09B2A4F8F7
:1016200052101E293CDBA17D012921D1217EF9B96F
:1016300036F8100020F0FEFD01B26648E27D30F978
:10164000120020F0EBFEE07D36F8100020F0F2FDF5
:1016500081B2E07D03F0C0FF5F4800E041E0E17D42
:1016600030F91100002120F0D9FE3220A083E08360
:10167000E07D5149C0F10100085C552807D0A575EF
:10168000A4F856500021484620F0C8FE08E027760E
:10169000A4F85A7001214FF4FB70F5E7A4F85250FA
:1016A000E17D01EB410000EB0112C1F1010101EB11
:1016B000410303EB011108EB820208EB8100B2F950
:1016C0000220B0F9020082420BDB207E012808D103
:1016D000A575A4F856504846BDE8F047002120F013
:1016E0009DBEBDE8F08770B5324C05460026A07D52
:1016F000F0B9022104F8161F4FF4F870A4F8401056
:1017000020F08CFEC5EB0510810025870D46E18792
:101710004FF4F97020F082FE29464FF4FF7020F05C
:101720007DFE00206087A0860126304603F0E2FFA0
:10173000304670BD10B51F4CA07D022812D104F1B7
:101740001604208F03F0D6FF0020A0862087608734
:101750002070A4F840000146BDE810404FF4F87036
:1017600020F05CBE10BD70B5184C203C94F83800D9
:101770001A4D297808440C2803D9A08F401C01B2C7
:1017800001E0B4F93C10B82020F048FE94F838107D
:10179000287801440C2994F8381000D90C380144F9
:1017A000B62020F03BFE94F82C001C2818D91C21F0
:1017B00018E0000008C0072096C107205CED072054
:1017C00042C10720B89C0200FCC107202040024013
:1017D0003CC10720D49C0200B49C020005C1072034
:1017E00094F82C10B42020F019FE04F12004217A82
:1017F0004FF0AE0020F012FE2179B02020F00EFE56
:101800002178BDE87040B22020F008BE10B5F8483D
:10181000F84C007830B3F848818FF84A128891422A
:1018200020D190F83810F64A128891421AD190F8D7
:101830002C10F44A1288914214D190F82810F24AE0
:10184000128891420ED190F82410F04A12889142E9
:1018500008D190F82000EE490988884202D1012081
:10186000607602E0607E00280BD0EA480088C0B2B3
:10187000FFF739FF002804D000206076BDE8104053
:1018800071E710BD70B5DB4CA07D02283FD1B4F8E4
:101890004C004FF461610025884212D2401C80B296
:1018A000A4F84C0088420CD3A4F84C50B4F84E0075
:1018B00038B1401E24F84E0F6088401C6080A4F1AF
:1018C0004E04B4F84A003C2821D2401C80B2A4F84F
:1018D0004A003C281BD324F84A5F6089401E01B2AD
:1018E00061814FF4F97020F099FD6089A4F14A04F8
:1018F00000280CD1A5750146A4F856504FF4F87095
:1019000020F08CFDBDE87040002003F0F3BE70BDF8
:10191000C1486FF03B010088C0EB001001EB800074
:10192000B449C88770472DE9F05FDFF8C892BA481C
:101930000026B9F83E10B94F491C09B2A9F83E106B
:10194000B0F90000B64DC0EB00124FF0010B09F1E9
:1019500044044FF00A08B1EB820F51DBF0B3A9F851
:101960003E602670DFF8BCA2667089F810609AF8B5
:101970000000552811D1B5F9020050280DDDB5F948
:101980000800FEF7BDFCB7F90010884203DB95F8AC
:101990003D00C00701D084F800B09AF80100552836
:1019A00011D1B5F94E0050280DDDB5F95400FEF700
:1019B000A7FCB7F90010884203DB95F88900C0073F
:1019C00001D084F801B09848007848B999F811100E
:1019D000484629B1817D41B1022900E010E004D0E0
:1019E0002670667089F8106008E0217801291DD002
:1019F000617801291AD0017C012917D0A9F840602B
:101A00004846B9F94010DFF8EC91DFF820A209F15F
:101A10006009F1B383460246491E08B2A2F84000AD
:101A2000052806DD0F231E22642107E0A9F8408067
:101A3000E6E700281BDD0F231E226921E120FEF7C7
:101A40009FFBBBF84000052811D1B5F90800FEF74F
:101A500057FCA9F80000B5F95400FEF751FCA9F8AD
:101A60000200BAF90000FEF74BFCABF82200614817
:101A7000B0F84000002841D1AB46B5F90800FEF7A8
:101A80003FFC5C4D64352880BBF95400FEF738FC00
:101A900000E038E06880BAF90000FEF731FCDFF8BA
:101AA00054A1AAF82400AAF84260B9F90000B5F9D7
:101AB00000100844B7F90010884202DA20780128A3
:101AC00017D0BBF90200C82804DD002126700846A3
:101AD00003F0F9FAB9F90200B5F902100844B7F9B0
:101AE0000010884202DA6078012805D0BBF94E0068
:101AF0007AE0AAF84280EDE7AAF84280BDE8F09FBC
:101B00006670002106E1B0F94210E9B38046024652
:101B1000491E08B2A2F84200052803DD0F23C8229F
:101B2000642104E000281BDD0F23C8226921E12085
:101B3000FEF726FBB8F84200052811D1B5F90800D8
:101B4000FEF7DEFBA9F80000B5F95400FEF7D8FB5C
:101B5000A9F80200BAF90000FEF7D2FBA8F82200AB
:101B60002448B0F842000028C8D1DFF8B480B8F9A2
:101B70000800FEF7C5FB1F4D64352880B8F95400F6
:101B8000FEF7BEFB688000E058E0BAF90000FEF7FF
:101B9000B7FBDFF86080A8F8240088F80F60B9F977
:101BA0000000B5F900100844B7F90010884202DAC5
:101BB000207801283CD01A48B0F90200C82804DD7A
:101BC00000212670084603F07EFAB9F90200B5F943
:101BD00002100844B7F90010884202DA6078012840
:101BE00029D00F48B0F94E00C82889DC86E70000EC
:101BF00005C1072008C0072000400240A4C10720FB
:101C0000A2C10720A0C107209AC107209CC10720BC
:101C10009EC10720A6C1072052C1072042C107204C
:101C20005CED072096C107200BC10720FEC10720ED
:101C300088F80FB0C9E788F80FB05FE78146C07B2E
:101C40000028D3D00F2300226E21E120FEF798FA5E
:101C5000B5F90800FEF754FBB7F90010884207DD1C
:101C60002078012804D100212670084603F02BFAC1
:101C7000B5F95400FEF744FBB7F90010884206DDC1
:101C80006078012803D16670002103F01CFA2078E7
:101C900030B9607820B999F8101009B989F80F6047
:101CA000E620FEF784FA18B1FE480068E7280AD05B
:101CB000FD48FE49B0F90000B1F9001000EB8000CA
:101CC000B1EB400F92DA89F80F602078F84E0128C6
:101CD0000FD1B7F90000410091FBF8F0B6F9001000
:101CE000884206DA95F83D00C00702D1012103F0D1
:101CF000EAF960780128A0D1B7F90000410091FB12
:101D0000F8F0B6F90010884297DA95F88900C00714
:101D100093D10121BDE8F05F012003F0D4B970B583
:101D2000E44CA08F401C00B2A087B0F5E16F02DB4D
:101D30000020A08770BDB0F5DF6F11D90F230122FD
:101D40006421D220FEF71CFA0F230022D821D720CD
:101D5000FEF716FA0F230022D821DC20FEF710FA36
:101D6000B4F93C00A0F5E0610739E3D1D24ED34C81
:101D7000D34D30882188884205D0B4F90010B5F9D8
:101D8000000020F04BFB708861888842D2D0B4F903
:101D90000210B5F90200BDE8704020F03FBB10B55D
:101DA000C84C082200212088401C20802046FEF7D5
:101DB0007CFAC548B4F9001000EB410142880A845E
:101DC000B0F84E00A1F86C0010BD70B5C048BF4D12
:101DD000B0F90030BF48B5F9002090F900109A42E0
:101DE0001BDABD4C0A290EDABC4BB3F900300F2BBD
:101DF0000BDD491C49B201700A2906DB2280012053
:101E000002F010FD01E00A210170B5F90000B4F9FB
:101E10000010884200DA208070BDFDDD0029FBD073
:101E2000491E49B201700029F6DCBDE8704000206F
:101E300002F0F8BC2DE9F84FDFF8A4B20A21DFF870
:101E40007492BBF80000A74FB0FBF1F201FB120245
:101E5000B9F82840DFF890A241F270753AB9B0F5B0
:101E6000166F04D0B0F5965F01D0A8425ED19F49AD
:101E70009F4AA04B9AF89C63B1F90010B2F9002078
:101E8000B3F90030DFF870C2DFF870E25046072E79
:101E900025D04C4394FBF7F09949ACF80000B1F918
:101EA0000600504390FBF5F0AEF80000B1F91400C5
:101EB0009449584390FBF5F008808448BCF9001021
:101EC0000180BEF900208A4200DA02808D49B0F913
:101ED0000020B1F90010914230DA01802EE000F2CA
:101EE000A2300478467804EB06241FFA84F8714C7B
:101EF00004F18804A4F800808678C77808FB01F80C
:101F000006EB0726B7B26780067998FBF5F19AF8D9
:101F1000A70307FB02F706EB002080B2A080ACF815
:101F2000001097FBF5F1AEF80010C1E7764867495D
:101F3000B0F90000444394FBF7F00880DFF8C0815B
:101F4000724F4FF4FA66B8F90020B7F900105E4CF2
:101F5000514391FBF6F1DFF8B8C16180B8F9082070
:101F6000BCF900104FF42F73514391FBF3F1A180A2
:101F7000B8F91820B7F90210514391FBF6F1A4F813
:101F80004E10B8F90210BCF90200484390FBF3F080
:101F9000A4F85000DC20FEF72AF9D8BBDFF81CE1DA
:101FA00045494FF49672BEF80000098845F2FA5789
:101FB000401A58494FF47A7CB1F900104143BBF8FC
:101FC0000000A0F5BC43383B01D05A3B02D191FB45
:101FD000F2F10CE0B84205D0A0F5AC43133B01D0C0
:101FE0009B1C02D191FBF6F101E091FBFCF1324B1D
:101FF0002181BEF802105B88CB1A4649B1F9021064
:102000005943A0F5BC43383B01D05A3B03D191FB67
:10201000F2F00DE00EE0B84205D0A0F5AC42133A64
:1020200001D0921C02D191FBF6F001E091FBFCF093
:10203000A4F85400B8F90C1040F6B737A1F22133D8
:1020400001220020C446BB4201D2207300E022736B
:10205000314B44F62068BE46B3F900304B4393FB46
:10206000F8F1A1F211116181BCF90E10A1F2213336
:10207000734502D284F8580001E084F85820264BBA
:10208000B3F902304B4393FBF8F1A1F21111A4F81C
:1020900056102249B1F900302149022B42D0042BBD
:1020A00056D092E00C0000103CC1072000C207206F
:1020B00002C2072008C0072024C407202E220010D7
:1020C000E09C0200FCC107205CED072006C207204F
:1020D0003EC107204CC407204A0000101EC1072043
:1020E00098C10720B0AD0100E8EE072028000010DD
:1020F00034C407202A00001008C207200AC20720A3
:102100001CED07200CC207202000001020C407206F
:10211000180000101C00001028C4072090C10720E0
:10212000F4ED0720B1F92830052B04DACB8B13B975
:102130008B8A63812073B1F95230052B45DAB1F8EF
:102140004830F3BBC98FA4F8561084F858003CE01F
:10215000B1F928706FF0130C6346052F04DACF8BAA
:1021600017B9B1F914302073B1F95270052F08DA9C
:10217000B1F848702FB9B1F93E709F4201DD20736C
:102180003B4613F1140700D06381B1F97C30052B75
:1021900006DAB1F872301BB9B1F968C084F858009A
:1021A000B1F9A630052B09DAB1F89C3033B9B1F991
:1021B0009210614502DD84F858008C461CF1140130
:1021C00000E002E001D0A4F856C0F94BF94FB3F992
:1021D0000410B7F90070794391FBF6F1F64E3180A7
:1021E000B3F90A707646A7F2213CF449B44501D20E
:1021F000086000E00A609E46F14BDFF8C8C3B3F9FF
:1022000000307B4393FBF8F3A3F21113ACF80030DA
:10221000BEF91430A3F22137B74201D2486000E082
:102220004A60DFF89CE3BEF902705F4397FBF8F366
:10223000A3F211131BB2ACF802300093DC4BB3F9DC
:102240000630A3F22137B74201D2886000E08A60ED
:10225000BEF90460DF4F5E4396FBF8F3A3F211135F
:102260001BB2ACF804309E46DFF85C83D74B4FF4CA
:102270007A6CB8F80060B3F90030734393FBFCF359
:10228000D34E9BB2642B338001D3D34B1B883B804E
:10229000CE4BB8F80270DFF84883B3F902307B43C5
:1022A00093FBFCF37380CD4BB8F90060DFF834C3C7
:1022B000B3F900707E4396FBF5F6ACF80060B3F915
:1022C0000270B8F902607E4396FBF5F6ACF8026046
:1022D000B8F90460B3F90470DFF80C837E4396FB11
:1022E000F5F6ACF80460B3F90670B8F90060DFF8F1
:1022F000FCC27E4396FBF5F6ACF80060B3F90870BB
:10230000B8F902607E4396FBF5F6ACF80260B3F9CB
:102310000A30B8F90460B64F5E4396FBF5F3ACF8AB
:102320000430009B03F211131DB20EF211133D8015
:102330001EB27E804B6813F0FF033B728968C9B2FE
:102340007972AC4F04D0012B0ED013B10DD020E028
:1023500011B1012910D01CE0A91901EBD1716FF462
:10236000887303EB610113E011B1012908D010E07B
:10237000A6F211163E800CE0A5F211153D8008E092
:102380009D490978052902D29C49098800E0142159
:1023900039809B4991F80080B8F1550F06D1B4F906
:1023A0000230C82B02DD2589A9F838504978552913
:1023B0000BD1B4F94E10C82907DDB4F95410B4F9A3
:1023C0000830994201DDA9F83810BBF80010A1F5DA
:1023D000AC432F3B03D0283301D0143B03D18949B0
:1023E0000B88A9F8383088490023B1F900502EE055
:1023F000C3EBC30101EB41060AEB8601CE78192E2F
:102400001CD28E79CF7906EB07264E620E7A4F7A70
:1024100006EB07260E628E7ACF7A06EB0726CE6190
:102420000E7B8E624E7B81F852608E7B81F842601B
:102430000E7C4F7C06EB0726CE6406E0C86148623E
:102440000862886281F84200C8645B1CDBB2AB4260
:10245000CEDB23464FF00A09A346B4F90840B3F98E
:10246000543094FBF9F493FBF9F121444942DFF82D
:102470009CC10BB2664FACF80030002138800EE0F2
:10248000C1EBC10404EB44060AEB8606F478052C84
:1024900003D2746A3E8834443C80491CC9B2A942C4
:1024A000EEDB3C8823441BB2ACF80030002B01DA91
:1024B000ACF80000574D0621A9615749B1F90060F9
:1024C000EEB3002462E000BFC4EBC40101EB4103A2
:1024D0000AEB830191F89336192B3DD201F29661F4
:1024E0000B784F7803EB072704EB440305EB43130A
:1024F000DF618F7891F803C007EB0C27DF620F795B
:1025000091F805C007EB0C279F618F791F62CF7987
:1025100083F846700F7A91F809C007EB0C279F6289
:102520008F7A91F80BC007EB0C275F6298700F7BD6
:1025300083F859704F7B83F85A708F7B00E027E057
:1025400083F85870CF7B83F85B700F7C83F85C70E6
:10255000497C83F85D1017E004EB440105EB411161
:102560001923C861C8628861086281F84600486220
:1025700088628B7081F8590081F85A0081F8580000
:1025800081F85B0081F85C00641CE4B2B4429BDB20
:10259000B8F1550F60D12149098801295CD1204942
:1025A0008884B1F922000A283CDD022088843DE0BD
:1025B0001CED072032C4072000C20720980708201E
:1025C0002CC40720AAC20720B0C207202200001096
:1025D000B6C207201CC2072006C20720F264001002
:1025E00060000010BCC207205EC40720C2C20720E2
:1025F000F207082014C2072017C1072020C20720B5
:1026000096C10720FEC1072084C1072002C207200F
:102610005800001008FC072086C1072080C1072051
:102620009CEE0720C88B012800D18A84888C002862
:1026300012D1B1F90800401D90FBF9F2ABF802206D
:102640004A89ABF80820B1F90C2058460AB1524229
:1026500002818988ABF80A10BDE8F88FFD4AFE4870
:102660001178052901D0012905D1517819B9FB4903
:102670000978552902D0FA49098803E00178002930
:1026800001D0491E01707047F648416821F440218D
:1026900041F480214160416821F4403141F48031AE
:1026A0004160416821F4404141F480414160416C06
:1026B00021F4402141F400214164416C21F4403176
:1026C00041F400314164416C21F4404141F4004146
:1026D0004164E548016821F0E0610160016841F46E
:1026E00000110160016821F480310160016821F46A
:1026F0007F4141F4807101608115C160DB4889032D
:10270000016070472DE9F041D94C60882188401A5A
:1027100000B203F0FFF8A51D2880A0886188401A48
:1027200000B203F0F7F86880A0882188401A00B250
:1027300003F0F0F84FF49672A880A4F18E01904255
:1027400001DAA0880AE0B5F90200904201DA608857
:1027500004E0B5F90000904201DA2088488591F83C
:1027600002C00023BCF1000F22D0C248B1F92A20D8
:102770000468144404604468144444608468144445
:102780008460C4682244C2604A8E521C12B24A86D7
:10279000B2F5805F00DB4B86B1F9322094052FD172
:1027A000921250F8224024120C8540F8223027E083
:1027B000B14FC8780C7907EB8015B1F92A2045F89C
:1027C0002420A20710D100252A4607EB801600BF5F
:1027D00056F82270521CD2B23D44102AF8D32A1166
:1027E000A44D203D25F81020401CC0B2C870102810
:1027F00006D3641CE0B2CB700871102800D30B71B3
:102800000CF1010C4B701CF00100974A887005D048
:10281000106820F0FF00001D106034E0C978080740
:102820000028106820F0FF0002DB00F1010001E049
:1028300000F1020010609148036843F08053036088
:10284000036A43F080430362036E43F080630366D0
:10285000CB07436908D043F0805343618B07436B38
:1028600005D423F0804304E023F08053F5E743F0E0
:10287000804343634907416F02D421F0806101E046
:1028800041F080614167106840F080701060BDE8E1
:10289000F081F0B576488E38B0F9201019B1A1F169
:1028A0000101018485E00022764C8273134674494D
:1028B000B4F9004011E000BFC3EBC30505EB4505CB
:1028C00001EB8505AE78012E05D1ED78142D02D2ED
:1028D000857B6D1C85735B1CDBB2A342ECDB867BC6
:1028E000022E66D341F28833C0E91A23002302671F
:1028F00017E000BFC3EBC30505EB450501EB8505FC
:10290000AF78012F0BD16D6A876EBD4200DD856601
:10291000C76EBD4200DAC566076F3D4405675B1CA4
:10292000DBB2A342E6DB036F012593FBF6F74767B3
:10293000C36E03B9C566836E64267343C66E93FB8C
:10294000F6F38367A02B00DD4573782B01DA427321
:102950002FE0407B01282CD100226FF0310326E0CC
:10296000C2EBC20000EB400001EB80008578012D36
:102970001BD1456ABD4205DDB0F85050A5F10105F7
:10298000A0F8505005DAB0F8505005F10105A0F854
:102990005050B0F950509D4202DAA0F8503004E097
:1029A000322D02DD3225A0F85050521CD2B2A24284
:1029B000D6DB00BFF0BD2DE9F0412A480168324A5C
:1029C000114001602D4C216841F47C712160C16986
:1029D00021F44021C161216E41F0007121664168FE
:1029E00021F040614160206840F00050206028489C
:1029F000264B29490278274893F83C50B1F900103A
:102A00000078154307D030B1052904DDA56945F4E8
:102A10008075A56103E0E56945F48075E56193F88B
:102A20008830134307D030B1052904DDA06940F098
:102A30004000A06103E0E06940F04000E061D22086
:102A4000FDF7D5FB154D20B16868012828D000B1ED
:102A50002FE02AE070C20720DEC0072006C1072051
:102A6000A8C1072000C002400040034000E100E090
:102A700096C007203CED07201CE9072000C0092074
:102A8000E8EE072084C10720FF00F0FF5CED07207F
:102A900015000010E1C007201EC107200C00001027
:102AA000A06940F00050A06103E0E06940F00050F0
:102AB000E061D220FDF79BFBF74E10B12868662835
:102AC00015D03068C007A0B1E06F40F00070E0673B
:102AD000D220FDF78CFB10B128686C280ED030682E
:102AE000800710D4E06940F01000E0610FE06868F2
:102AF000E9E7A06F40F00070A067E9E76868002888
:102B0000F0D0012803D1A06940F01000A061D220CC
:102B1000FDF76DFBE14FDFF8888310B128686D2861
:102B20000AD0387802280DD0306840070ED4E0690A
:102B300040F40070E0610DE068680028F7D00128DB
:102B400004D007E098F800000028F0D0A06940F415
:102B50000070A061D220FDF74AFB10B128686A28F6
:102B600004D0306810F4FF6F05D009E0686810B138
:102B7000012805D008E0E06940F08000E06103E052
:102B8000A06940F08000A061D220FDF730FB10B1B9
:102B900028686B2806D0387801280FD0C148007803
:102BA00038B901E06868FBE7A06940F02000A06147
:102BB0006DE6E06940F02000E06168E698F800000A
:102BC0000028F6D0F0E72DE9F05FB64C00264FF074
:102BD0000108207D0A2807D2401CC0B220750A28AF
:102BE00002D3267584F81580A4F84660A4F84860DE
:102BF000CD20FDF7FCFAAC4DDFF8B092A0B3AC48A5
:102C00004FF6FF720168CE2908D0CF2909D0D1290B
:102C100009D0D2290BD0D0290CD011E0A4F848203B
:102C20000EE040680AE04068A4F8460008E0A4F816
:102C3000462005E04068A4F84600C043A4F84800D8
:102C400000272FE008FA07F0B4F84810834608423E
:102C5000C7EBC70000EB400005EB800005D030F863
:102C6000401F491C018002E021E0A0F84060C7EB52
:102C7000C70000EB400005EB800082464030322266
:102C80000021FDF707FBBAF94000142801DD8AF89E
:102C90002C80B4F846101BEA010F01D08AF82C6092
:102CA0007F1CFFB2B9F900008742CBDD46E0607DB2
:102CB000B8B3002108464346B9F900200AE000BF36
:102CC000C0EBC00707EB470705EB8707401C87F8F9
:102CD0002C30C0B29042F3DD764B0020B3F90030C7
:102CE00014E000BFC0EBC00707EB470705EB870701
:102CF00097F802C0BCF1020F02D0BCF1010F03D162
:102D0000491C87F82C60C9B2401CC0B2904201DA5D
:102D10009942E7DB6848B0F900003C280EDA002051
:102D20000AE00BE0C0EBC00101EB410105EB8101C2
:102D3000401C81F82C60C0B29042F3DD0020632378
:102D4000B9F900100EE000BFC0EBC00202EB420276
:102D500005EB8202D76B1FB182F82C307F1ED76340
:102D6000401CC0B28842EFDB6675667400200DE03F
:102D7000C0EBC00202EB420205EB82029278012A0C
:102D800002D1627C521C6274401CC0B28842EFDBEC
:102D9000BDE8F09F2DE9F0410746C0EBC70042496E
:102DA00000EB400011F82020032A73D101EB8004CE
:102DB00094F84250A807B4F9460010D54FF4966134
:102DC00088421ADA401C00B2A4F84600884214DB9C
:102DD000A4F846106078C0070FD1012209E060B165
:102DE000401E00B2A4F8460038B96078C00704D08D
:102DF00000220021384601F05BFE2807B4F94800A4
:102E00004FF00A064FF000010ED50A281FDA401CC9
:102E100000B2A4F848000A2819DBA4F848606078DA
:102E2000800714D4012209E000280DDDA0F1010083
:102E300000B2A4F8480050B94FF000024FF0010171
:102E4000384601F035FE02E001DAA4F84810E80641
:102E5000B4F94A000ED50A2817DA401C00B2A4F8CB
:102E60004A000A2811DBA4F84A60607840070CD4B5
:102E7000012206E048B1401E00B2A4F84A0020B981
:102E800000220221384601F013FE6078000715D0B9
:102E9000042025E03BE00000C4C0072001C107205A
:102EA0001EC4072008C00720E8EE072084C10720C1
:102EB0000C00001058C407201EC10720FF480078EE
:102EC00020B1E078142801D9052009E094F84200E7
:102ED000800601D5022003E0E078142801D2012009
:102EE000A070E0780A2894F82C0002D340F080000B
:102EF00001E000F07F00F24984F82C00B4F95000A2
:102F0000B1F91C10084420634FF47A706063BEE48A
:102F100070B5EC490020EC4DB1F90C2001210346BD
:102F200001FA00F4224201D0295400E02B54401C45
:102F3000C0B20C28F4D3E54C2878E54E21788142C4
:102F40000CD0B6F90010012908DB01287ED000233F
:102F500001220B21DFA000BF1DF0F6FC617868782C
:102F600081420BD0B6F90010022907DB01286ED090
:102F7000002302220B21DCA01DF0E6FCA178A8783A
:102F800081420BD0B6F90010032907DB01287CD061
:102F9000002303220B21D9A01DF0D6FCE178E878AC
:102FA00081420BD0B6F90010042907DB012872D04A
:102FB000002304220B21D6A01DF0C6FC217928791C
:102FC00081420BD0B6F90010052907DB012867D034
:102FD000002305220B21D3A01DF0B6FC617968798E
:102FE00081420BD0B6F90010062907DB01285CD01E
:102FF000002306220B21D0A01DF0A6FCA179A87900
:1030000081420BD0B6F90010072907DB012851D007
:10301000002307220B21CDA01DF096FCE179E87971
:1030200081420BD0B6F90010082907DB012846D0F1
:10303000002308220B21CAA01DF086FC217A287AE1
:1030400081420FD0B6F90010092901E013E017E022
:1030500008DB012838D0002309220B21C5A000BFBE
:103060001DF072FC0020295C2154401CC0B20C28C9
:10307000F9D370BD09E001231A460B21C2A06BE70A
:10308000012302220B21C5A076E7012303220B2195
:10309000C7A081E7FFE7012304220B21C9A08BE72A
:1030A000012305220B21CCA096E7012306220B2148
:1030B000CEA0A1E7012307220B21D1A0ACE7012379
:1030C00008220B21D3A0B7E7012309220B21D6A0A8
:1030D000C6E770B5C820FDF78AF8D8490022A0B32A
:1030E000D74C01232068C92803D0CA28104611D024
:1030F0002CE0002000EB400404EB001411F82450F5
:10310000322D02D26D1C01F82450401CC0B202289E
:10311000F0D325E0D4F8045003FA00F4254200EB84
:10312000400409D004EB001611F82640322C07D2D7
:10313000641C01F8264003E004EB001401F824208D
:10314000401CC0B20228E7D30AE01FE000EB4004B5
:1031500004EB0014401CC0B201F824200228F5D36F
:103160005FF0000000EB400404EB001411F8245061
:1031700001EB8404142D02D984F83C3001E084F87A
:103180003C20401CC0B20228ECD372E700EB4003A5
:1031900003EB0013401C01F8232001EB8303C0B2B2
:1031A00083F83C200228F1D363E72DE9F041A54FD5
:1031B000A548A64CB7F90010B0F90020B4F90000FA
:1031C000914202DD00F1010002E002DAA0F101000B
:1031D0002080062200219D48FDF75CF8B4F900101C
:1031E0009B480126052900DD06700024012900DA2C
:1031F00004709848B7F90010984DB0F9002096482F
:10320000931E99420BDA90F900201E2A16DA521CFE
:1032100052B202701E2A11DB2A88521E0CE0914223
:103220000BDD90F900201E2A08DA521C52B20270FF
:103230001E2A03DB2A88521C2A8004708848B8465C
:10324000B0F90000814201DD142203E085480088C6
:10325000093002B200218148FDF71CF8F020FCF78C
:10326000C6FF28B176480168F12901D1406828805D
:10327000B5F900107C48012901DC067000E00470FB
:103280007A487B4FB0F90000A0F13201282913D809
:10329000B8F90010774D814202DD2888401C288053
:1032A0007548B0F90000814202DA2888401E288063
:1032B000062200216F48E1E0E9E000000BC1072091
:1032C00008C00720F2640010100808203A0A0820FD
:1032D0008EC107204176746F6D617420233120699F
:1032E00073204F46460000004176746F6D61742074
:1032F0002332206973204F46460000004176746FE8
:103300006D6174202333206973204F46460000000E
:103310004176746F6D6174202334206973204F46A9
:10332000460000004176746F6D617420233520697A
:1033300073204F46460000004176746F6D61742023
:103340002336206973204F46460000004176746F93
:103350006D6174202337206973204F4646000000BA
:103360004176746F6D6174202338206973204F4655
:10337000460000004176746F6D6174202339206926
:1033800073204F46460000004176746F6D617420D3
:103390002331206973204F4E200000004176746F66
:1033A0006D6174202332206973204F4E200000008D
:1033B0004176746F6D6174202333206973204F4E02
:1033C000200000004176746F6D6174202334206901
:1033D00073204F4E200000004176746F6D617420A1
:1033E0002335206973204F4E200000004176746F12
:1033F0006D6174202336206973204F4E2000000039
:103400004176746F6D6174202337206973204F4EAD
:10341000200000004176746F6D61742023382069AC
:1034200073204F4E200000004176746F6D61742050
:103430002339206973204F4E200000005CED0720E7
:103440000C00001014C2072062C1072064C40720CA
:103450001600001064C107201400001024C20720C9
:1034600066C107201EC207201CC407206CC10720AC
:1034700015000010660000106EC10720FCF70AFF5F
:10348000B5F90000052800DD3E70012800DA3C7027
:10349000FF48B0F90000A0F13201FE4F1E291BD8F1
:1034A000B8F90010FC4D814202DD2888401C2880BC
:1034B000FA48B0F90000814202DA2888401E2880CC
:1034C00006220021F448FCF7E5FEB5F900000528C6
:1034D00000DD3E70012800DA3C7018E52DE9FE4F52
:1034E0000546EF4830F9151011B1491E20F81510A6
:1034F000EB49091D31F9152012B1521E21F8152092
:1035000005EB450202EB0512E64B029203EB820447
:10351000E54AB4F90830B2F900606422B34201DD33
:1035200020F81520002B01DA21F81520DC4A30F8AC
:1035300015307C3A00264BB131F8153033B1B2F872
:103540005E30BBB140F6B830A2F85C00A2F85C6017
:1035500094F83E00401CC0B284F83E000A2801D313
:1035600084F83E60DFF84483D14FB8F80000322879
:1035700009D017E04FF41673A2F85E3020F81560FA
:1035800021F81560E2E794F83C00F8B9B4F90200BC
:1035900050281BDA94F83D00C00717D101212846B6
:1035A00001F091FDB8F90000C8280FDDB4F908005A
:1035B000FCF7A6FEB7F90010884207DD94F83D003D
:1035C000C00703D00021284601F07DFDB7F90010A7
:1035D000B4F908004942884212DD607B0A280CD207
:1035E000401CC0B260730A2875D3A07B002872D03B
:1035F000A673284601F017FC6DE00A2060736AE0AC
:1036000069DA607BF0B3401E10F0FF00607362D196
:10361000A07BB8BB0120A073A648A74F0088401C20
:1036200000F0070004EB4000008CADF80400B88BFC
:103630008DF800004FF063024FF001016846FCF77F
:103640001EFE04F11C049DF800002076387E8DF8E3
:1036500000004FF00C024FF001016846FCF70FFE2E
:103660009DF800006076387B8DF800001F22012154
:103670006846FCF704FE9DF80000A0769DF8040063
:10368000E07600E027E0387A8DF80000172200216C
:103690006846FCF7F4FD9DF80000207738798DF836
:1036A00000003B2200216846FCF7E9FD9DF8000080
:1036B000607738788DF800003B2200216846FCF7DF
:1036C000DEFD9DF80000A0779DF80500E0772680DC
:1036D0006680A4F11C0448F6A04894F83E0088BB1C
:1036E000B4F908106069DFF8D4A10844DFF8D0917C
:1036F00045F2555B6061404525DB39F915205A4597
:1037000003D1704830F8157001E039F815703AF8B7
:1037100015001EF08FFD80B2B8420AD2616900F137
:103720000100A1F50041A1F54A6161613AF9152056
:103730002BE031D93AF9150039B21EF06FFEC4F80A
:10374000148029E04EE06049884225DC39F91520D3
:103750005A4503D15B4830F8157001E039F815700F
:103760003AF815001EF066FD80B2B84205D93AF964
:10377000150039B21EF052FE384658B16269401E3B
:1037800002EB080161613AF9152001B210461EF002
:1037900045FE01E04C4860613AF815001EF04AFD14
:1037A000014639F91500584502D1464830F915004F
:1037B0004FF47A72514308B1B1FBF0F00A21B0FB2B
:1037C000F1F0208241480088012805D14049029843
:1037D00001EB4000408A208204F1100064220021A5
:1037E000FCF758FDA07B012813D1A08B4746B842B7
:1037F0000ED2B4F90800FCF783FDA18B084480B217
:10380000A083B84205D3A683E08B401CE08300E090
:10381000A6833049B4F90A00B1F90010884201DDED
:10382000207BA0B3B4F84000B0F10100A4F8400040
:103830004FF4167904F140004A460021FCF72AFDB6
:10384000B4F9400040F24E27B84205DB94F83F102F
:1038500041F0010184F83F100A2805DC94F83F008C
:1038600020F0010084F83F001B49B4F90A00B1F9C7
:103870000010884201DD207B80B3B4F84200401E76
:10388000A4F8420004F142004A46002127E050E03B
:1038900068C107201DC4072066C407206AC107202D
:1038A00084C007205CED07204AC107201CC1072007
:1038B00042C10720FCC1072020400240B49C020006
:1038C00058C2072050C207206073FFFF80C1072045
:1038D0009CEE07205CC107205AC107202DE0FCF7B1
:1038E000D9FCB4F94200B84205DB94F83F1041F02E
:1038F000020184F83F100A2805DC94F83F0020F00C
:10390000020084F83F00606C40451ADA401C606495
:10391000404517DB6664F94C34F815001EF08AFC4C
:10392000401C01B234F9150003B0BDE8F04F1EF0A1
:1039300075BDB4F84000401C78E7B4F84200401C64
:103940009EE76664BDE8FE8F2DE9F84FEC4C002140
:10395000A0790A2807D2401CC0B2A0710A2802D35D
:10396000A17101202072E079052805D2401CC0B267
:10397000E071052800D1E171BE20FCF738FCE14977
:1039800028B1E1480268BF2A1AD1406882E0207A53
:10399000002815D0DD4BDE481A78552A04D05A7815
:1039A000552A01D0008875E0DA48DFF86CA3DB4DBA
:1039B000B0F90000DA4ADFF86C9310B1012849D061
:1039C00069E0AB464FF0140C6D466FF013071E5CB8
:1039D000552E0FD025F81070401CC0B20228F6D327
:1039E000BDF90050BDF90230CF489D4214DD2B4691
:1039F000056012E000EB400606EB00180BEB8806B2
:103A000096F80C80B8F1000F02D025F810C0E3E75B
:103A1000768925F81060DFE70360002B02DAB2F93F
:103A2000000011E0282B01DD28230360B9F90050C4
:103A3000B2F900300068EA1A02EB820252004243F7
:103A4000C82092FBF0F01844A27D022A22D1BAF9D4
:103A500000001FE06888401D0880A07D022802D178
:103A6000BAF800000880B1F90030B2F900008342D2
:103A700000DB0880B1F90020B9F90000824200DBC8
:103A80000880AA48808C30B1B1F900204FF4FA7058
:103A9000824200DB0880B1F90000622141436422C8
:103AA00091FBF2F1A24B19806621484390FBF2F0A2
:103AB000A0490880BDE8F88F2DE9F041904CB4F999
:103AC000260008B1401EE0849B489C4D934E008820
:103AD0002880B6F908000A27002806DAFCF710FC4F
:103AE00090FBF7F0298808442880B6F95400002894
:103AF00006DAFCF705FC90FBF7F0298808442880DB
:103B00008F49B5F900008F4AB1F900103C2390FBB2
:103B1000F1F1491CC9B2A174B2F9002090FBF2F096
:103B2000401CC2B28848E274B0F90050A94201DDDD
:103B3000018004E0AA4203DAE18C09B90280E3843F
:103B400082490A8882490AB10A880280B1F90020B4
:103B5000BDE8F04101217C48FCF79CBB2DE9F05FFA
:103B60007C48674CB0F900106187B4F95C0010B173
:103B7000401EA4F85C00B4F95E0010B1401EA4F829
:103B80005E0066484FF00A0890F83F20920703D184
:103B900090F88B00800702D091FBF8F06087607A84
:103BA0004FF000094FF0010A0A2808D2401CC0B2A9
:103BB00060720A2803D384F8099084F80AA0E120EF
:103BC000FCF715FB644D4F4B40F2F23BD0B34E482F
:103BD0000168642908D069290AD06E290CD0E5292A
:103BE0001ED0E6291ED004E14168E08B0844FFE0C6
:103BF0004068E18B081AFBE0A08B401E00B2A08356
:103C00001E2806DD5549B5F90000B1F900108842BB
:103C100005DA0A230022E721E620FCF7B1FAE8E002
:103C20004068E5E0B5F90000B3F90010884212DD04
:103C3000A0EB01000A2806DDB4F91C00002802DD13
:103C4000401FD5E01CE0B4F91C00002832D0A17A56
:103C500081B3401ECCE02DDA081A0A2807DDB4F93A
:103C60001C0040F2F731884201DA401DC0E0B4F98F
:103C70001C00B0F57F7F1DDAA17AD9B1401CB7E0F6
:103C8000A07AB8B136480088A0B9B4F91E00E08621
:103C9000B4F93810628F91FBF8F6B6EB420F71DC85
:103CA0000DDAC2EB02178F4209DAB4F85C1021B1C9
:103CB000401E95E09DE00A3892E0C01E90E0C2EB05
:103CC00002178F4201DD9642F2DCB5F90050B3F9DC
:103CD0000030134F134E9D4267DAB7F90070B6F902
:103CE0000060A7EB0606A3EB0607AF424BDD0029F9
:103CF00050DAB4F85C10A9BB0A3071E0D09C020025
:103D000008C0072016C207200C00001096C107202B
:103D10004CC1072080C1072044C107205CED07206B
:103D200032C1072034C10720540000109CEE072048
:103D30005000001056C40720580000105AC4072035
:103D400046C1072048C1072058C4072058C1072092
:103D500084C107204AC1072000C207203CC10720B8
:103D600028C207200CE000BFB4F85C1041B916E08F
:103D7000C2EB421303EB8212B2FBF8F28A4230DD4F
:103D8000401C2DE01AE0F71706EB9776A3EBA6068A
:103D9000AE4206DD02EB82038B42E9DDE4E7801CE4
:103DA0001EE05B1E9D42E3DB1BE01ADDB7F900104D
:103DB000B6F90020891ACA18AA4205DAB4F85C10CC
:103DC00000293FF478AF73E7CA1701EB927103EB58
:103DD000A101A94218DAB4F85C100029F3D1801EC1
:103DE000E0865A460A21FF48FCF754FAE08EE08349
:103DF000A083FE4884F80C9084F80B904D46FA4B53
:103E00005246B0F900100FE05B1C9D42DBDCE8E796
:103E1000C0EBC00606EB460603EB8606F6781E2EC0
:103E200000D22273401CE072E07A8842F0DB207BF3
:103E300020B94FF41670A083E083E086E9485A4623
:103E40000A211A38FCF726FAA572BDE8F09F2DE981
:103E5000F05FE94E0020E649DFF898834FF00A0B47
:103E60008246B6F9003024E0E44AE54C125C34F9AD
:103E70001220B2F5FA6F0A560DDA0A2A08DA521C35
:103E800052B20A540A2A12DB012208F800200EE07E
:103E900001F800B00BE0002A07DB521E52B20A54B0
:103EA000002A04DC08F800A001E001F800A0401C92
:103EB000C0B29842D8DB0024DFF84893D24DD34FEC
:103EC00071E0D34830F81400002818F8040001D03D
:103ED00078B101E001280CD019F90400002818DBA2
:103EE000401E40B209F80400002814DC05F804A0C4
:103EF00011E019F904100A2908DA491C49B209F835
:103F000004100A2907DB0120285504E009F804B051
:103F100001E009F804A0395D285D81423FD0B14A33
:103F2000363A918E491C9186012807D014B3012C92
:103F300025D0022C28D0032C2BD030E034B1012C1A
:103F400009D0022C0CD0032C0FD028E001231A46F4
:103F50000F21B0A021E0012302220F21B0A01CE01C
:103F6000012303220F21B1A017E0012304220F2116
:103F7000B1A012E0002301220F21B2A00DE0002326
:103F800002220F21B4A008E0002303220F21B7A0D2
:103F900003E0002304220F21B9A01CF0D5FC285D0A
:103FA0003855641CE4B2B6F90000844289DB4CE762
:103FB000B849B94A012008701070487050707047B5
:103FC0002DE9F05FB648DFF8DCE2DFF8D0C2B0F9E7
:103FD0000070BEF90000834CC0EB0011363CBCF908
:103FE00002506FF01D0A6FF0950B0026DFF8A482D7
:103FF000B4F93E000AEB81020BEB8103BD4204DC05
:10400000A94FB7F90070BD4205DA824203DD834251
:1040100001DA88F80060A54DE146BCF908C0B5F9A1
:1040200000509D4FBCEB450F03DC6D42BCEB450FD0
:1040300004DA824202DD834200DA3E706FF0090248
:1040400002EB81017546814220D1A07DF0B998F83C
:10405000000001281AD13878012817D14FF4D67002
:104060001EF0E8F89249B1F9001088420ED091484C
:10407000008858B199F83D00C00707D14FF4D670B9
:104080001EF0CCF98C480178491C01708449B9F9BB
:1040900002204846B1F900108A4206DC8249B0F994
:1040A0004E20B1F900108A420FDAB5F90010B4F9C8
:1040B0003E20C1EB01110AEB8103934205DD0BEBBE
:1040C0008101914201DA88F801607849B9F9540018
:1040D000B1F90010B0EB410F03DC4942B0EB410FE6
:1040E0000EDAB5F90000B4F93E10C0EB00100AEB8F
:1040F00080028A4204DD0BEB8000884200DA7E7089
:10410000B5F90000C0EB00116FF0090000EB810071
:10411000B4F93E10884222D1A07D00BB98F801007E
:1041200001281CD17878012819D14FF4E576304662
:104130001EF080F802465E48B0F902108A420ED0A6
:104140005C48008802280AD199F88900C00706D186
:1041500030461EF063F958480178491C0170B5F9E2
:1041600000006FF00101C0EB001001EB8000B4F91A
:104170003E10884202D1BDE8F05F19E765E62DE9FF
:10418000F0034E484E4ADFF83CC100784FF000087B
:104190004FF0010918B34C486146B0F900604B4834
:1041A000B1F90010B0F900704948BE42B0F90030D2
:1041B0004848B0F900404848B0F900504748B0F9C5
:1041C00000000DDA834203DB844201DB854207DA1B
:1041D0004348B0F90000814203DA491C82E0AAE0BA
:1041E00088E098E03EC00720E8EE072084C1072061
:1041F0004DC4072035C207208AC10720AF9C0200AA
:104200001CED07204C00001039C2072051C40720C4
:10421000C8C20720534B20233120416C61726D00CE
:10422000534B20233220416C61726D00534B20238D
:104230003320416C61726D00534B20233420416C5C
:1042400061726D00534B20233120416C61726D20EF
:104250006973206F66660000534B20233220416C47
:1042600061726D206973206F66660000534B2023D6
:104270003320416C61726D206973206F66660000A7
:10428000534B20233420416C61726D206973206F81
:10429000666600005A0000105CC407205CED072031
:1042A00056C4072052C107205000001042C1072009
:1042B00058C2072082C107205C00001001C10720FE
:1042C0001EC407206800001000C2072076C1072026
:1042D00008C207200AC207200CC207203EC10720DF
:1042E00074C1072009B2ACF80010814213D182F8E2
:1042F000008013E0A74FB7F90070BE420BDD834288
:1043000009DD844207DD854205DD21B1491E08B281
:10431000ACF8000050B11078002809D1BDE8F003D6
:104320000F2301226E21D220FBF72ABF82F80090D2
:10433000BDE8F0037047ACF80080F7E72DE9F04FD7
:104340009548DFF8588297490378954898F90020F6
:10435000B1F90010B0F9000088B023B1022B34D0BD
:10436000012B7ED0FDE0904E904B347896F801C042
:10437000B3F90A501F7BB3F9566093F8583022B155
:10438000012A0FD1552C14D10FE0552C03D18542B1
:1043900068DC002F66D1BCF1550F03D1864261DC89
:1043A000002B5FD108B0BDE8F08F8D42FADA002F04
:1043B000F8D1BCF1550F7ED18E42F3DA002B7AD0C2
:1043C000F0E700BF88F80000ECE77A4C784B94F8EF
:1043D00003C0B3F90030A76AE56F009594F8575011
:1043E0000195D4F8D050029594F8AB500395D4F8C9
:1043F0002451049594F8FF500595D4F8785106950A
:1044000094F85351AE46D4F8CC51079594F8A7517F
:10441000D4F87462AB46D4F82052B146AA4694F858
:10442000FB5194F84F42DBB387421BDCBCF11E0FFB
:1044300018D2012B05DD009E864213DC019E1E2E44
:1044400010D2022B05DD029E86420BDC039E1E2E3F
:1044500008D2032B08DD049E864203DC059E1E2E37
:1044600001E05CE07DE07CD2042B05DD069E864207
:1044700077DCBEF11E0F74D2052B05DD079E864248
:104480006FDCBBF11E0F6CD2062B03DD824568DCAE
:104490001E2D66D2072B03DD814562DC1E2C60D207
:1044A000012A8DD13BB18F428ADABCF10A0F87D243
:1044B000022B2DDB00E06BE00098884284DA019843
:1044C0000A28F4D2032B23DB02988842ECDA039803
:1044D0000A28ECD2042B1BDB04988842E4DA059806
:1044E0000A28E4D2052B13DB06988842DCDABEF1F9
:1044F0000A0FDCD2062B0BDB07988842D4DABBF11B
:104500000A0FD4D2072B03DB8A45CDDA0A2DCED28F
:10451000082B3DDB8945C7DA0A2C39D342E7274C03
:10452000254BB4F90050B4F90260AA46244DB3F902
:104530000030B4F90440D5E900C7AD68B94693B17D
:1045400082450EDCBCF1000F0BD1012B04DD86424D
:1045500007DCB9F1000F04D1022B04DD844200DC3A
:104560000DB101202EE7012AD8D18BB18A45D5DAC9
:10457000BCF1000FD2D1022B04DB8E42CEDAB9F1AE
:10458000000FCBD1032B03DB8C42C7DA002DC5D142
:10459000002017E778C1072000C1072008C00720C6
:1045A00070C1072072C1072096C107205CED07206B
:1045B00084C10720E8EE072088C10720AAC207208F
:1045C0009807082070B5F9480278F948016812B1D7
:1045D00041F0010101E021F001010022F54C0160F0
:1045E0005FF0010102EB420303EB021304EB8303D0
:1045F00093F83D30DB0706D0551C01FA05F305683A
:104600009D431D4304E0531C056801FA03F39D43D9
:10461000521CD2B20560022AE4D3E74C002200BF4C
:10462000C2EBC20303EB430304EB83035B7833B1B8
:10463000D51C01FA05F305689D431D4303E0D31C17
:1046400001FA03F39D43521CD2B205600C2AE7D352
:104650002A46D74D00231435EC5C34B103F10F0624
:1046600001FA06F4A243224304E003F10F0401FA25
:1046700004F4A2435B1CDBB2062BEDD3CF4D002329
:104680000260EC5C012C2FD003F1190401FA04F450
:10469000A2435B1CDBB2042BF3D30260836822EAE3
:1046A0000301C16044680C43C54944600D8815B1DD
:1046B00024F0007444604C881CB1446824F0806489
:1046C00044608C881CB1446824F000644460C9884C
:1046D00019B1416821F0805141609343D943B94BEE
:1046E00001611B883BB109E003F1190601FA06F4E8
:1046F000A2432243CDE761F00101016103694168F2
:104700001940C0E9011270BDF8B54FF46065284644
:104710001DF090FD401C04463F2800D9002421B222
:1047200028461DF07BFE40F6026630461DF082FDF5
:104730003F2800D0204601B230461DF06FFE2846CB
:104740001DF078FD4FF4806101EB401005465520C7
:104750008DF8000000268DF8016052208DF80200CF
:104760008DF80360694628461DF0DDFE6946281D68
:1047700000961DF0D8FE944CA08B8DF80000207E92
:104780008DF80100207B8DF802008DF803606946EA
:1047900005F108001DF0C7FE207A8DF80000207991
:1047A0008DF8010020788DF802008DF803606946CD
:1047B00005F10C001DF0B7FE41248DF800408DF886
:1047C00001408DF802408DF80340694605F1100064
:1047D0001DF0A9FE8DF800408DF801408DF80240D3
:1047E0008DF80340694605F114001DF09CFE8DF81C
:1047F00000408DF801408DF802408DF80340694675
:1048000005F118001DF08FFE8DF800408DF8014075
:104810008DF802408DF80340694605F11C001DF03B
:1048200082FEF8BD2DE9F843674D604A203D002621
:104830002F154FF46061012802D000287DD034E1AB
:1048400001201070884608461DF0F4FC401C044608
:104850003F2800D9002421B240461DF0DFFD40F67C
:10486000026948461DF0E6FC3F2800D0204601B210
:1048700048461DF0D3FD40461DF0DCFC07EB401719
:1048800050208DF800008DF8016041248DF8024021
:104890008DF80360694638461DF045FE6946381DAF
:1048A00000961DF040FE05F12005A88B8DF8000054
:1048B000287E8DF80100287B8DF802008DF80360BA
:1048C000694607F108001DF02EFE287A8DF80000D9
:1048D00028798DF8010028788DF802008DF80360A2
:1048E000694607F10C001DF01EFE8DF800408DF8A2
:1048F00001408DF802408DF80340694607F1100031
:104900001DF011FE8DF800408DF801408DF8024039
:104910008DF80340694607F114001DF004FE8DF880
:1049200000408DF801408DF802408DF80340694643
:1049300007F118001DF0F7FD00E011E08DF80040D0
:104940008DF801408DF802408DF80340694607F16B
:104950001C001DF0E8FD0023012202211BA0A2E0A3
:1049600013481670B046026822F001020260154A30
:1049700012881AB1426822F00102426008461DF016
:1049800059FC06463446B94609EB44176946384691
:104990001DF0CDFC9DF8000050283CD19DF8010091
:1049A000C8BB9DF80200412835D11FE00BC107208C
:1049B000C0C007205CED0720E8EE072039C20720C1
:1049C000D8C207203AC10720204002404D61696EDD
:1049D00020706F776572206973206F666600000033
:1049E000641E00E03F24B442CED15EE0694607F188
:1049F00010001DF09CFC9DF8000041280BD19DF893
:104A00000100412807D19DF80200412803D19DF8FB
:104A10000300412802D0002CE4D0E1E705F1200595
:104A2000A88B8DF80000287E8DF80100287B8DF87A
:104A3000020044468DF80380694607F110001DF01E
:104A400072FD287A8DF8000028798DF80100287809
:104A50008DF802008DF80340694607F114001DF03F
:104A600062FDFF48422401788DF8001040788DF8EF
:104A700001008DF802408DF80340694607F11800E7
:104A80001DF051FD8DF800408DF801408DF8024079
:104A90008DF80340694607F11C001DF044FD012319
:104AA0001A460221EFA01BF04FFF00BFBDE8F883BC
:104AB0002DE9F84F05460C004FF054060BD0012CA1
:104AC00004D0022C04D0032C04D004E0552602E0CC
:104AD000752600E04C26E949C5EBC503DFF898A32D
:104AE00003EB43034FF0000B4FF460604FF4806919
:104AF00001EB8301012A02D0002A7DD090E134B17C
:104B0000012C08D0022C0AD0032C0CD00FE04A78DC
:104B100042F001020AE04A7842F0020206E04A78D6
:104B200042F0040202E04A7842F008024A7081F83A
:104B3000534080461DF07EFB401C87B23F2F00D9BA
:104B4000002739B240461DF069FC40F602601DF0B6
:104B500071FB80B23F2800D0384601B240F60260B7
:104B60001DF05CFC40461DF065FB09EB401087B270
:104B700053208DF800008DF801508DF80260D84662
:104B80008DF803B0694638461DF0CDFC6946381DE6
:104B9000CDF800801DF0C7FCBAF83C000AF12006F1
:104BA0008DF80000307E8DF80100307B8DF802001A
:104BB0008DF80380694607F108001DF0B4FC307AD7
:104BC0008DF8000030798DF8010030788DF8020002
:104BD0008DF80380694607F10C001DF0A4FC412606
:104BE0008DF800608DF801608DF802608DF803602B
:104BF000694607F1100000E084E01DF094FC8DF898
:104C000000608DF801608DF802608DF803606946E0
:104C100007F114001DF087FC8DF800608DF801602D
:104C20008DF802608DF80360694607F118001DF0E9
:104C30007AFC8DF800608DF801608DF802608DF8C7
:104C40000360694607F11C001DF06DFC25B1012DC4
:104C500020D0022D3AD0E3E034B1012C09D0022C4F
:104C60000CD0032C0FD0DBE000230122042184A010
:104C70000DE001231A46042187A008E00223012247
:104C800004218CA003E003230122042191A01BF046
:104C90005BFEC5E034B1012C09D0022C0CD0032CF2
:104CA0000FD0BDE000230222042192A0EFE70123F0
:104CB0000222042195A0EAE702231A4604219AA0C1
:104CC000E5E70323022204219FA0E0E734B1012C91
:104CD00009D0022C0CD0032C0FD0A1E0002303221A
:104CE0000421A1A0D3E7012303220421A4A0CEE73D
:104CF000022303220421A9A0C9E703231A460421A1
:104D0000AEA0C4E734B1012C08D0022C0AD0032C89
:104D10000CD00FE04A7822F001020AE04A7822F033
:104D2000020206E04A7822F0040202E04A7822F009
:104D300008024A701DF07EFA84B2A04609EB4410C6
:104D400087B2694638461DF0F2FA9DF800005328F4
:104D500024D19DF80100A84220D19DF80200B04264
:104D60001CD1694607F110001DF0E1FA9DF8000022
:104D7000412813D106E0641EA4B200E03F2444455C
:104D8000DCD14DE09DF80100412807D19DF80200DB
:104D9000412803D19DF80300412802D0002CEDD01A
:104DA000E9E7BAF83C000AF120048DF80000207E03
:104DB0008DF80100207B8DF802005D468DF803B070
:104DC000694607F110001DF0AEFB207A8DF8000057
:104DD00020798DF8010020788DF802008DF80350BD
:104DE000694607F114001DF09EFB42248DF8004037
:104DF0008DF801408DF802408DF80340694607F1B7
:104E000018001DF090FB8DF800408DF801408DF8E2
:104E100002408DF80340694607F11C001DF083FB3A
:104E200000BFBDE8F88F2DE9FC41064600EB4600C7
:104E300000EB0611694800EB8104E08B05280DD3D7
:104E400067484FF460670088801D00F0070004EB9E
:104E50004000008CADF804003846C3E030E10000AB
:104E60004A0000104D61696E20706F77657220698D
:104E700073206F6E0000000000400240E8EE072043
:104E800042505320233120416C61726D2C206F768B
:104E900065726865617400004250532023312041DF
:104EA0006C61726D2C20766F6C746167652069731C
:104EB0002075700042505320233120416C61726D87
:104EC0002C20766F6C7461676520697320646F773E
:104ED0006E00000042505320233120416C61726DFE
:104EE0002C20636F6E6E656374206973206C6F7322
:104EF0007400000042505320233220416C61726DD7
:104F00002C206F76657268656174000042505320F2
:104F1000233220416C61726D2C20766F6C74616756
:104F20006520697320757000425053202332204160
:104F30006C61726D2C20766F6C746167652069738B
:104F400020646F776E0000004250532023322041CE
:104F50006C61726D2C20636F6E6E65637420697373
:104F6000206C6F73740000004250532023332041A3
:104F70006C61726D2C206F766572686561740000DB
:104F800042505320233320416C61726D2C20766F88
:104F90006C746167652069732075700042505320FE
:104FA000233320416C61726D2C20766F6C746167C5
:104FB0006520697320646F776E00000042505320B3
:104FC000233320416C61726D2C20636F6E6E6563BC
:104FD00074206973206C6F73740000005CED07200F
:104FE000FCC107201DF026F9401C85B23F2D00D9D9
:104FF000002529B238461DF011FA40F602684046F5
:105000001DF018F980B23F2800D0284601B2404672
:105010001DF004FA38461DF00DF94FF4806101EBE4
:10502000401085B242208DF800008DF801605720B5
:105030008DF8020000268DF80360694628461DF0B1
:1050400072FAA07F8DF80000E07F8DF801009DF8D6
:1050500004008DF802009DF805008DF803006946F4
:10506000281D1DF060FA04F1340105F108001DF05F
:105070005AFA04F1380105F10C001DF054FAFF4C06
:10508000A08B8DF80000207E8DF80100207B8DF82C
:1050900002008DF80360694605F110001DF043FA27
:1050A000207A8DF8000020798DF8010020788DF8A5
:1050B00002008DF80360694605F114001DF033FA13
:1050C00000BFBDE8FC812DE9F84F0646EC48DFF84B
:1050D000AC9306EB460202EB06124FF0000B4FF0CA
:1050E000420AA9F120094FF460674FF4806500EB94
:1050F0008200012902D000297ED01DE110F83D1F59
:1051000041F00101017038461DF094F8401C84B252
:105110003F2C00D9002421B238461DF07FF940F61B
:10512000026840461DF086F880B23F2800D0204635
:1051300001B240461DF072F938461DF07BF805EBD0
:10514000401085B28DF800A08DF8016043208DF8E5
:1051500002005F468DF803B0694628461DF0E3F96A
:105160006946281D00971DF0DEF9B9F83C0009F1E9
:1051700020048DF80000207E8DF80100207B8DF842
:1051800002008DF80370694605F108001DF0CBF9A7
:10519000207A8DF8000020798DF8010020788DF8B4
:1051A00002008DF80370694605F10C001DF0BBF993
:1051B00041248DF800408DF801408DF802408DF8B3
:1051C0000340694605F110001DF0ADF98DF800406F
:1051D0008DF801408DF802408DF80340694605F1D5
:1051E00014001DF0A0F98DF800408DF801408DF8F5
:1051F00002408DF8034000E021E0694605F1180007
:105200001DF091F98DF800408DF801408DF80240B5
:105210008DF80340694605F11C001DF084F916B1B4
:10522000012E05D088E001231A46052195A003E050
:1052300001230222052198A01BF086FB7CE010F8D8
:105240003D1F21F00101017038461CF0F3FF87B2C9
:105250003C46A84608EB441085B2694628461DF036
:1052600066F89DF80000422824D19DF80100B04264
:1052700020D19DF8020043281CD106E0641EA4B290
:1052800000E03F24BC42E5D156E0694605F110003C
:105290001DF04DF89DF8000041280BD19DF801004C
:1052A000412807D19DF80200412803D19DF8030051
:1052B000412802D0002CE4D0E0E7B9F83C0009F125
:1052C00020048DF80000207E8DF80100207B8DF8F1
:1052D00002005E468DF803B0694605F110001DF02E
:1052E00022F9207A8DF8000020798DF801002078CD
:1052F0008DF802008DF80360694605F114001DF079
:1053000012F98DF800A08DF801A08DF802A0544686
:105310008DF803A0694605F118001DF004F98DF819
:1053200000408DF801408DF802408DF80340694639
:1053300005F11C001DF0F7F800BF72E52DE9F84FEC
:10534000DFF8388106464FF0000A4FF04209A8F115
:1053500020084FF460604FF48065012902D00029D5
:105360007DD037E106EB460101EB061244490746C2
:1053700001EB820111F83D2F42F002020A701CF08D
:1053800059FF401C84B23F2C00D9002421B238467A
:105390001DF044F840F6026B58461CF04BFF80B2FB
:1053A0003F2800D0204601B258461DF037F8384655
:1053B0001CF040FF05EB401085B28DF800908DF891
:1053C000016053208DF8020057468DF803A069460E
:1053D00028461DF0A8F86946281D00971DF0A3F87F
:1053E000B8F83C0008F120048DF80000207E8DF80C
:1053F0000100207B8DF802008DF80370694605F1ED
:1054000008001DF090F8207A8DF8000020798DF8C2
:10541000010020788DF802008DF80370694605F1CF
:105420000C001DF080F841248DF800408DF80140FB
:105430008DF802408DF80340694605F110001DF01B
:1054400072F88DF800408DF801408DF802408DF81B
:105450000340694605F114001DF065F800E042E0E4
:105460008DF800408DF801408DF802408DF8034022
:10547000694605F118001DF056F817E0204002407B
:105480005CED072042415420233120416C61726D54
:105490002C206C6F73740000424154202332204151
:1054A0006C61726D2C206C6F737400008DF800407D
:1054B0008DF801408DF802408DF80340694605F1F2
:1054C0001C001DF030F816B1012E05D082E0022339
:1054D00001220521FBA003E002231A460521FFA0BB
:1054E0001BF032FA76E01CF0A5FE87B23C46AB46D4
:1054F0000BEB441085B2694628461CF018FF9DF856
:105500000000422824D19DF80100B04220D19DF82E
:10551000020043281CD106E0641EA4B200E03F2430
:10552000BC42E5D156E0694605F110001CF0FFFED3
:105530009DF8000041280BD19DF80100412807D1BA
:105540009DF80200412803D19DF80300412802D0B4
:10555000002CE4D0E0E7B8F83C0008F120048DF816
:105560000000207E8DF80100207B8DF80200564659
:105570008DF803A0694605F110001CF0D4FF207AD5
:105580008DF8000020798DF8010020788DF8020058
:105590008DF80360694605F114001CF0C4FF8DF816
:1055A00000908DF801908DF802904C468DF8039094
:1055B000694605F118001CF0B6FF8DF800408DF823
:1055C00001408DF802408DF80340694605F11C004A
:1055D0001CF0A9FF00BF24E4F3B5054600EB45002D
:1055E000C44900EB051001EB8000C34983B04FF4C0
:1055F0006066B1F9001000EB4100B0F922000190A3
:1056000030461CF017FE401C04463F2800D90024F9
:1056100021B230461CF002FF40F6026738461CF00B
:1056200009FE3F2800D0204601B238461CF0F6FEA5
:1056300030461CF0FFFD4FF4806101EB4014422026
:105640008DF800008DF801504B208DF802000026E7
:105650008DF80360694620461CF065FF9DF8100038
:105660008DF800009DF811008DF801009DF80400F0
:105670008DF802009DF805008DF803006946201D95
:105680001CF051FF4FF4FC701CF00DFE9B4D2946A1
:10569000286004F108001CF046FF4FF4FE701CF077
:1056A00002FE6860291D04F10C001CF03CFF944DC3
:1056B000A88B8DF80000287E8DF80100287B8DF8DE
:1056C00002008DF80360694604F110001CF02BFF06
:1056D000287A8DF8000028798DF8010028788DF857
:1056E00002008DF80360694604F114001CF01BFFF2
:1056F00005B0F0BD2DE9F84F814E0027203E35154D
:105700003C46BA464FF04209012802D0002871D029
:10571000FCE04FF4606738461CF08CFD401C0446EA
:105720003F2800D9002421B238461CF077FE40F60D
:10573000026840461CF07EFD3F2800D0204601B2A2
:1057400040461CF06BFE38461CF074FD05EB40151E
:105750008DF800908DF801A05A208DF80200544673
:105760008DF803A0694628461CF0DDFE6946281D19
:1057700000941CF0D8FE06F12006B08B8DF80000D6
:10578000307E8DF80100307B8DF802008DF80340EB
:10579000694605F108001CF0C6FE307A8DF800005D
:1057A00030798DF8010030788DF802008DF80340D3
:1057B000694605F10C001CF0B6FE41248DF800404E
:1057C0008DF801408DF802408DF80340694605F1DF
:1057D00010001CF0A8FE8DF800408DF801408DF8F7
:1057E00002408DF80340694605F114001CF09BFE51
:1057F0004EE0FFE74FEA050808EB441569462846E6
:105800001CF095FD9DF80000422803D19DF8020090
:105810005A2804D0ECB3641EBC42EDD176E0694650
:1058200005F110001CF083FD9DF800004128F1D126
:105830009DF801004128EDD19DF802004128E9D1F1
:105840009DF803004128E5D106F12006B08B8DF8C4
:105850000000307E8DF80100307B8DF80200544648
:105860008DF803A0694605F110001CF05CFE307A4B
:105870008DF8000030798DF8010030788DF8020045
:105880008DF80340694605F114001CF04CFE4C46AF
:1058900000E03DE08DF800408DF801408DF80240B9
:1058A0008DF80340694605F118001CF03CFE8DF8A8
:1058B00000408DF801408DF802408DF803406946A4
:1058C00020E0000042415420233120416C61726D80
:1058D0002C20617373696D657472790042415420A4
:1058E000233220416C61726D2C20617373696D6588
:1058F000747279005CED0720FCC10720A4C007206A
:105900002040024005F11C001CF00DFE00BF14E514
:105910003F2471E7002801DA404200B2704710B519
:105920004FF434701CF086FCFF4C207040F2D22003
:105930001CF080FC60704FF435701CF07BFCA07094
:1059400040F2D6201CF076FCE0704FF436701CF06C
:1059500071FC207240F2DA201CF06CFC60724FF493
:1059600037701CF067FCA07240F2DE201CF062FC75
:10597000E0724FF443701CF05DFC207140F20E3079
:105980001CF058FC60714FF444701CF053FCA07183
:1059900040F212301CF04EFCE07110BDE34810B52F
:1059A000016821F0E06101604168E24AC1F30B1334
:1059B000DF4C117824F81130491CC9B21170032949
:1059C00003D2016841F08071016010BD2DE9F047FC
:1059D0000746DDE90A090E46DDE9085A01B2144618
:1059E000984698201CF01AFD00219A201CF016FD04
:1059F000002176201CF012FD0121CA201CF00EFDB2
:105A00003C21C2201CF00AFD39B278201CF006FDB2
:105A100004EBD470401001B2C8201CF0FFFC31B27E
:105A20007A201CF0FBFC21B27C201CF0F7FC462104
:105A3000C6201CF0F3FC50217E201CF0EFFC0FFA76
:105A400088F182201CF0EAFCBB2184201CF0E6FCDB
:105A5000002186201CF0E2FC0A2188201CF0DEFCDC
:105A60000FFA89F1DE201CF0D9FC29B28C201CF041
:105A7000D5FCE8000A2190FBF1F001B28E201CF069
:105A8000CDFC0121A0201CF0C9FC0121A2201CF0AA
:105A9000C5FC0121A4201CF0C1FCA02192201CF017
:105AA000BDFC0FFA8AF194201CF0B8FC032196206B
:105AB0001CF0B4FC3221CC201CF0B0FC2821CE20FC
:105AC0001CF0ACFC5521BC201CF0A8FC1E21BE2003
:105AD0001CF0A4FC012180201CF0A0FC4621D02059
