:020000040000FA
:10000000E8780010E1000000E5000000E7000000D3
:10001000E9000000EB000000ED000000000000001F
:10002000000000000000000000000000EF000000E1
:10003000F100000000000000F30000009FDA020061
:10004000F700000079060300AD060300F70000008A
:10005000F700000013380300F7000000794B03009D
:10006000F7000000F7000000F7000000F7000000B4
:10007000F7000000F7000000F7000000F7000000A4
:10008000F7000000F7000000F7000000F700000094
:10009000F7000000F700000097650000F70000007F
:1000A000F7000000A5350300F7000000F70000008E
:1000B00005510300F7000000F7000000F700000002
:1000C000F7000000F7000000F7000000DFF80CD098
:1000D00035F0CCF80048004713DC0200E878001047
:1000E00005480047FEE7FEE7FEE7FEE7FEE7FEE71E
:1000F000FEE7FEE7FEE7FEE7CD000000FEE710B5F5
:1001000036F080FF37F00CF836F0FEFF36F08CFF4B
:10011000AFF30080BDE8104036F0C8BF10B537F02F
:10012000D9FD38F049FC37F02DFEBDE8104037F01E
:10013000A5BF37F0EDBC37F0B5BA09B10020704764
:1001400036F00AB80020704730B54FF000003D4B44
:10015000A3F1140202F10A04115C61B1255CA94209
:1001600009D1195C39B1A1F10101C9B2195411B910
:100170004FF000011154115C215400F10100C0B294
:100180000A28E9D330BD70B54FF000042D4EA6F11A
:10019000140604F10104E4B2355D1DB1854201D0BD
:1001A0000A2CF6D3305527480C3040F8241028305C
:1001B00040F824203438035570BD4FF00001214A27
:1001C000A2F1140201F10101C9B2535C834201D0D2
:1001D0000A29F7D3535C834212D11A480C3050F8E5
:1001E000213019480360174B343353F821304360F2
:1001F0004FF000005054134A50544FF00100704724
:10020000002070474FF000010E4AA2F1140201F1E4
:100210000101C9B2535C834201D00A29F7D3525C71
:1002200082420CD107480C3050F821200648026069
:10023000044A343252F821104160012070470020F6
:100240007047000020660010100000100D4BDA60AF
:100250001870597070470B4A1161907070470949C6
:10026000088170470749B1F90800002809D0A0F1BA
:10027000010000B20881002803D10146084601F0C0
:1002800096BB70471800001090F900308B4200DADE
:10029000027090F90030934200DD0170704790F9D0
:1002A00000308B4200DA017090F90010914200DDBD
:1002B00002707047B0F900308B4200DA0180B0F96B
:1002C0000010914200DD02807047B0F900308B428F
:1002D00000DA0280B0F90030934200DD01807047FF
:1002E0000146002000E0401C0A5C002AFBD1704758
:1002F0000048704738A2030070477047FFFFFFFFB8
:10030000002802DAC0F1000000B270474FF0000090
:10031000FC4A4FF02001115400F10100C0B2C8287E
:10032000F9D3704701464FF00000F64A00F1010092
:10033000C0B2135C8B4201D0C828F7D3704710B508
:100340004FF00001F04C4FF00A020346B0FBF2F010
:1003500002FB1033635401F10101C9B20529F4D342
:1003600010BDF0B5E94D4FF0010129704FF00501C6
:10037000E54B4FF020064FF000072A7842B15A189B
:1003800012F8014C24B9814202D902F8016C07E04D
:1003900003EB010212F8014D04F1300414702F70C8
:1003A000A1F10101C9B20029E7D1F0BDFEB50346B4
:1003B0004FF02B07002B04DAC3F1000003B24FF01B
:1003C0002D074FF000004FF00A046D4693FBF4F642
:1003D00004FB16332B5433B200F1010040B20A285B
:1003E000F4DB4FF001034FF000044FF009004FF031
:1003F000200643B115F800C0BCF1000F03D19042B4
:1004000001DD2E5408E02B5C03F130032B544FF038
:10041000000304F10104E4B2A0F1010040B200289D
:10042000E7DA2D2F04D1204604F10104E4B22F5461
:100430008AB160B207E005EB000313F8013C2B54CE
:10044000A0F1010040B29042F5DC4FF02E00A8541C
:1004500004F10104E4B20846FFF764FF4FF0000125
:10046000A84A06E0A0EB01066B5C935501F101017F
:1004700049B2A142F6DBFEBDFEB503464FF02B07A5
:10048000002B03DAC3F100034FF02D074FF00000FB
:100490004FF00A046D461E4693FBF4F304FB13660B
:1004A0002E5400F1010040B20A28F4DB4FF00103A2
:1004B0004FF000044FF009004FF0200643B115F84B
:1004C00000C0BCF1000F03D1904201DD2E5408E0C2
:1004D0002B5C03F130032B544FF0000304F10104B3
:1004E000E4B2A0F1010040B20028E7DA2D2F04D1D8
:1004F000204604F10104E4B22F548AB160B207E04F
:1005000005EB000313F8013C2B54A0F1010040B2AD
:100510009042F5DC4FF02E00A85404F10104E4B23F
:100520000846FFF7FFFE4FF00001764A06E0A0EB19
:1005300001066B5C935501F1010149B2A142F6DB62
:10054000FEBD2DE9FE414FF02B0C002803DAC0F16F
:1005500000004FF02D0C4FF000044FF00A056F46DD
:10056000064690FBF5F005FB10663E5504F10104CC
:1005700064B20A2CF4DB4FF001054FF000044FF099
:1005800009004FF0200645B117F80080B8F1000FC0
:1005900003D1984201DD3E5408E03D5C05F1300591
:1005A0003D544FF0000504F10104E4B2A0F1010054
:1005B00040B20028E7DABCF12D0F05D1204604F146
:1005C0000104E4B207F800C08BB160B207E007EBAA
:1005D000000515F8015C3D54A0F1010040B29842BD
:1005E000F5DC4FF02E00F85404F10104E4B201EB05
:1005F000810002EB8000C1B24FF00000414A06E0EA
:10060000A1EB00053B5C535500F1010040B2A04254
:10061000F6DBBDE8FE8170B50D4616461C46FFF7B9
:100620008EFE601CC0B2FFF79CFE05EB850006EB5A
:100630008000C1B24FF00000334B324DA04201D2D6
:100640001A5C6A5407D31A5C202A04D064B105EB03
:10065000010606F8012CA1F10101C9B200F1010067
:10066000C0B20528EAD370BD6A54F4E730B5044639
:1006700008461546FFF756FEFF280CD0214A07E032
:1006800000EB050304F10104D15400F10100C0B2F4
:1006900021780029F4D130BD70B50D461446FFF71E
:1006A0004EFE601CC0B2FFF75CFE2846FFF73AFE24
:1006B0004FF00001144A134D24B9535C202B01D094
:1006C0002B5415E0A14202D2535C2B5410E008D108
:1006D0004FF02E032B5405EB0006535C06F8013C4B
:1006E00006E0535C202B03D005EB000606F8013C26
:1006F000A0F10100C0B201F10101C9B20529DBD3AB
:1007000070BD000050020010D4C00720AC030010E0
:100710001044002801DA084403E0884201DBA0EB22
:100720000100C0B270472DE9FE4F04460D464FF45C
:10073000606030F0C3FC62424021FFF7E9FF4FEAFE
:10074000401000F58060044602A9204630F03DFDCF
:1007500001A904F1080030F038FD694604F10C00ED
:1007600030F033FD2846FFF7DDFD83469DF8080095
:10077000DFF8F0A5DFF8F0954FF040064FF03005B8
:100780004FF021074FF023084FF0200455282FD0B9
:10079000CF22D12150287DD042287CD053287BD035
:1007A00049287AD14FF0C8010BF10100C0B209F815
:1007B0000B104FF0ED0200F10101C9B209F8002061
:1007C0004FF0E20201F10100C0B209F801209DF8EA
:1007D000091009297DD201F1310100F10102D2B2E3
:1007E00009F8001002F10100C0B209F80240FEE36E
:1007F0009DF80A00522815D14FF0C2010BF10100FB
:10080000C0B209F80B104FF0EA0200F10101C9B2C1
:1008100009F800204FF0EB0201F1010000F0FF0B9E
:1008200009F801200BF10100C0B209F80B4000F1FA
:100830000101CAB209F8004002F10100C1B209F891
:10084000024001F10100C0B209F801409DF8041016
:10085000BAF83C2091424FD19DF805109AF8382003
:10086000914249D19DF806109AF82C20914243D12B
:1008700000F10101C9B209F8005001F10100C0B254
:1008800009F801704FF03A0200F10101C9B209F80C
:10089000002003E076E02CE1FEE32BE001F1010013
:1008A000C0B209F8015000F10101C9B209F80060B5
:1008B00001F10100C0B209F8012000F10101C9B243
:1008C00009F8005009F801809DF800004FF000027F
:1008D00000E0FEE34FF02101FFF7DEFE9DF801008E
:1008E00000224021FFF7D8FE9DF8020000222321BC
:1008F000FFF7D2FEBDE8FE8F00F10101C9B209F891
:10090000004001F10100C0B209F8015000F10101FD
:10091000C9B209F8007001F10100C0B209F8016024
:1009200000F10101C9B209F8004001F10100C0B2B3
:1009300009F8014000F10101C9B209F8005009F8B5
:1009400001809DF806004FF000024FF02101FFF7F3
:10095000A3FE9DF8040000222321FFF79DFE9DF8D1
:100960000500401E0C2803D34FF001008DF8050050
:100970009DF80510FD48002200EB81004021FFF7A3
:1009800075FEB7E70BF10100C0B209F80B2000F1CA
:100990000102D2B209F8001002F10100C0B209F858
:1009A000024000F10101C9B209F8004001F1010063
:1009B000C0B209F8014000F10101C9B209F80040D4
:1009C00001F10102D0B209F801409DF80410BAF813
:1009D0003C20914247D19DF805109AF83820914269
:1009E00041D19DF806109AF82C2091423BD100F19C
:1009F0000101C9B209F8005001F10100C0B209F8C3
:100A000001704FF03A0200F10101C9B209F800206B
:100A100001F10100C0B209F8015000F10101C9B2B1
:100A200009F8006001F10100C0B209F8012000F1ED
:100A30000101C9B209F8005009F801809DF80000D1
:100A40004FF000024FF02101FFF726FE9DF8010054
:100A500000224021FFF720FE9DF802000022232102
:100A6000FFF71AFE46E700F10101C9B209F800409C
:100A700001F10100C0B209F8015000F10101C9B251
:100A800009F8007001F10100C2B209F8016002F139
:100A90000100C0B209F8024000F10101C9B209F831
:100AA000004001F10100C0B209F8015009F80080CE
:100AB0009DF806004FF000024FF02101FFF7ECFD1A
:100AC0009DF8040000222321FFF7E6FD9DF80500B4
:100AD000401E0C2803D34FF001008DF805009DF84F
:100AE0000510A248002200EB81004021FFF7BEFD67
:100AF00000E79DF80A0043287DD14FF0C1010BF1BA
:100B00000100C0B209F80B104FF0E00200F1010142
:100B1000C9B209F800204FF0F20201F10100C0B2A1
:100B200009F801209DF80920092A13D202F13102A7
:100B300000F10101C9B209F800204FF0C00201F133
:100B40000100C0B209F8012000F10101C9B209F8A1
:100B5000004030E0A2F109015A291DD202F1010240
:100B60004FF00A0CB2FBFCF303F1300B00F1010172
:100B7000C9B209F800B00CFB132202F1300201F1F6
:100B80000100C0B209F801204FF0C00200F10101DC
:100B9000C9B209F800200EE000F10101C9B209F85C
:100BA000004001F10100C0B209F8014000F101016B
:100BB000C9B209F8004001F10100C0B209F80140D2
:100BC0009DF80410BAF83C2091424DD19DF80510D3
:100BD0009AF83820914247D19DF806109AF82C20B7
:100BE000914241D100F10101C9B209F8005001F16F
:100BF0000100C0B200E080E009F801704FF03A0255
:100C000000F10101C9B209F8002001F10100C0B2F0
:100C100009F8015000F10101C9B209F8006001F1C1
:100C20000100C0B209F8012000F10101C9B209F8C0
:100C3000005001F1010000F0FF0B09F801809DF860
:100C400000004FF000024FF02101FFF725FD9DF855
:100C5000010000224021FFF71FFD9DF80200002245
:100C60002321FFF719FD48E000F10101C9B209F89D
:100C7000004001F10100C0B209F8015000F101018A
:100C8000C9B209F8007001F10100C0B209F80160B1
:100C900000F10101C9B209F8004001F10100C0B240
:100CA00009F8014000F10101C9B209F8005001F151
:100CB000010000F0FF0B09F801809DF806004FF0DD
:100CC00000024FF02101FFF7E7FC9DF8040000222D
:100CD0002321FFF7E1FC9DF80500401E0C2803D3FB
:100CE0004FF001008DF805009DF805101F48002207
:100CF00000EB81004021FFF7B9FC9DF80A00532862
:100D00007ED14FF0C1010BF10100C0B209F80B1008
:100D10004FF0E00200F10101C9B209F800204FF0E4
:100D2000F20201F10100C0B209F801209DF809109A
:100D30004FF0430309291BD201F1310100F10102F7
:100D4000D2B209F800104FF0C00002F1010101F029
:100D5000FF0C09F802000CF10100C1B209F80C30D7
:100D60002AE00000004002405002001034990300C5
:100D700009395A2911D24FF0C00200F10101C9B25C
:100D800009F8002001F10100C0B209F8013000F1BA
:100D90000101C9B209F800400EE000F10101C9B239
:100DA00009F8004001F10100C0B209F8014000F16A
:100DB0000101C9B209F8004001F10100C0B209F80F
:100DC00001409DF80410BAF83C2091424DD19DF8A5
:100DD00005109AF83820914247D19DF806109AF8EC
:100DE0002C20914241D100F10101C9B209F8005013
:100DF00001F10100C0B209F801704FF03A0200E0C1
:100E00007CE000F10101C9B209F8002001F1010004
:100E1000C0B209F8015000F10101C9B209F800603F
:100E200001F10100C0B209F8012000F10101C9B2CD
:100E300009F8005001F1010000F0FF0B09F80180F2
:100E40009DF800004FF000024FF02101FFF724FC55
:100E50009DF8010000224021FFF71EFC9DF80200D2
:100E600000222321FFF718FC48E000F10101C9B27C
:100E700009F8004001F10100C0B209F8015000F189
:100E80000101C9B209F8007001F10100C2B209F80C
:100E9000016002F10100C0B209F8024000F1010155
:100EA000C9B209F8004001F10100C0B209F80150CF
:100EB00000F1010101F0FF0B09F800809DF8060028
:100EC0004FF000024FF02101FFF7E6FB9DF8040010
:100ED00000222321FFF7E0FB9DF80500401E0C28AF
:100EE00003D34FF001008DF805009DF80510FF4871
:100EF000002200EB81004021FFF7B8FB9DF80A00BB
:100F00005A2875D14FF0C2000BF10101C9B209F89E
:100F10000B004FF0C70201F10100C0B209F8012037
:100F200000F10101C9B209F8004001F10100C0B2AD
:100F300009F8014000F10101C9B209F8004001F1CE
:100F40000100C2B209F8014002F10100C0B209F883
:100F500002409DF80410BAF83C2091424ED19DF811
:100F600005109AF83820914248D19DF806109AF859
:100F70002C20914242D100F10101C9B209F8005080
:100F800001F10100C0B209F801704FF03A0300F11D
:100F90000101CAB209F8003002F10100C1B209F83A
:100FA000025001F10100C0B209F8016000F1010135
:100FB000C9B209F8003001F10100C0B209F80150CE
:100FC00000F1010101F0FF0B09F800809DF800001D
:100FD0004FF000024FF02101FFF75EFB9DF801008A
:100FE00000224021FFF758FB9DF8020001E056E384
:100FF0004DE000222321FFF74FFB48E000F1010103
:10100000C9B209F8004001F10100C0B209F801506D
:1010100000F10101C9B209F8007001F10100C0B28C
:1010200009F8016000F10101C9B209F8004001F1BD
:101030000100C0B209F8014000F10101C9B209F88C
:10104000005001F1010000F0FF0B09F801809DF84C
:1010500006004FF000024FF02101FFF71DFB9DF845
:10106000040000222321FFF717FB9DF80500401E16
:101070000C2803D34FF001008DF805009DF80510F2
:101080009A48002200EB81004021FFF7EFFA9DF81B
:101090000A0057287ED100E002E24FF0C1010BF1B7
:1010A0000100C0B209F80B104FF0E00200F101019D
:1010B000C9B209F800204FF0F20001F10102D3B2E9
:1010C00009F801009DF809104FF0F00E092913D21C
:1010D00000E0CAE201F1310103F10100C0B209F8F8
:1010E000031000F10101C9B209F800E001F10100AB
:1010F000C2B209F801402EE0A1F109005A281BD222
:1011000001F101014FF00A0BB1FBFBF202F1300CCF
:1011100003F10100C0B209F803C00BFB121202F187
:10112000300200F10101C9B209F8002001F101000B
:10113000C2B209F801E00EE003F10100C0B209F803
:10114000034000F10101C9B209F8004001F10100BA
:10115000C2B209F8014002F10100C0B209F8024030
:101160009DF80410BAF83C2091424DD19DF805102D
:101170009AF83820914247D19DF806109AF82C2011
:10118000914241D100F10101C9B209F8005001F1C9
:10119000010000E081E0C0B209F801704FF03A02AE
:1011A00000F10101C9B209F8002001F10100C0B24B
:1011B00009F8015000F10101C9B209F8006001F11C
:1011C0000100C0B209F8012000F10101C9B209F81B
:1011D000005001F1010000F0FF0B09F801809DF8BB
:1011E00000004FF000024FF02101FFF755FA9DF883
:1011F000010000224021FFF74FFA9DF80200002273
:101200002321FFF749FA48E000F10101C9B209F8CA
:10121000004001F10100C2B209F8015002F10100E1
:10122000C0B209F8027000F10101C9B209F800600A
:1012300001F10100C0B209F8014000F10101C9B299
:1012400009F8004001F10100C0B209F8015000F1B5
:10125000010101F0FF0B09F800809DF806004FF036
:1012600000024FF02101FFF717FA9DF80400002259
:101270002321FFF711FA9DF80500401E0C2803D327
:101280004FF001008DF805009DF805101748002269
:1012900000EB81004021FFF7E9F99DF80A004B2897
:1012A0007FF426AC4FF0C1010BF10100C0B209F888
:1012B0000B1003464FF0E00C00F10100C1B209F839
:1012C00003C04FF0F20301F10102D0B209F801307E
:1012D0009DF80910092918D201F1310100F101022C
:1012E000D2B209F800104FF0EA0101E0349903008E
:1012F00002F10100C0B209F802104FF0E50200F15E
:101300000101C9B209F8002030E0A1F109025A2A0E
:101310001DD201F101014FF00A0BB1FBFBF303F108
:10132000300C00F10102D2B209F800C00BFB13111E
:1013300001F1300102F10100C0B209F802104FF0D2
:10134000EA0200F10101C9B209F800200EE000F143
:101350000101C9B209F8004001F10100C0B209F869
:10136000014000F10101C9B209F8004001F101009A
:10137000C0B209F801409DF80410BAF83C2091422F
:1013800048D19DF805109AF83820914242D19DF835
:1013900006109AF82C2091423CD100F10101C9B20B
:1013A00009F8005001F10100C0B209F801704FF0D6
:1013B0003A0200F10101C9B209F8002001F101006F
:1013C000C0B209F8015000F10101C9B209F800608A
:1013D00001F10100C0B209F8012000F10101C9B218
:1013E00009F8005009F801809DF800004FF0000254
:1013F0004FF02101FFF750F99DF801000022402134
:10140000FFF74AF99DF8020000222321FFF744F973
:10141000BDE8FE8F00F10101C9B209F8004001F1F9
:101420000100C0B209F8015000F10101C9B209F888
:10143000007001F10100C0B209F8016000F1010182
:10144000C9B209F8004001F10100C0B209F8014039
:1014500000F10101C9B209F8005009F801809DF8B6
:1014600006004FF000024FF02101FFF715F99DF83B
:10147000040000222321FFF70FF99DF80500401E0C
:101480000C2803D34FF001008DF805009DF80510DE
:10149000FF48002200EB81004021FFF7E7F8B7E7A3
:1014A0004FF0C1030BF10100C0B209F80B3000F19D
:1014B0000103DBB209F8002003F10100C0B209F812
:1014C00003109DF80920092A0CD202F1310200F123
:1014D0000101C9B209F8002001F10100C0B209F808
:1014E000014024E0A2F109015A2916D202F10102B9
:1014F0004FF00A0BB2FBFBF303F1300C00F10101DA
:10150000C9B209F800C00BFB132202F1300201F14D
:101510000100C0B209F8012009E000F10101C9B2DF
:1015200009F8004001F10100C0B209F8014000F1E2
:101530000101C9B209F8004001F10100C0B209F887
:1015400001409DF80410BAF83C20914247D19DF823
:1015500005109AF83820914241D19DF806109AF86A
:101560002C2091423BD100F10101C9B209F8005091
:1015700001F10100C0B209F801704FF03A0200F128
:101580000101C9B209F8002001F10100C0B209F857
:10159000015000F10101C9B209F8006001F1010038
:1015A000C0B209F8012000F10101C9B209F80050E8
:1015B00009F801809DF800004FF000024FF0210172
:1015C000FFF76AF89DF8010000224021FFF764F858
:1015D0009DF8020000222321FFF75EF818E700F1D2
:1015E0000101C9B209F8004001F10100C0B209F8D7
:1015F000015000F10101C9B209F8007001F10100C8
:10160000C0B209F8016000F10101C9B209F8004057
:1016100001F10100C0B209F8014000F10101C9B2B5
:1016200009F8005009F801809DF806004FF000020B
:101630004FF02101FFF730F89DF80400002223212C
:10164000FFF72AF89DF80500401E0C2803D34FF041
:1016500001008DF805009DF805108D48002200EB73
:1016600081004021FFF702F8D2E6A1F109025A2ACF
:1016700016D201F101014FF00A06B1FBF6F303F1B6
:10168000300500F10102D2B209F8005006FB131137
:1016900001F1300102F10100C0B209F8021009E0C5
:1016A00000F10101C9B209F8004001F10100C0B226
:1016B00009F8014009F80040AAE6F0B504460846DA
:1016C00016461F46FEF72EFE02461046714DFF28B5
:1016D00006D108E0295404F1010400F10100C0B270
:1016E00021780029F6D16C480078002806D0002F18
:1016F00004D002EB06014FF05F006854F0BD2DE905
:10170000F04F0746DDE90905884691469A46FEF7FF
:1017100009FE614B20215F4C0A224FF0640C012D21
:1017200009D11E783EB104EB0006A6F10E06B17099
:101730007170317017E097FBF2FB02FB1B7E04EB2C
:1017400000060EF1300E06F80CEC9BFBF2FE02FBDD
:101750001EBB0BF1300B06F80DBC97FBFCF707F135
:10176000300706F80E7C022D09D11E783EB104EB3D
:101770000006A6F10A06B1707170317017E098FB8F
:10178000F2F702FB178B04EB0006A6F10A060BF139
:10179000300B86F802B097FBF2FB02FB1B7707F1D8
:1017A0003007777098FBFCF707F130073770032D8F
:1017B00009D11E783EB104EB0006A6F10606B17011
:1017C0007170317017E099FBF2F702FB179804EB88
:1017D0000006A6F1060608F1300886F8028097FB9D
:1017E000F2F802FB187707F13007777099FBFCF7E6
:1017F00007F130073770042D09D11B783BB1215414
:101800002044A0F1020041700170BDE8F08F9AFB06
:10181000F2F102FB11A303F13003235491FBF2F325
:1018200002FB13112044A0F1020001F130014170CC
:101830009AFBFCF101F130010170E6E717B501EB0D
:10184000810002EB8000C2B29DF80030134803F023
:101850000F01445C0F498C54A2F10102D2B200EB9B
:1018600013131B788B54A2F10102D2B29DF8013000
:1018700003F00F04045D8C54A2F10102D2B200EB1C
:1018800013131B788B54A2F10102D2B208E00000BE
:10189000349903005002001068000010B299030050
:1018A0009DF8023003F00F04045D8C54A2F1010294
:1018B000D2B200EB13131B788B54A2F10102D3B206
:1018C0009DF8032002F00F04045DCC54A3F1010342
:1018D000DBB200EB12100078C8541EBD10B501EB4E
:1018E000810102EB8101C9B2B34A00F00F03D45C5D
:1018F000B24B5C54A1F10101C9B202EB10100078A7
:10190000585410BD30B5AE490124AC4B91F90120BB
:1019100091F904108A4204D100EB800003F82040C2
:1019200030BD4D1CAA4206D100F1010000EB800041
:1019300003F8204030BD8D1CAA4206D100F1020000
:1019400000EB800003F8204030BDCD1CAA4206D138
:1019500000F1030000EB800003F8204030BD0D1DB6
:10196000AA4206D100F1040000EB800003F82040F9
:1019700030BD4D1DAA4206D100F1050000EB8000EC
:1019800003F8204030BD8D1DAA4206D100F10600AB
:1019900000EB800003F8204030BDC91D8A42FBD116
:1019A00000F1070000EB800003F8204030BD854BBC
:1019B0001A88A2F10102104400B21880824A00EB9A
:1019C000800002447E4813680360127902714278F5
:1019D00011444170704770B57A4DB5F9004004F17B
:1019E00001062E80784D04EB84042544744C26684F
:1019F0002E6026792E71207061702271A37070BDE7
:101A00002DE9F04180460F461646FEF77FFC6B4CF1
:101A10004FF0000518F8010B04F8010B05F1010562
:101A2000EDB2142DF6D34FF0000017F8011B04F8A7
:101A3000011B00F10100C0B21428F6D34FF00000E2
:101A400016F8011B04F8011B00F10100C0B21428B4
:101A5000F6D34FF0000013F8011B04F8011B00F14E
:101A60000100C0B21428F6D3BDE8F08110B5029C85
:101A7000FFF7C6FF5248C378827841789120FFF77C
:101A8000AAFF642094FBF0F0BDE81040C0B2FEF75E
:101A9000E6BB2DE9FE430D464FEA401000F580609D
:101AA000044602A920462FF090FB01A904F108008A
:101AB0002FF08BFB694604F10C002FF086FB2846C3
:101AC000FEF730FC3D4C4FF0200600F10101C9B299
:101AD00026544FF0300701F10100C0B267544FF0B7
:101AE000210800F10101C9B204F800804FF040095B
:101AF00001F10100C0B204F8019000F10101C9B286
:101B0000265401F10100C0B2665400F10101C9B2CE
:101B100027544FF0230201F10100C5B262549DF831
:101B200006004FF000024FF02101FEF7B5FD9DF8D1
:101B3000040000222321FEF7AFFD9DF80500401EA2
:101B40000C2803D34FF001008DF805009DF8050027
:101B50001E49002201EB80004021FEF787FD05F1C0
:101B60000100C0B2665500F10101C9B2275401F16C
:101B70000100C0B204F801804FF03A0200F1010107
:101B8000C9B2225401F10100C0B2675400F1010151
:101B9000CDB204F800909DF800004FF000024FF025
:101BA0002101FEF779FD9DF8010000224021FEF79A
:101BB00073FD6655BDE8FE83B29903005002001024
:101BC000D00100108C0000107C66001034990300D6
:101BD0002DE9FC410446FE4E4FF00007B776B07D7C
:101BE0004FF00103022808D0FA49095D552906D0B3
:101BF0004FF06500B076BDE8FC81B376FBE704EBFF
:101C0000440101EB0412F44901EB820595F83D1003
:101C1000CA0703D04FF06600B076ECE795F83F2096
:101C2000920703D54FF06700B076E4E7890703D544
:101C30004FF06800B076DEE7E84AB5F90810B2F96F
:101C40000020914203DD4FF06900B076D3E75242A5
:101C5000914203DA4FF06A00B076CCE7DC49012804
:101C6000C97D00D111B1012804D005E04FF06B000F
:101C7000B076C0E701297ED04FF06400B076B3752E
:101C8000A6F8563019464FF4F8702FF015FBF4758E
:101C9000A6F8584021464FF4FA702FF00DFBAF61C3
:101CA000CF48002130F914002FF006FB3776A6F854
:101CB0005A7039464FF4FB702FF0FEFAC94800887D
:101CC00000F1010000F0070005EB4000008C0190DE
:101CD000C54DA88B00904FF063024FF0010168469C
:101CE000FEF7DDFABA4C9DF8000094342070287E8F
:101CF00000900C2201216846FEF7D1FA9DF8000001
:101D00006070287B00901F2201216846FEF7C7FA09
:101D10009DF80000A0709DF80400E0704FF4FC7086
:101D200021682FF004FB287A0090172200216846D2
:101D3000FEF7B5FA9DF800002071287900903B224B
:101D400000216846FEF7ABFA9DF800006071287824
:101D500000903B2200216846FEF7A1FA9DF80000A2
:101D6000A0719DF80500E0714FF4FE7061682FF0DE
:101D7000DEFA40E7FFE74FF06C00B0763BE72DE975
:101D8000F047934CA07D01287DD121460126C97DD5
:101D9000207EC1F1010206FA02F1914F8E4D0AB286
:101DA00010B1012834D038E01423CA21C820FEF72E
:101DB000EAF914234FF0FF32CE21CD20FEF7E3F9EC
:101DC000E07D00EB400101EB001005EB8000B0F975
:101DD0000800FEF795FAE17D01EB410202EB0112EA
:101DE00005EB820293691844906148F6A04398423B
:101DF00013DBA0EB0300906137F811002FF05EF9C0
:101E0000401C01B2E07D37F910002FF055FA04E0D4
:101E10001423CA21C820FEF7B6F9E17D4FF4F87902
:101E200001EB410000EB011005EB80004FF00008D2
:101E3000B0F902206D48B0F9000000EB8000B2EB71
:101E4000400F47DAB4F8520000F1010000B2A4F8E4
:101E500052001E2840DBA07D012822D1207E00BB3D
:101E600037F811002FF02AF901B26148E27D30F90C
:101E700012002FF021FAE07D37F810002FF01EF944
:101E800081B2E07D00E049E004F068F95948E17D65
:101E900030F9110000212FF00FFA4FF03200A0832B
:101EA000E083E07D4B49C0F10100085C552808D073
:101EB00084F81680A4F85680002148462FF0FCF9DB
:101EC0000AE02676A4F85A6001214FF4FB702FF047
:101ED000F3F901E0A4F85280E17D01EB410000EB51
:101EE000011005EB8000B0F90220C1F1010000EB08
:101EF000400101EB001005EB8000B0F902008242C6
:101F00000CDB207E012809D184F81680A4F85680C5
:101F10004846BDE8F04700212FF0CEB9BDE8F08774
:101F200070B505464FF00006294CA07D10BB4FF060
:101F3000020104F8161FA4F840104FF4F8702FF0B7
:101F4000BBF92587C5EB05104FEA80010D46E187F7
:101F50004FF4F9702FF0B0F929464FF4FF702FF0CD
:101F6000ABF930466087A0864FF001064FF00100C4
:101F700004F089F9304670BD10B5154CA07D0228DB
:101F800013D104F11604208F04F07DF94FF0000006
:101F9000A086208760872070A4F840000146BDE835
:101FA00010404FF4F8702FF087B910BD70B50E4C8B
:101FB000203C94F83800104D297808440C281DD98D
:101FC000A08F401C01B2B8202FF076F91BE0000072
:101FD00008C007200001001098E80720AE0000109C
:101FE000A89203006401001020400240A8000010E5
:101FF000C4920300A492030071000010B4F93C10D5
:10200000B8202FF059F994F83810287801440C2999
:1020100007D994F838100C380144B6202FF04CF949
:1020200005E094F838100144B6202FF045F994F8F3
:102030002C001C2804D91C21B4202FF03DF904E009
:1020400094F82C10B4202FF037F904F12004217AF1
:102050004FF0AE002FF030F92179B0202FF02CF99D
:102060002178BDE87040B2202FF026B910B5FF48A6
:10207000FF4C007830B3FF48828FFF4909888A42BD
:1020800020D190F83820FD4909888A421AD190F869
:102090002C10FB4A1288914214D190F82810F94A6A
:1020A000128891420ED190F82410F74A128891427A
:1020B00008D190F82000F5490988884202D14FF0F4
:1020C00001006076607E00280CD0F1480088C0B224
:1020D000FFF726FF002805D04FF000006076BDE82E
:1020E000104063E710BD70B5E14CA07D022844D1DB
:1020F000B4F84C004FF461610025884215D200F11C
:10210000010080B2A4F84C0088420ED3A4F84C50D1
:10211000B4F84E0048B1A0F1010024F84E0F6088D9
:1021200000F101006080A4F14E04B4F84A003C289C
:1021300023D200F1010080B2A4F84A003C281CD34D
:1021400024F84A5F6089A0F1010001B261814FF477
:10215000F9702FF0B1F86089A4F14A0400280CD17D
:10216000A575A4F8565001464FF4F8702FF0A4F866
:10217000BDE87040002004F086B870BDC5486FF01F
:102180003B010088C0EB001001EB8000B849C88714
:1021900070472DE9F05FB64F0026DFF8FC82F88F1C
:1021A000BE4D401C01B2BB48F9874FF0010AB0F99F
:1021B000000007F14404C0EB00124FF00A09B1EB34
:1021C000820F4BDBF0B3FE87267066703E74DFF83B
:1021D000D0B29BF80000552811D1B5F90200502863
:1021E0000DDDB5F90800FEF78BF8B8F9001088424C
:1021F00003DB95F83D00C00701D084F800A09BF8F0
:102200000100552811D1B5F94E0050280DDDB5F962
:102210005400FEF775F8B8F90010884203DB95F812
:102220008900C00701D084F801A09E48007828B931
:10223000787C18B1B87D20B1022802D02670667073
:102240003E7400E00AE0207801281FD06078012861
:102250001CD0387C012819D0A7F840603946B7F95E
:102260004000DFF80CB2904F0BF1600BE8B3A0F127
:10227000010000B28A46A1F84000052809DD0F23BD
:102280001E226421E120FDF77EFF0AE0A7F84090BE
:10229000E4E7002805DD0F231E226921E120FDF778
:1022A00072FFBAF84000052811D1B5F90800FEF711
:1022B00027F8ABF80000B5F95400FEF721F8ABF8A9
:1022C0000200B7F90000FEF71BF8AAF822006848E0
:1022D000B0F8400000284AD1B5F90800FEF710F820
:1022E000DFF88CA10AF1640A00E042E0AAF80000DD
:1022F000B5F95400FEF704F8AAF80200B7F9000097
:10230000FDF7FEFF5A4FB884A7F84260BBF9000002
:10231000BAF900100844B8F90010884202DA2078AF
:1023200001281FD0B5F90200C82804DD267000215D
:10233000084603F065FCBBF90200BAF90210084434
:10234000B8F90010884202DA607801280DD0B5F99A
:102350004E00C8280BDD6670BDE8F05F002101204B
:1023600003F04EBCA7F84290E5E7A7F84290BDE81D
:10237000F09FB1F94200F0B3A0F1010000B289462C
:10238000A1F84200052806DD0F23C8226421E120C0
:10239000FDF7F9FE07E0002805DD0F23C8226921BB
:1023A000E120FDF7F0FEB9F84200052811D1B5F99A
:1023B0000800FDF7A5FFABF80000B5F95400FDF7E4
:1023C0009FFFABF80200B7F90000FDF799FFA9F8ED
:1023D00022002748B0F842000028C8D1B5F908000B
:1023E000FDF78EFFDFF8889009F16409A9F8000075
:1023F000B5F9540000E05CE0FDF782FFA9F80200A7
:10240000B7F90000FDF77CFF194FB884FE73BBF9E4
:102410000000B9F900100844B8F90010884202DA47
:10242000207801281FD0B5F90200C82804DD2670E5
:102430000021084603F0E4FBBBF90200B9F90210E1
:102440000844B8F90010884202DA607801282DD0DB
:10245000B5F94E00C8288ADD6670BDE8F05F00213E
:10246000012003F0CDBB87F80FA0E5E77100001055
:1024700008C00720004002400E0100100C010010AF
:102480000A010010040100100601001008010010EC
:1024900010010010BE000010AE00001098E80720E8
:1024A00000010010770000106601001087F80FA0EF
:1024B0005DE7C87B0F460028FAD00F2300226E216B
:1024C000E120FDF760FEB5F90800FDF719FFB8F946
:1024D0000010884207DD2078012804D126700021F1
:1024E000084603F08DFBB5F95400FDF709FFB8F974
:1024F0000010884206DD6078012803D16670002153
:1025000003F07EFB207820B9607810B9387C00B9E0
:10251000FE73E620FDF751FE18B1FC480068E7287D
:102520000AD0FB48FB49B0F90000B1F9001000EBFC
:102530008000B1EB400FBBDAFE732078F64E012825
:102540000FD1B8F90000B6F90010400090FBF9F087
:10255000884206DA95F83D00C00702D1012103F058
:102560004FFB60780128A3D1B8F90000B6F900103C
:10257000400090FBF9F088429ADA95F88900C0078C
:1025800096D1BDE8F05F0121084603F039BB70B574
:10259000E24CA08F401C00B2A087B0F5E16F02DBD7
:1025A0004FF00000A087B4F93C00B0F5DF6F11D9FF
:1025B0000F2301226421D220FDF7E5FD0F23002225
:1025C000D821D720FDF7DFFD0F230022D821DC2002
:1025D000FDF7D9FDB4F93C00A0F5E061073918D149
:1025E000CF4ED04CD04D30882188884205D0B4F9E8
:1025F0000010B5F900002EF05FFE708861888842F7
:1026000007D0B4F90210B5F90200BDE870402EF011
:1026100053BE70BD10B5C54C208800F1010020806C
:102620004FF008024FF000012046FDF74EFEC04972
:10263000B4F9000001EB40004A880284B1F84E1062
:10264000A0F86C1010BD70B5BA4DBB48BB4AB5F9C7
:102650000010B0F9003092F9000099421FDAB84C2E
:102660000A280FDAB74BB3F900300F2B0ADD00F15F
:10267000010040B210700A2809DB2180012002F01D
:102680001EFE04E00A2802DB4FF00A001070B5F9C4
:102690000000B4F90010884200DA208070BDFDDD32
:1026A0000028FBD0A0F1010040B210700028F5DC3A
:1026B000BDE87040002002F002BE2DE9F05FA24F9D
:1026C000964D45F213693988288D9A4EDFF87C8241
:1026D00049452CD19E49B1F90010484341F270712F
:1026E00090FBF1F002B29B480280B8F906009A4BC9
:1026F000B3F9003000FB03F090FBF1F0974B00B210
:102700001880B8F91430964CB4F9004003FB04F378
:1027100093FBF1F1934B09B219803280904200DAB9
:102720003080B6F9000081420ADA318008E08E4933
:10273000B1F9001048434FF4FA7190FBF1F030808A
:10274000B8F900208949B1F9000050434FF4FA6A02
:10275000774C4FF4C87290FBF2F06080B8F908C073
:10276000834BB3F9000000FB0CF04FF42F7C90FB7F
:10277000FCF0A080B8F91800B1F9021001FB00F1DB
:1027800091FBF2F0A4F84E00B8F90200B3F9021080
:1027900001FB00F191FBFCF0A4F850004FF0DC00CD
:1027A000FDF730FDE8BBDFF87CC1BCF80000DFF8C6
:1027B00070B1BBF80010A0EB01006E49B1F9001038
:1027C00001FB00F1388845F69262A0F5B04E4FF457
:1027D0007A73BEF5C76E01D0904204D14FF4967E55
:1027E00091FBFEF10EE0A0F5A84EBEF5FD7E04D0F3
:1027F000484502D0BEF1170E02D191FBFAF101E07B
:1028000091FBF3F12181BCF80210BBF802C0A1EBEF
:102810000C0C5849B1F9021001FB0CF1A0F5B04CB9
:1028200000E018E0BCF5C76C01D0904204D14FF431
:10283000967091FBF0F00CE0A0F5AA42FA3A03D0B2
:10284000484501D0173A02D191FBFAF001E091FB23
:10285000F3F0A4F85400B8F90C1040F6B73AA1F21E
:10286000213301220020534501D2207300E022735E
:10287000414BB3F900C00CFB01FC44F620699CFB02
:10288000F9F1A1F211116181B8F90E10A1F2213C08
:10289000D44502D284F8580001E084F85820B3F9F6
:1028A00002304B4393FBF9F1A1F21111A4F8561039
:1028B000B8F90410314BB3F9003001FB03F1154BAB
:1028C0004FF4AF7C91FBFCF11980B8F90A302C4928
:1028D000A3F2213CD44501D2086000E00A60DFF891
:1028E000A4E0BEF900C00CFB03FC9CFBF9F3A3F2CF
:1028F0001113DFF894B0ABF80030B8F90630A3F24A
:10290000213CD44542D2486041E000001000001054
:10291000A8000010680100106A01001008C007201C
:10292000840300100A240010D092030064010010F8
:1029300098E807206E010010AA000010DCC00720F4
:10294000DAC007208A0000100201001058E80720B2
:10295000B8C007207001001094030010720100102D
:10296000BAC0072074010010B0C007208003001017
:10297000A8C00720ACC007208803001092030010F5
:10298000880208208C0300100A0200104A60BEF979
:1029900002C00CFB03FC9CFBF9F3A3F211131BB266
:1029A000ABF80230B8F914C0ACF22138D04501D2EE
:1029B000886000E08A60BEF9042002FB0CF292FB02
:1029C000F9F2A2F211120FFA82FCABF804C0DFF8A0
:1029D0003894B9F80080DFF834A4BAF9002002FB7B
:1029E00008F24FF47A6B92FBFBF2DFF8248492B288
:1029F000A8F80020DFF81CE4642A02D2AEF8002018
:102A000002E03288AEF80020B9F80260BAF902207C
:102A1000724392FBFBF2A8F80220FF4EB6F90020A9
:102A2000DFF8F883B8F9009009FB02F941F27072FF
:102A300099FBF2FADFF8E893A9F800A0B6F902B022
:102A4000B8F902A00AFB0BFA9AFBF2FAA9F802A065
:102A5000B6F904A0B8F9048008FB0AF898FBF2F86C
:102A6000A9F80480B6F906A0DFF8B883B8F9009099
:102A700009FB0AF999FBF2FADFF8AC93A9F800A078
:102A8000B6F908B0B8F902A00AFB0BFA9AFBF2FA01
:102A9000A9F802A0B6F90AA0B8F9046006FB0AF684
:102AA00096FBF2F2A9F8042003F211131EB2DF4BD9
:102AB0001E800CF2111C0FFA8CFCA3F802C04A68AD
:102AC000D2B21A728968C9B25972D94B02B911B11E
:102AD000012A0AD00AE006EB0C0101EBD1716FF478
:102AE000887202EB610119801DE009B12AB106E08C
:102AF000ACF2111CA3F800C015E0012902D0012A94
:102B000004D010E0A6F211161E800CE001290AD1B3
:102B1000C8490978052903D2C7490988198002E004
:102B20004FF014011980C5490A78552A05D1B4F926
:102B30000220C82A01DD22892A87497855290AD12D
:102B4000B4F94E10C82906DDB4F95410B4F90820C0
:102B5000914200DD29873988A1F5AC422F3A03D094
:102B6000283201D0143A02D1B549098829874FF09B
:102B70000002B449B44DB1F900302FE0C2EBC201FC
:102B800001EB410105EB8101CE78192E1CD28E7923
:102B9000CF7906EB07264E620E7A4F7A06EB0726B0
:102BA0000E628E7ACF7A06EB0726CE610E7B8E629E
:102BB0004E7B81F852608E7B81F842600E7C4F7CA8
:102BC00006EB0726CE6406E0C861486208628862A8
:102BD00081F84200C86402F10102D2B29A42CDDB10
:102BE000B4F908204FF00A0192FBF1F2B4F9544015
:102BF000964F94FBF1F11144C1F100010EB23E80F9
:102C0000934C20804FF0000112E0C1EBC10202EBB7
:102C1000420205EB820292F803C0BCF1050F04D218
:102C2000526AB4F800C06244228001F10101C9B2C5
:102C30009942EADB2188314409B23980002900DA5F
:102C40003880844C4FF00601A1618349B1F90060DE
:102C5000002E65D04FF0000360E003F11401C1EBDA
:102C6000C10101EB410105EB8101CA78192A39D272
:102C70008A79CF7902EB072703EB430204EB421278
:102C8000D7610F7A91F809C007EB0C27D7628F7ACA
:102C900091F80BC007EB0C2797610F7B17624F7BF6
:102CA00082F846708F7B91F80FC007EB0C27976274
:102CB0000F7C91F811C007EB0C27576290708F7C46
:102CC00082F85970CF7C82F85A700F7D82F8587064
:102CD0004F7D82F85B708F7D82F85C70C97D82F8D1
:102CE0005D1018E003EB430104EB4111C861C862B9
:102CF0008861086281F84600486288624FF01902D4
:102D00008A7081F8590081F85A0081F8580081F8DA
:102D10005B0081F85C0003F10103DBB2B3429CDB92
:102D2000BDE8F09F4D4A4E49107808B1012805D101
:102D3000507818B94B480078552803D04A48008885
:102D40000870704708780028FBD0A0F101000870D7
:102D500070474648416821F4402141F48021416098
:102D6000416821F4403141F480314160416821F4EF
:102D7000404141F480414160416C21F4402141F4E3
:102D800000214164416C21F4403141F4003141643F
:102D9000416C21F4404141F40041416434480168F0
:102DA00021F0E0610160016841F4001101600168F7
:102DB00021F480310160016821F47F4141F4807188
:102DC00001604FF48071C1602A484FF480010160B6
:102DD00070472DE9F041284C60882188401A00B2E4
:102DE00003F095FBA61D3080A0886188401A00B2D0
:102DF00003F08DFB7080A0882188401A00B203F098
:102E000086FBB0803AE0000010020010B2C007203C
:102E100016020010840100102A030820EEC00720CB
:102E20001C020010C003001022020010E202082061
:102E30007C010010830000108801001000010010C8
:102E400066010010EE000010D8E907206A010010AA
:102E5000E8C00720F8F60720F0000010D0010010AD
:102E60004A000010720000101201001000C0024061
:102E70000040034000E100E090C007204FF496714D
:102E8000A4F18805884202DAA08868850CE0B6F9CA
:102E90000200884202DA6088688505E0B6F9000021
:102EA000884201DA20886885AF7800262FB3FE4873
:102EB000B5F92A1002680A44026042680A44426076
:102EC00082680A448260C2681144C160698E01F15F
:102ED000010109B26986B1F5805F00DB6E86B5F944
:102EE00032108A0531D14FEAA12150F821204FEA52
:102EF000E2222A8540F8216027E0EC48EC782A7924
:102F000000EB8413B5F92A1043F8221090070FD173
:102F1000014653F820C0614400F10100C0B21028FE
:102F2000F7D34FEA2110E049A1F1200121F8140064
:102F3000641CE0B2E870102807D3EE7002F10102C1
:102F4000D0B22871102800D32E716E7007F10107DE
:102F500007F00100A870D64A30B1106820F0FF00D9
:102F600000F1040010603DE0E978080706D410681D
:102F700020F0FF0000F10100106005E0106820F073
:102F8000FF0000F102001060CA48036843F080535C
:102F90000360036A43F080430362036E43F080637F
:102FA0000366CB070AD0436943F0805343618B0724
:102FB00009D4436B23F08043436308E0436923F063
:102FC00080534361F3E7436B43F080434363490716
:102FD00004D4416F21F08061416703E0416F41F00B
:102FE00080614167106840F080701060BDE8F0813A
:102FF000F0B5B14CB4F9200018B1A0F10100208463
:103000008DE04FF00005A5732846AD49AB4BB1F9F3
:10301000002012E0C0EBC00101EB410103EB810194
:103020008E78012E06D1C978142903D2A17B01F133
:103030000101A17300F10100C0B29042EADBA67B5E
:10304000022E6CD341F28830E066A56625674FF00A
:10305000000117E0C1EBC10000EB400003EB800072
:103060008778012F0BD1406AA76EB84200DDA066B9
:10307000E76EB84200DAE066276F3844206701F156
:103080000101C9B29142E5DB206F90FBF6F666675D
:10309000E06E012100B9E166A06E4FF0640700FB0D
:1030A00007F0E76E90FBF7F0A067A02800DD6173E2
:1030B000782800DA6573607B012830D14FF0000179
:1030C0006FF0310429E0C1EBC10000EB400003EBDD
:1030D00080008578012D1DD1456AB54205DDB0F827
:1030E0005050A5F10105A0F8505005DAB0F8505045
:1030F00005F10105A0F85050B0F95050A54201DA91
:10310000A0F85040B0F95050322D03DD4FF0320599
:10311000A0F8505001F10101C9B29142D3DB00BFC8
:10312000F0BD70B567480168674A01EA02010160B5
:10313000604C216841F47C712160C16921F4402117
:10314000C161216E41F000712166416821F040614A
:103150004160206840F0005020605D485B4D5E4952
:1031600002785C4895F83C30B1F9001000781343C0
:1031700007D030B1052904DDA36943F48073A3614E
:1031800003E0E36943F48073E36195F88830134307
:1031900007D030B1052904DDA06940F04000A061EE
:1031A00003E0E06940F04000E061D220FDF72AF83A
:1031B0004A4D70B16868012801D028B10DE0A069BE
:1031C00040F00050A06108E0E06940F00050E0618C
:1031D00003E0E06940F00050E061D220FDF712F812
:1031E0003F4E10B12868662815D03068C0071ED041
:1031F000E06F40F00070E067D220FDF703F810B1F7
:103200002868672818D03068800724D4E06940F027
:103210001000E06123E0686820B1E06F40F00070CA
:10322000E067E9E7A06F40F00070A067E4E7A06FF7
:1032300040F00070A067DFE7686810B1012805D092
:103240000DE0E06940F01000E06108E0A06940F0A6
:103250001000A06103E0A06940F01000A061D2203E
:10326000FCF7D0FF10B128686A283DD0306810F410
:10327000FF6F47D0A06940F08000A061D220FCF72A
:10328000C1FF10B128686B2841D01648B0F9000082
:1032900048B1012847D03068400751D5A06940F4B3
:1032A0000070A06170BD3EE078E8072058E4072078
:1032B0000040034000C0092008C00720D8E90720CB
:1032C000EE00001000C00240FF00F0FF98E8072069
:1032D0007D0300104D0000108A0000101000001047
:1032E000300000105E010010686830B10128C5D1BF
:1032F000A06940F08000A061C0E7E06940F0800074
:10330000E061BBE7E06940F08000E061B6E7686833
:1033100020B1E06940F40070E061C3E7A06940F4C7
:103320000070A061BEE7FF48007820B1A06940F4BA
:103330000070A061B6E7E06940F40070E061B1E7B9
:10334000E06940F40070E061ACE72DE9F05FF54E14
:103350004FF0010A4FF00008307D0A2809D200F131
:103360000100C0B230750A2803D386F8148086F8AD
:1033700015A0A6F84680A6F84880CD20FCF742FFAD
:10338000E94FDFF8A8B3A0B3E94A4FF6FF71106820
:10339000CE2801D1A6F84810CF2802D15368A6F84C
:1033A0004830D12802D15368A6F84630D22801D13E
:1033B000A6F84610D02806D15068A6F846006FEA55
:1033C0000000A6F848004FF0000437E0B6F84800C7
:1033D0000AFA04F919EA000F0CD0C4EBC40000EBA0
:1033E000400007EB800030F8401F01F1010101802F
:1033F00008E028E0C4EBC40000EB400007EB8000CD
:10340000A0F84080C4EBC40000EB400007EB80054F
:1034100005F1400032220021FCF74CFFB5F94000D5
:10342000142801DD85F82CA0B6F8460019EA000F33
:1034300001D085F82C8004F10104E4B2BBF900004E
:103440008442C3DD47E0707DB8B34FF00001084609
:10345000BBF900200AE0C0EBC00303EB430307EB1A
:10346000830383F82CA000F10100C0B29042F2DD8A
:103470004FF00000AF4BB3F9005012E0C0EBC003B7
:1034800003EB430307EB83039C78022C01D0012C50
:1034900004D183F82C8001F10101C9B200F10100CF
:1034A000C0B2904201DAA942E8DBA348B0F90000BB
:1034B0003C2810DA4FF000000BE00CE0C0EBC0013C
:1034C00001EB410107EB810181F82C8000F1010043
:1034D000C0B29042F2DD4FF000004FF06304BBF940
:1034E00000300FE0C0EBC00101EB410107EB8101AF
:1034F000CA6B22B181F82C40A2F10102CA6300F12B
:103500000100C0B29842EDDB86F8158086F8118084
:103510004FF000000FE0C0EBC00101EB410107EBF1
:1035200081018978012903D1717C01F10101717454
:1035300000F10100C0B29842EDDBBDE8F09F2DE93B
:10354000F0410646C6EBC600774900EB400011F893
:103550002020032A77D101EB800494F84250A80779
:1035600017D5B4F946104FF49662914222DA01F170
:10357000010108B2A4F8460090421BDBA4F84620E3
:103580006078C00716D101220021304601F0EEFF1D
:1035900010E0B4F9461069B1A1F1010108B2A4F834
:1035A000460038B96078C00704D000221146304682
:1035B00001F0DCFF29074FF00A074FF0000015D596
:1035C000B4F948100A2926DA01F1010108B2A4F879
:1035D00048000A281FDBA4F84870607880071AD4D6
:1035E00001221146304601F0C1FF14E0B4F9481041
:1035F00000290DDDA1F1010108B2A4F8480050B97D
:103600004FF000024FF00101304601F0AFFF02E041
:1036100001DAA4F84800E80616D5B4F94A100A29D8
:1036200020DA01F1010108B2A4F84A000A2819DBE6
:10363000A4F84A706078400714D401220221304671
:1036400001F094FF0EE046E0B4F94A0050B1A0F159
:10365000010000B2A4F84A0020B90022022130463D
:1036600001F084FF6078000703D04FF00400A070E1
:1036700017E03248007830B1E078142803D94FF0D1
:103680000500A0700DE094F84200800603D54FF0CD
:103690000200A07005E0E078142802D24FF001008B
:1036A000A070E0780A2806D394F82C0040F080003F
:1036B00084F82C0005E094F82C0000F07F0084F8DA
:1036C0002C001849B4F95000B1F91C1008442063CB
:1036D0004FF47A70606389E470B54FF000001849C8
:1036E000184D4FF00104B1F90C20034604FA00F123
:1036F0000A4201D02C5400E02B5400F10100C0B26A
:103700000C28F3D3104E2878104C3178814222D007
:10371000B4F9001001291EDB01287ED0002301220C
:103720000B2115E008C00720D8E90720EE000010A3
:1037300010000010B80300108A000010770000107D
:103740002A030820000308203E030820F800001088
:10375000FFA02BF0B2FF7178687881420BD0B4F9EA
:103760000010022907DB01287ED0002302220B2152
:10377000FCA02BF0A2FFB178A87881420BD0B4F95D
:103780000010032907DB01286FD0002303220B213F
:10379000F9A02BF092FFF178E87881420BD0B4F9D0
:1037A0000010042907DB01287AD0002304220B2112
:1037B000F6A02BF082FF3179287981420BD0B4F941
:1037C0000010052907DB012872D0002305220B21F8
:1037D000F3A02BF072FF7179687981420BD0B4F9B4
:1037E0000010062907DB012869D0002306220B21DF
:1037F000F0A02BF062FFB179A87981420BD0B4F927
:103800000010072907DB012860D0002307220B21C5
:10381000EDA02BF052FFF17900E02BE0E879814236
:103820000BD0B4F90010082907DB012855D000237C
:1038300008220B21E9A02BF040FF317A287A81423F
:103840000BD0B4F90010092907DB01284CD0002364
:1038500009220B21E6A02BF030FF4FF00000295C7D
:10386000315400F1010001E00BE012E0C0B20C287D
:10387000F5D317E501231A460B21E2A02BF01DFF1B
:1038800069E7012302220B21E3A02BF016FF72E768
:1038900006E0012303220B21E4A02BF00EFF7AE7C0
:1038A000012304220B21E6A02BF007FF83E7FFE7AB
:1038B000012305220B21E7A02BF0FFFE8BE701235C
:1038C00006220B21E8A02BF0F8FE94E70123072243
:1038D0000B21EAA02BF0F1FE9DE7012308220B212A
:1038E000EBA02BF0EAFEA8E7012309220B21EDA0B3
:1038F0002BF0E3FEB1E770B5C820FCF783FCEE497E
:103900000022A8B3ED4B01241868C9281CD0CA288E
:103910002FD0104600EB400303EB001301F82320E7
:1039200000F10100C0B20228F4D34FF0000000EB18
:10393000400303EB001311F82350142D39D901EB88
:10394000830383F83C4038E04FF0000000EB400375
:1039500003EB001511F82530322B03D203F10103DC
:1039600001F8253000F10100C0B20228EED3DCE7F7
:1039700029E04FF000005E6804FA00F31E420CD00C
:1039800000EB400303EB001511F82530322B0AD26F
:1039900003F1010301F8253005E000EB400303EBE0
:1039A000001301F8232000F10100C0B20228E3D384
:1039B000BBE701EB830383F83C2000F10100C0B2B8
:1039C0000228B4D36EE44FF0000000EB400303EB99
:1039D000001301F8232001EB830383F83C2000F15E
:1039E0000100C0B20228F0D35CE42DE9F041B44DEF
:1039F000B448B54CB5F90010B0F90020B4F9000096
:103A0000914203DD00F10100208003E002DAA0F121
:103A10000100208006220021AB48FCF74BFCB4F9E2
:103A20000000AA490126052800DD0E7000240128A7
:103A300000DA0C70A649B5F90000A64AB1F90010E9
:103A4000A54F8B1E98420FDA92F900101E291EDA3C
:103A500001F1010149B211701E2918DB3988A1F169
:103A600001013980147012E088420FDD92F90010D4
:103A70001E290CDA01F1010149B211701E2906DB81
:103A8000398801F101013980147000E01470934904
:103A9000B1F90010884205DD142200218E48FCF7A0
:103AA00009FC07E08E4800210088093002B28A48EC
:103AB000FCF700FCF020FCF7A5FB28B17F4801686B
:103AC000F12901D140683880B7F9001085480129F3
:103AD00001DC067000E004708348DFF81082B0F962
:103AE0000000A0F13201282921D8B5F90010804F3B
:103AF000814203DD388800F1010038807D48B0F94B
:103B00000000814203DA3888A0F1010038800622E3
:103B100000217748FCF7CEFBB7F90000052801DD4E
:103B200088F80060012804DA88F8004001E088F88D
:103B300000407148714FB0F90000A0F132011E2918
:103B400004D8B5F900106E4D8142DBE0F6E00000CC
:103B50004176746F6D6174202331206973204F4664
:103B6000460000004176746F6D6174202332206935
:103B700073204F46460000004176746F6D617420DB
:103B80002333206973204F46460000004176746F4E
:103B90006D6174202334206973204F464600000075
:103BA0004176746F6D6174202335206973204F4610
:103BB000460000004176746F6D61742023362069E1
:103BC00073204F46460000004176746F6D6174208B
:103BD0002337206973204F46460000004176746FFA
:103BE0006D6174202338206973204F464600000021
:103BF0004176746F6D6174202339206973204F46BC
:103C0000460000004176746F6D6174202331206995
:103C100073204F4E200000004176746F6D61742058
:103C20002332206973204F4E200000004176746FCC
:103C30006D6174202333206973204F4E20000000F3
:103C40004176746F6D6174202334206973204F4E68
:103C5000200000004176746F6D6174202335206967
:103C600073204F4E200000004176746F6D61742008
:103C70002336206973204F4E200000004176746F78
:103C80006D6174202337206973204F4E200000009F
:103C90004176746F6D6174202338206973204F4E14
:103CA000200000004176746F6D6174202339206913
:103CB00073204F4E2000000098E8072010000010ED
:103CC0007C010010CE000010C60300107E0300101F
:103CD000D00000107C0300108C010010D2000010F6
:103CE00086010010A5C00720D80000107D03001039
:103CF000F4C00720DA000010D4000010A6C007208E
:103D0000C803001003DD288800F101002880FF4867
:103D1000B0F90000814203DA2888A0F10100288070
:103D200006220021FA48FCF7C5FAB5F9000005287B
:103D300000DD3E70012800DA3C70CCE43C70CAE43F
:103D40002DE9FC5F0546F34931F9150018B1A0F1E2
:103D5000010021F81500EF4A121D32F9150018B1C3
:103D6000A0F1010022F8150005EB450000EB05135A
:103D7000E9484FF0640B00EB8304E84BB4F908000A
:103D8000B3F90030984201DD21F815B0002801DABE
:103D900022F815B0DF4831F815307C3800274BB1D8
:103DA00032F8153033B1B0F85E30A3B140F6B83117
:103DB000A0F85C10A0F85C7094F83E00401CC0B203
:103DC00084F83E000A2801D384F83E70D44E30882F
:103DD000322809D017E04FF41673A0F85E3021F8AE
:103DE000157022F81570E5E794F83C0058B9B4F95D
:103DF0000200502807DA94F83D00C00703D10121E2
:103E0000284601F0FDFEB6F90000C64EC8280FDDB9
:103E1000B4F90800FCF774FAB6F90010884207DD1F
:103E200094F83D00C00703D00021284601F0E8FEC9
:103E3000BC48B4F90810B0F900004042814214DDDA
:103E4000607B0A280DD200F10100C0B260730A281D
:103E500071D3A07B00286ED0A773284601F03EFEE8
:103E600069E04FF00A00607365E064DA607BF0B3EC
:103E7000A0F10100C0B26073C8BBA07BB8BB4FF01B
:103E80000100A073A848008800F1010000F00700BD
:103E900004EB4000008C0090A44EB08B01904FF0DA
:103EA00063024FF0010101A8FCF7F9F904F11C04C9
:103EB0009DF804002076307E01904FF00C024FF008
:103EC000010101A8FCF7EBF99DF804006076307B56
:103ED00001901F22012101A8FCF7E1F99DF80400DF
:103EE000A0769DF80000E076307A019000E022E0B4
:103EF0001722002101A8FCF7D2F99DF804002077D1
:103F0000307901903B22002101A8FCF7C8F99DF807
:103F100004006077307801903B22002101A8FCF773
:103F2000BEF99DF80400A0779DF80100E077278096
:103F30006780A4F11C0448F6A04894F83E00A8BB92
:103F4000B4F90810606908446061DFF8E491DFF8B3
:103F5000E4A140452BDB3AF91510A1F5AA405538EC
:103F600003D1754830F8156001E03AF8156039F86A
:103F700015002DF0A3F880B2B0420ED26169A1F510
:103F80000041A1F54A61616139F9152000F1010094
:103F900001B210462DF090F934E033D939F915000B
:103FA00031B22DF089F9C4F814802BE04CE063495C
:103FB000884227DC3AF91510A1F5AA40553803D1FB
:103FC0005D4830F8156001E03AF8156039F81500E1
:103FD0002DF074F880B2B04205D939F9150031B22C
:103FE0002DF06AF9304658B161694144616139F98F
:103FF0001520A0F1010001B210462DF05DF901E09D
:104000004E48606139F815002DF058F801463AF92C
:104010001500A0F5AA42553A02D1474830F91500DB
:104020004FF47A7201FB02F190B1B1FBF0F04FF066
:104030000A01B0FBF1F0208204F110004FF064029D
:104040004FF00001FCF736F9A07B012803D016E001
:104050004FF00000EBE7A08B40450FD2B4F9080009
:10406000FCF74EF9A18B084480B2A083404506D3EB
:10407000A783E08B00F10100E08300E0A7833049D3
:10408000B4F90A00B1F90010884201DD207BD8B3F1
:10409000B4F84000A0F10100A4F840004FF41679F4
:1040A00004F140004A460021FCF704F9B4F940004D
:1040B00040F24E26B04205DB94F83F1041F001017A
:1040C00084F83F100A2805DC94F83F0020F0010036
:1040D00084F83F001B49B4F90A00B1F90010884286
:1040E00001DD207B88B1B4F84200A0F10100A4F802
:1040F000420004F142004A460021FCF7DBF8B4F923
:104100004200B04226DB1FE041E047E0D60000104D
:10411000C803001084C0072098E80720B6000010EC
:1041200088000010AE000010640100102040024022
:10413000A4920300B8010010B00100106073FFFFEB
:10414000C8000010C600001094F83F1041F00201B2
:1041500084F83F100A2805DC94F83F0020F00200A4
:1041600084F83F00606C40451FDA00F10100606494
:1041700040451BDB6764FE4E36F815002CF09EFFB1
:10418000401C01B236F915002DF096F80EE0B4F897
:10419000400000F10100A4F840007FE7B4F84200BD
:1041A00000F10100A4F84200A3E76764F14E3088F3
:1041B00000284DD0B4F9020000EBD0704FEA600047
:1041C000A188A0EB010000B2FCF79AF800EB800098
:1041D0004FEA400000B24FF00C0190FBF1F000B24A
:1041E000E080B6F90010884234DDB4F90800FCF72D
:1041F00087F80146E048B0F9000000EB80008142FA
:1042000028DADE487321B0F90000484390FBFBF048
:10421000B4F9021000B288421CDA94F83D0080071D
:1042200018D4B4F8480000F1010000B2A4F8480026
:10423000A0F53061B83903D10121284601F02BFEE9
:10424000B4F9481040F6BD30814201DBA4F84800C3
:10425000BDE8FC9FA4F84870FAE72DE9F843C84C84
:104260000021A0790A2809D200F10100C0B2A07192
:104270000A2803D3A1714FF001002072E0790528CC
:1042800006D200F10100C0B2E071052800D1E17151
:10429000BE20FBF7B7FFBB4E30B1BB480168BF295A
:1042A00064D14068308061E0207A98B3B74F3878A5
:1042B000552806D07878552803D0B5480088308036
:1042C00054E04FF00000B34A4FF014036D466FF016
:1042D000130C395C55290FD025F810C000F10100EE
:1042E000C0B20228F5D3BDF90000BDF90210AA4AF8
:1042F000884214DD106013E000EB400101EB001177
:1043000002EB810191F80C80B8F1000F03D025F881
:104310001030E3E72AE0498925F81010DEE7116044
:1043200010689E49002802DAB1F9000017E0282839
:1043300002DD4FF0280010609948B0F90030B1F963
:104340000000A3EB000101EB81014FEA410112687B
:1043500001FB02F14FF0C80291FBF2F10844A17D8C
:10436000022902D18F48B0F900003080B6F9000070
:104370004FF0620100FB01F14FF0640291FBF2F19A
:10438000894B19804FF0660100FB01F090FBF2F0C1
:1043900086490880BDE8F8832DE9F041784CB4F9EE
:1043A000260010B1A0F10100E0848148814D008811
:1043B0002880784F0A26B7F90800002806DAFBF7AC
:1043C0009FFF90FBF6F0298808442880B7F9540035
:1043D000002806DAFBF794FF90FBF6F029880844E2
:1043E00028807548B5F90010B0F9000091FBF0F095
:1043F00000F10100C0B2A074704AB2F9002091FB34
:10440000F2F101F10101C9B2E1746D4B4FF03C05CD
:10441000B3F90020904202DD1880E58405E0914266
:1044200003DAE08C08B91980E5846648018866489B
:1044300009B101881980B0F90020BDE8F0410121DF
:104440005F48FBF737BF2DE9F04760484C4CB0F9A7
:1044500000106187B4F95C0018B1A0F10100A4F864
:104460005C00B4F95E0018B1A0F10100A4F85E0090
:1044700048484FF00A0590F83F20920703D190F882
:104480008B00800702D091FBF5F06087607A0026F0
:1044900001270A2807D200F10100C0B260720A2881
:1044A00001D36672A772E120FBF7ACFEDFF820C1F2
:1044B000344A40F2F23878B333490868642808D0A7
:1044C00069280BD06E280FD0E52822D0E62824D00A
:1044D00066E14968E08B0844A08361E14868E18BAC
:1044E000A1EB0000A0835BE1A08BA0F1010000B272
:1044F000A0831E2806DD2149BCF90000B1F9001097
:104500008842E5DA0A230022E721E620FBF73BFE9A
:1045100046E14868A08343E168E0BCF90000B2F9D5
:104520000010884216DDA0EB0100282807DDB4F951
:104530001C00002803DDA0F10500A08330E1B4F9E0
:104540001C00002805D0A17A002902D0A0F10100AA
:10455000A08325E10BDA081A28283BDDB4F91C00FA
:1045600040F2F731884235DA00F10500A08317E107
:10457000C0920300CA000010AE000010A800001096
:1045800008C007207E01001010000010000100107C
:10459000B800001098E80720E4C007209E00001033
:1045A000A0000010B0000010E2C00720B603001009
:1045B000E8C00720BA030010B2000010B4000010D9
:1045C000B8030010C4000010EE000010B600001088
:1045D00068010010B4F91C00B0F57F7F05DAA17AFC
:1045E000002902D000F10100A083D9E0A07A0028C0
:1045F0006FD0FF48008800286BD1B4F91E00E08618
:10460000B4F93810638F91FBF5F9B9EB430F0ADD6C
:10461000B4F85C1019B1A0F10100E086B8E0A0F197
:104620000A00E086B4E00EDAC3EB031A8A450ADA20
:10463000B4F85C1019B1A0F10100E086A8E0A0F187
:104640000300E086A4E0C3EB031A8A4505DD994523
:1046500003DDA0F10100E0869AE0BCF900C0B2F9E8
:104660000020DFF89093DFF890A3944564DAB9F95D
:104670000090BAF900A0A9EB0A09A2EB090AE245E9
:1046800028DD00290ADAB4F85C1019B100F1010044
:10469000E0867DE000F10A00E08679E003EB83022A
:1046A0008A420ADDB4F85C1019B100F10100E0861D
:1046B0006EE000F10200E0866AE0C3EB431202EB19
:1046C0008312B2FBF5F28A4262DD00F10100E0865E
:1046D0005EE065E04FEAE97A09EB9A79A2EBA90975
:1046E000E1451ADD03EB83028A420ADDB4F85C106F
:1046F00019B100F10100E0864AE000F10200E08615
:1047000046E0C3EB431202EB8312B2FBF5F28A429E
:104710003EDD00F10100E0863AE0521E944537DAB2
:10472000C3EB431202EB8312B2FBF5F28A422FDD98
:1047300000F10100E0862BE02ADDB9F90010BAF99A
:104740000030C91A8B1863450ADAB4F85C1019B145
:10475000A0F10100E0861BE0A0F10A00E08617E06E
:10476000CB1701EB937102EBA10161450ADAB4F8B2
:104770005C1019B1A0F10100E08609E0A0F102008F
:10478000E08605E0521C944502DDA0F10100E086C0
:1047900042460A219948FBF78DFDE08EE083A08315
:1047A0002673E6729748964BB0F900200CE0C0EBF8
:1047B000C00101EB410103EB8101C9781E2900D240
:1047C000277300F10100E072E07A9042EFDB207B7A
:1047D00020B94FF41670A083E083E08687484246F4
:1047E0000A211A38FBF766FDA672BDE8F0872DE9AD
:1047F000F05F4FF00000864A834B844D4FF0010A72
:104800004FF00A0B0646B2F9004025E08149824F7D
:10481000095C37F91110B1F5FA6F0EDA19560A2949
:1048200008DA01F1010149B219540A2911DB05F82E
:1048300000A00EE003F800B00BE01956002907DBDA
:10484000A1F1010149B21954002902DC2E5400E003
:104850001E5400F10100C0B2A042D7DB4FF00004AB
:10486000DFF8B8916E4FDFF8BC8183E06E4830F915
:10487000140010B9295D01290FD008B1285D60B17D
:1048800019F90400002819DBA0F1010040B209F871
:104890000400002814DC3E5512E019F904000A282F
:1048A00009DA00F1010040B209F804000A2807DB28
:1048B00007F804A004E009F804B001E009F8046076
:1048C00018F80410385D81424ED04C4A363A918E29
:1048D00001F101019186012807D054B3012C2FD09A
:1048E000022C34D0032C39D03EE034B1012C0BD053
:1048F000022C10D0032C15D036E001231A460F21CC
:104900004AA02AF0DAFE2FE0012302220F214AA05A
:104910002AF0D3FE28E0012303220F2149A02AF028
:10492000CCFE21E0012304220F2149A02AF0C5FE7C
:104930001AE0002301220F2148A02AF0BEFE13E056
:10494000002302220F214AA02AF0B7FE0CE0002328
:1049500003220F214BA02AF0B0FE05E00023042221
:104960000F214DA02AF0A9FE385D08F8040004F1DB
:104970000104E4B22648B0F900008442FFF676AFA5
:10498000BDE8F09F494A4FF0010010704849087097
:104990005070487070472DE9F05F4748DFF81C9170
:1049A000DFF81081B0F900C0B9F90000134CC0EB7A
:1049B0000011363CB8F902706FF01D0A6FF0950BCC
:1049C00000253A4EB4F93E000AEB81020BEB81035D
:1049D000674505DCDFF8E8C0BCF900C0674504DACC
:1049E000824202DD834200DA3570B8F908C069E01E
:1049F000900100109E000010A00000103EC0072093
:104A0000D8E90720EE000010AD030010950100105A
:104A1000F40000109F92030058E80720DDC0072033
:104A200099010010B103001028020010534B2023FD
:104A30003120416C61726D00534B20233220416C58
:104A400061726D00534B20233320416C61726D0005
:104A5000534B20233420416C61726D00534B202353
:104A60003120416C61726D206973206F66660000B1
:104A7000534B20233220416C61726D206973206F8B
:104A800066660000534B20233320416C61726D2019
:104A90006973206F66660000534B20233420416CFD
:104AA00061726D206973206F66660000EAC007209E
:104AB000BC03001098E80720B6030010BE000010E9
:104AC000E2C00720FF4FB7F900E0FF4FBCEB4E0FED
:104AD00004DCCEF1000EBCEB4E0F04DA824202DDA4
:104AE000834200DA3D706FF0090202EB81018142DE
:104AF00020D1A07DF0B9307801281BD13878012869
:104B000018D14FF4D6702CF0D9FAF049B1F9001051
:104B100088420FD0EE48008860B198F83D00C00789
:104B200008D14FF4D6702CF0C7FBEA48017801F1A8
:104B300001010170E848B8F90210B0F900008142A3
:104B400006DCE648B8F94E10B0F9000081420EDAF2
:104B5000B9F90000B4F93E10C0EB00100AEB800276
:104B60008A4204DD0BEB8000884200DA7570D5497B
:104B7000B8F95400B1F90010B0EB410F03DC494221
:104B8000B0EB410F0EDAB9F90000B4F93E10C0EBFA
:104B900000100AEB80028A4204DD0BEB80008842A1
:104BA00000DA7D70B9F90000C0EB00116FF0090068
:104BB00000EB8100B4F93E10884221D1A07DF8B904
:104BC000707801281CD17878012819D14FF4E57547
:104BD00028462CF073FABD49B1F9021088420FD073
:104BE000BB48008802280BD198F88900C00707D17C
:104BF00028462CF061FBB748017801F101010170F2
:104C0000B9F900006FF00101C0EB001001EB80006A
:104C1000B4F93E10884202D1BDE8F05FB2E6AFE6DB
:104C20002DE9F003AE48AF4FAF4E00784FF0000CC7
:104C30004FF00108E8B3AD483946B0F90050AC4830
:104C4000B1F90010B0F90090AA484D45B0F9002024
:104C5000A948B0F90030A948B0F90040A848B0F917
:104C6000000013DA824203DB834201DB84420DDA67
:104C7000A448B0F90020914223DA01F1010108B201
:104C8000388090421DD186F800C01AE0DFF878C263
:104C9000BCF900C0654514DD824212DD834210DD9F
:104CA00084420EDD69B1A1F1010108B2388040B93A
:104CB00000E002E086F8008003E0A7F800C086F874
:104CC00000803078002807D1BDE8F0030F230122CF
:104CD0006E21D220FBF757BABDE8F00370472DE9EB
:104CE000F04F87B089488A4C8A498B4A007894F9FA
:104CF0000030B1F90010B2F9002048B102283CD0D0
:104D000001287ED04FF00100207007B0BDE8F08F81
:104D1000824FDFF80C82B7F90A003D7BB7F9566085
:104D200098F800C097F8587098F801802BB1012BC3
:104D3000EBD1BCF1550F15D110E0BCF1550F02D1EC
:104D4000884207DC35B9B8F1550FDED18E4201DC5F
:104D5000002FDAD04FF001002070D6E79042D4DA6D
:104D6000002DD2D1B8F1550F03D19642CDDA002FE4
:104D7000CBD14FF000002070C7E76B4E6948B56A91
:104D8000B0F90000F67818B18D427ADC1E2E78D288
:104D9000DFF894C10128DCF87C709CF857C0CDF88E
:104DA00018C006DD8F426CDCDDF818C0BCF11E0FA8
:104DB00067D2DFF874C10228DCF8D080CDF8148007
:104DC0009CF8ABC0CDF810C008DDDDF814C08C45F0
:104DD00057DCDDF810C0BCF11E0F52D2DFF848C11D
:104DE0000328DCF82481CDF80C809CF8FFC0CDF8B6
:104DF00008C00ADDDDF80CC08C4542DCDDF808C0D7
:104E000000E0B5E0BCF11E0F3BD2DFF81C810428A6
:104E1000D8F878C198F85381CDF8048006DD8C4528
:104E20002FDCDDF80480B8F11E0F2AD2DFF8F890ED
:104E30000528D9F8CC8199F8A791CDF8009006DD26
:104E400088451EDCDDF80090B9F11E0F19D2DFF89D
:104E5000D8A006289AF8FBE1DAF8209204DD89450B
:104E60000FDCBEF11E0F0CD2DFF8BCB00728DBF858
:104E700074A29BF84FB208DD8A4502DCBBF11E0F1D
:104E800003D34FF0010020703FE7012BFCD118B194
:104E90009542F9DA0A2EF7D2022804DB9742F3DAB8
:104EA00006990A29F0D2032805DB05999142EBDA2D
:104EB00004990A29E8D204283ADB03999142E3DAFB
:104EC000029933E0AE000010BC030010B8010010DE
:104ED000EC000010BE030010B6030010E2C0072073
:104EE0006D000010F6C00720A7C007206801001061
:104EF000E200001070010010720100107401001037
:104F0000AA000010E0000010E40000106C00001087
:104F100008C00720DC000010DE00001098E8072021
:104F200000010010EE000010D8E907200A29ABD2DA
:104F3000052804DB9445A7DA01990A29A4D206289A
:104F400004DB9045A0DA00990A299DD2072804DBEA
:104F5000914599DABEF10A0F96D2082804DB9245F2
:104F600092DABBF10A0F8FD24FF000002070CCE62E
:104F70002248234D234EB0F90000B5F900503668A1
:104F800010B18D421DDCE6B91D4FDFF878C0012855
:104F9000B7F90270DCF804C004DD8F4211DCBCF10B
:104FA000000F0ED1DFF85880DFF858900228B8F9CA
:104FB0000480D9F8089008DD884502DCB9F1000FBB
:104FC00003D04FF0010020709FE6012BCFD118B124
:104FD0009542CCDA002ECAD1022804DB9742C6DA09
:104FE000BCF1000FC3D1032804DB9045BFDAB9F14F
:104FF000000FBCD14FF00000207086E6F2000010D8
:105000000A0200108802082030B5FF48FF4B0178E3
:10501000186819B140F00100186002E020F00100AA
:1050200018604FF00000FA4D4FF0010400EB400112
:1050300001EB001105EB810191F83D10C9070AD081
:1050400000F1010204FA02F11A6822EA010242EABE
:1050500001021A6007E000F101011A6804FA01F187
:1050600022EA01021A6000F10100C0B20228DDD379
:105070004FF00000E74DC0EBC00202EB420105EB30
:105080008101497851B100F1030104FA01F2196874
:1050900021EA020141EA0201196007E000F103017F
:1050A00004FA01F2196821EA0201196000F1010015
:1050B000C0B20C28DFD34FF00000D44D05F1140529
:1050C000295C51B100F10F0104FA01F2196821EADB
:1050D000020141EA0201196007E000F10F0104FA40
:1050E00001F2196821EA0201196000F10100C0B261
:1050F0000628E5D34FF00000C74D295C012936D0C2
:1051000000F1190104FA01F2196821EA020119609B
:1051100000F10100C0B20428EFD39C68186820EAAF
:105120000401D9605A6842EA01025A60BB490D88FD
:1051300015B122F000725A604A881AB15A6822F0FA
:1051400080625A608A881AB15A6822F000625A60F6
:10515000C98819B1596821F08051596024EA0004C6
:105160006FEA04011961AE4A12885AB10DE000F1EC
:10517000190104FA01F2196821EA020141EA020167
:105180001960C5E761F0010119611A69596801EAFE
:1051900002015960986030BDF8B54FF4606528464B
:1051A0002BF08CFF00F1010004463F2C01D94FF099
:1051B000000421B228462CF07FF840F60266304603
:1051C0002BF07CFF3F2800D0204601B230462CF067
:1051D00073F828462BF072FF4FF4806101EB401406
:1051E0004FF055008DF800004FF000068DF801607B
:1051F0004FF052008DF802008DF80360694620469A
:105200002CF0DFF800966946201D2CF0DAF8854D69
:10521000A88B8DF80000287E8DF80100287B8DF882
:1052200002008DF80360694604F108002CF0C9F80B
:10523000287A8DF8000028798DF8010028788DF8FB
:1052400002008DF80360694604F10C002CF0B9F8F7
:105250004FF041058DF800508DF801508DF8025047
:105260008DF80350694604F110002CF0AAF88DF86F
:1052700000508DF801508DF802508DF803506946AA
:1052800004F114002CF09DF88DF800508DF80150B9
:105290008DF802508DF80350694604F118002CF087
:1052A00090F88DF800508DF801508DF802508DF86F
:1052B0000350694604F11C002CF083F8F8BD2DE979
:1052C000F843584F5049203F4FF460654FF00008B5
:1052D0004FF48069012802D000287ED043E14FF0CE
:1052E0000100087028462BF0E9FE00F10100044699
:1052F0003F2C01D94FF0000421B228462BF0DCFFEF
:1053000040F6026630462BF0D9FE3F2800D02046FA
:1053100001B230462BF0D0FF28462BF0CFFE09EB30
:1053200040154FF050008DF800008DF801804FF0CF
:1053300041048DF802408DF80380694628462CF020
:1053400040F8CDF800806946281D2CF03AF807F1A6
:105350002007B88B8DF80000387E8DF80100387B6F
:105360008DF802008DF80380694605F108002CF0E5
:1053700028F8387A8DF8000038798DF801003878EF
:105380008DF802008DF80380694605F10C002CF0C1
:1053900018F88DF800408DF801408DF802408DF826
:1053A0000340694605F110002CF00BF88DF8004021
:1053B0008DF801408DF802408DF80340694605F1F3
:1053C00014002BF0FEFF8DF800408DF801408DF8A1
:1053D00002408DF80340694600E032E005F1180014
:1053E0002BF0EFFF8DF800408DF801408DF8024062
:1053F0008DF80340694605F11C002BF0E2FF002305
:105400000122022108A019E0770000102C000010F2
:1054100098E80720D8E90720990100103802001009
:10542000A6000010204002404D61696E20706F7729
:105430006572206973206F66660000002AF03DF9EE
:1054400091E081F80080F948016821F001010160D4
:10545000F749098819B1416821F0010141602846E6
:105460002BF02CFE0646344609EB441569462846C7
:105470002BF0ABFE9DF80000502806D19DF80100EE
:1054800018B99DF80200412808D014B1A4F1010414
:1054900001E04FF03F04B442E6D164E0694605F113
:1054A00010002BF092FE9DF8000041280BD19DF8D2
:1054B0000100412807D19DF80200412803D19DF841
:1054C0000300412808D014B1A4F1010401E04FF019
:1054D0003F04B442C8D146E007F12007B88B8DF8ED
:1054E0000000387E8DF80100387B8DF802008DF8C1
:1054F0000380694605F110002BF063FF387A8DF8C0
:10550000000038798DF8010038788DF802008DF8A8
:105510000380694605F114002BF053FFC54801785C
:105520008DF8001040788DF801004FF042048DF89E
:1055300002408DF80340694605F118002BF041FF49
:105540008DF800408DF801408DF802408DF8034041
:10555000694605F11C002BF034FF01231A46022195
:10556000B5A02AF0AAF800BFBDE8F8832DE9F84FEE
:1055700006460C464FF0540774B1012C04D0022C9F
:1055800005D0032C06D007E04FF0550704E04FF09C
:10559000750701E04FF04C07AD49C6EBC600DFF8D8
:1055A000AC8200EB40004FF000094FF4606A4FF40A
:1055B000806501EB8000012A02D0002A7ED08AE2B9
:1055C00034B1012C09D0022C0CD0032C0FD012E0E6
:1055D000417841F0010141700DE0417841F0020154
:1055E000417008E0417841F00401417003E04178E6
:1055F00041F00801417080F8534050462BF05EFDA9
:1056000000F101001FFA80FBBBF13F0F01D94FF001
:10561000000B0FFA8BF150462BF04EFE40F6026065
:105620002BF04CFD80B23F2800D0584601B240F626
:1056300002602BF041FE50462BF040FD05EB401080
:1056400085B24FF053008DF800008DF801608DF8A1
:1056500002708DF80390694628462BF0B2FECDF813
:1056600000906946281D2BF0ACFEB8F83C008DF880
:10567000000098F838008DF8010098F82C008DF89B
:1056800002008DF80390694605F108002BF099FEA1
:1056900098F828008DF8000098F824008DF8010093
:1056A00098F820008DF802008DF80390694605F106
:1056B0000C002BF086FE4FF0410700E0A5E08DF8CE
:1056C00000708DF801708DF802708DF803706946D6
:1056D00005F110002BF075FE8DF800708DF801704B
:1056E0008DF802708DF80370694605F114002BF0F7
:1056F00068FE8DF800708DF801708DF802708DF8DD
:105700000370694605F118002BF05BFE8DF8007000
:105710008DF801708DF802708DF80370694605F1FF
:105720001C002BF04EFE26B1012E26D0022E48D0B2
:10573000D1E134B1012C0BD0022C10D0032C15D0A8
:10574000C9E100230122042142A029F0B6FFC2E1F1
:1057500001231A46042145A029F0AFFFBBE1022333
:105760000122042148A029F0A8FFB4E1032301226B
:1057700004214DA029F0A1FFADE134B1012C0BD0E3
:10578000022C10D0032C15D0A5E100230222042105
:105790004DA029F092FF9EE101230222042150A096
:1057A00029F08BFF97E102231A46042153A029F028
:1057B00084FF90E103230222042158A029F07DFFF9
:1057C00089E134B1012C0BD0022C10D0032C15D060
:1057D00081E100230322042158A029F06EFF7AE121
:1057E0000123032204215BA029F067FF73E1022358
:1057F000032204215EA029F060FF6CE103231A4616
:10580000042163A029F059FF65E134B1012C09D0CE
:10581000022C08D0032C07D0D8E0417821F00101F8
:105820004170D3E0C4E0C8E0CCE000002C000010E0
:10583000A6000010DAC007204D61696E20706F77F6
:105840006572206973206F6E000000000040024006
:10585000D8E9072042505320233120416C61726DFA
:105860002C206F7665726865617400004250532089
:10587000233120416C61726D2C20766F6C746167EE
:1058800065206973207570004250532023312041F8
:105890006C61726D2C20766F6C7461676520697322
:1058A00020646F776E000000425053202331204166
:1058B0006C61726D2C20636F6E6E6563742069730A
:1058C000206C6F737400000042505320233220413B
:1058D0006C61726D2C206F76657268656174000072
:1058E00042505320233220416C61726D2C20766F20
:1058F0006C74616765206973207570004250532095
:10590000233220416C61726D2C20766F6C7461675C
:105910006520697320646F776E0000004250532049
:10592000233220416C61726D2C20636F6E6E656353
:1059300074206973206C6F73740000004250532010
:10594000233320416C61726D2C206F76657268651F
:105950006174000042505320233320416C61726D0A
:105960002C20766F6C7461676520697320757000F8
:1059700042505320233320416C61726D2C20766F8E
:105980006C7461676520697320646F776E00000036
:1059900042505320233320416C61726D2C20636F81
:1059A0006E6E656374206973206C6F737400000001
:1059B000417821F00201417008E0417821F00401B2
:1059C000417003E0417821F00801417050462BF00E
:1059D00075FB1FFA80FB5C4605EB44101FFA80FA4A
:1059E000694650462BF0F1FB9DF80000532807D183
:1059F0009DF80100B04203D19DF80200B84209D0E1
:105A00001CB1A4F10104A4B201E04FF03F045C45D5
:105A1000E2D160E069460AF110002BF0D6FB9DF858
:105A2000000041280BD19DF80100412807D19DF8C5
:105A30000200412803D19DF80300412809D01CB180
:105A4000A4F10104A4B201E04FF03F045C45C3D1CE
:105A500041E0B8F83C008DF8000098F838008DF867
:105A6000010098F82C008DF802008DF8039069462B
:105A70000AF110002BF0A5FC98F828008DF8000022
:105A800098F824008DF8010098F820008DF80200A5
:105A90008DF8039069460AF114002BF092FC4FF048
:105AA00042048DF800408DF801408DF802408DF8D9
:105AB000034069460AF118002BF083FC8DF8004082
:105AC0008DF801408DF802408DF8034069460AF1D7
:105AD0001C002BF076FC00BFBDE8F88F2DE9FC41DF
